:020000040000FA
:0600000002008B024BAE72
:01000B0032C2
:0100130032BA
:03001B0002520B83
:0100230032AA
:03002B0002354F4C
:01003300329A
:01003B003292
:03004300023DE794
:03004B00023D0370
:03005300023D0764
:03005B00023D0E55
:03006300023D5308
:01006B003262
:0300730002528CAA
:01007B003252
:03008300024ABE70
:0300EE0002008687
:050086001200F180FEF4
:0E00F100123B93D284D285E4C0E0C0E0C0E0B0
:0E00FF00E4C0E0E4C0E0C0E0C0E074DCC0E0BB
:0A010D00E4C0E074CEC0E0746CC0E2
:0E011700E07480C0E090012F12086FE5812493
:0A012500F4F581120E57900000223D
:0A012F00C010E581F5102410F581E1
:0A013900AA82A81008A602A8100868
:0C0143000876007C007D00A81008080869
:0E014F00760190C20075F001E4C004C00512F4
:06015D004C0E906CD31261
:0D0163004C17900014120D6AC284C28590E2
:0E017000000075F000125F4E125FA2AF82AA6F
:0E017E0083ABF090E0A7EFF0A3EAF0A3EBF064
:0E018C00E4C0E0C0E0C0E0E4C0E0E4C0E0C0D9
:0E019A00E08F828A838BF0125FF6E58124FAF3
:0B01A800F58112604AAA82D005D00445
:0C01B300C004C005A81008088603E6334D
:0E01BF0095E0FF630301C002C004C005C00349
:0E01CD00C0079000641257FAAB82AF83158111
:0E01DB001581D005D004EF3395E0FCFD740AC9
:0E01E900C0E0E4C0E0C0E0C0E08B828F838CF9
:0E01F700F0ED125957AB82AC83ADF0FFE581FD
:0E02050024FCF58174022BFBE43CFCE43DFD7F
:0E021300E43F8B828C838DF0C005124C11AB42
:0E02210082AC83D005D0028C06E4BBFF04BE85
:03022F00FF0104C8
:09023200D005D00460030205B9F7
:0C023B00A810087603BB0D06BE000302ED
:0202470005466A
:09024900BB4306BE0003020310D2
:09025200BB6106BE0003020409B1
:08025B00BB6205BE0002805CDD
:09026300BB6306BE000302031791
:09026C00BB6706BE00030203B5E6
:08027500BB6805BE00028027F2
:09027D00BB6D06BE000302055A28
:09028600BB7006BE000302045D1A
:09028F00BB7206BE00030203610C
:09029800BB7506BE00030204D28E
:0302A1000205A8AB
:0D02A400906CE2C002C004C005124C17901F
:0C02B1006D09124C17D005D004D00202D9
:0202BD0005B981
:0E02BF00C004C00590F12EE0FBA3E0FFA3E019
:0E02CD00FC8B828F838CF0C002C004C005122F
:0E02DB002937AB82D005D0047C00C004C005DA
:0E02E900C003C004740AC0E0758206124C52B5
:0E02F700158115811581906D3E124C17D005B2
:0B030500D004D002D005D0040205B9DE
:03031000BA1A0016
:0303130050010A8C
:010316000ADC
:06031700EA24F450011A73
:0E031D008A82C002C004C00512609E906D541A
:0E032B00124C17D005D004D0028A037F00C008
:0E03390002C004C005C003C007740AC0E0750E
:0E0347008206124C52158115811581906D5E53
:0C035500124C17D005D004D0020205B9EC
:0A036100A810080808E66401F6A8D9
:0C036B0010080808740156FBF582C0025F
:0E037700C003C004C005123BC2D005D004D0A4
:0E03850003D002EB6015906D61C002C004C091
:0D03930005124C17D005D004D0020205B9A8
:0E03A000906D69C002C004C005124C17D00554
:0703AE00D004D0020205B9E2
:0A03B500A810080808E66402F6A884
:0C03BF0010080808740256FBF582C0020A
:0E03CB00C003C004C005123BB7D005D004D05B
:0E03D90003D002EB6015906D71C002C004C02D
:0D03E70005124C17D005D004D0020205B954
:0E03F400906D7AC002C004C005124C17D005EF
:07040200D004D0020205B98D
:0A040900A810080808E66404F6A82D
:0C04130010080808740456FBF582C002B3
:0E041F00C003C004C005123BACD005D004D011
:0E042D0003D002EB6015906D83C002C004C0C6
:0D043B0005124C17D005D004D0020205B9FF
:0E044800906D8BC002C004C005124C17D00589
:07045600D004D0020205B939
:0A045D00A8100808E660030205B9C4
:0C04670090E0A0E4F0C002C004C00574E6
:0A04730000C0E074E0C0E0E4C0E067
:0E047D0090000075F0001260F2AB8215811540
:0E048B00811581D005D004D002BB0126C0022D
:0C0499001210AFAB82AF838B048F05A85C
:0C04A5001008087602906D93C004C0059A
:0C04B100124C17D005D004D0020205B98F
:0E04BD00906D9AC002C004C005124C17D00505
:0704CB00D004D0020205B9C4
:0A04D200A8100808E660030205B94F
:0C04DC0090E0A0E4F0C002C004C0057471
:0A04E80000C0E074E0C0E0E4C0E0F2
:0E04F20090000075F000126146AB8215811576
:0E050000811581D005D004D002BB0126C002B7
:0C050E001210AFAB82AF838B048F05A8E6
:0C051A001008087601906DA7C004C00511
:0C052600124C17D005D004D0020205B919
:0E053200906D9AC002C004C005124C17D0058F
:06054000D004D00280731C
:0E054600906D5EC002C004C005124C17D005B7
:06055400D004D002805F1C
:0C055A00C004C005E5102404FB7F007CF9
:0E056600408B828F838CF0C002C004C005124F
:06057400458D906DB812E8
:0C057A004C17D005D004E5102404FB7CD5
:0E058600007D408B828C838DF0C004C0051276
:060594004E85906D5E1221
:0E059A004C17D005D004D002D005D00480113B
:0E05A8008B82C002C004C005124C14D005D0D6
:0305B60004D0026C
:0E05B90090E0A7E0FBA3E0FFA3E0FEEB4F4EB7
:0505C70070030206DADA
:0E05CC0090E0A4E4F0A3F0A3F090000AC002B7
:0E05DA00C004C00512619AAB82AE83AFF0D0B0
:0E05E80005D004D00290E0A4EBF0A3EEF0A347
:0A05F600EFF0EB4E4F70030206DA3F
:0D0600008B828E838FF0C002C004C00512F3
:0E060D0061EEAB82D005D004D002BB060280A5
:01061B000DD1
:05061C00BB0702804352
:05062100BB0902807915
:030626000206B118
:0D062900906DBEC002C004C005124C1790B9
:060636006D5E124C1790EE
:0E063C00E0A4E0FBA3E0FEA3E0FF74032BFBB1
:0D064A00E43EFE8B828E838FF0124E859071
:0D0657006D5E124C17D005D004D002804D0E
:0D066400906DCFC002C004C005124C17906D
:060671006D5E124C1790B3
:0E067700E0A4E0FBA3E0FEA3E0FF74032BFB76
:0D068500E43EFE8B828E838FF0124E859036
:0D0692006D5E124C17D005D004D00280120E
:0E069F00906DECC002C004C005124C17D005CF
:0406AD00D004D002A3
:0E06B10090E0A4E0FBA3E0FEA3E0FF8B828EAE
:0E06BF00838FF0C002C004C005126242D00555
:0D06CD00D004D00290E0A4E4F0A3F0A3F06C
:0E06DA00C002C002C004C0051210AFAB82AE59
:0E06E80083D005D004D002EBC39CFBEE9DFE38
:0E06F6007F007A00C004C005C003C006C00724
:0E070400C00290000AE4F5F0125C5BAA82AB22
:0E07120083AEF0FFE58124FCF581D005D00414
:0E072000C374E89A74039BE49EE49FD00240E9
:04072E000302085565
:0A073200A8100808E670030208553D
:0D073C00906E01C002C004C005124C1712DF
:0E0749006296D005D004D00290E0A0E07003CC
:0307570002083461
:0E075A00906E11C002C004C005124C17D005ED
:06076800D004D0027B006A
:0D076E0090E0A0E0FEC3EB9E400302082DCA
:0C077B00C004C005EBC454F0FE2400FFD5
:0C078700E434E0FC7D008F828C838DF058
:0E079300C002C003C004C005C006124E85900F
:0D07A1006E1E124C17D006D005D004EE24B9
:0A07AE0000FCE434E0FD740F2CF5AC
:0E07B80082E43DF583E0FC3395E0FDC004C013
:0E07C60005C006C004C005740AC0E0758206B6
:0D07D400124C52158115811581906E201276
:0C07E1004C17D006D005D004EE2400FE1A
:0C07ED00E434E0FC740D2EF582E43CF5D1
:0E07F90083E0FCA3E0FDC004C005C004C00501
:0E080700740AC0E0758206124C5215811581EC
:0E0815001581906E27124C17D005D004D00329
:0A082300D0020BD005D00402076ECE
:07082D0090E0A0E4F080124E
:0E083400906E2DC002C004C005124C17D005F6
:04084200D004D0020C
:0C08460090E0A1E4F0A3F0A3F0A81008DB
:0308520008760025
:0A085500A81008E624EB5005A810D7
:03085F0008760018
:08086200A81008060201B3858D
:05086A001081D01022F6
:056CCE004D61696E003C
:0E6CD3006E616E6F5F6578616D706C650D0AA5
:016CE10000B2
:0E6CE2005368656C6C2068656C703A0D0A7022
:0E6CF000202D2053656E642062726F61646314
:0B6CFE006173742070696E670D0A005E
:0E6D090075202D2053656E642062726F6164E8
:0E6D17006361737420554450206563686F0DEE
:0E6D25000A6D202D205072696E74204D41437E
:0B6D330020616464726573730D0A0038
:0E6D3E00206275666665727320617661696C0D
:086D4C0061626C652E0D0A0066
:0A6D54004368616E6E656C3A200022
:036D5E000D0A001B
:086D61005265673D310D0A0087
:086D69005265673D300D0A0080
:096D71004761696E3D310D0A0015
:096D7A004761696E3D300D0A000D
:086D8300416D703D310D0A0065
:086D8B00416D703D300D0A005E
:076D930050696E670D0A0054
:0D6D9A004E6F206275666665722E0D0A0050
:0E6DA700756470206563686F5F7265712829DE
:036DB5000D0A00C4
:066DB8004D41433A2000AA
:0E6DBE00526F7574652062726F6B656E207483
:036DCC006F200035
:0E6DCF0049434D50206D657373616765206206
:0E6DDD0061636B2C206E6F20726F75746520E1
:016DEB0000A7
:0E6DEC005061796C6F616420546F6F204C65AC
:076DFA006E6774680D0A00CA
:0E6E010050696E672074696D656F75742E0D93
:026E0F000A0077
:0D6E1100526573706F6E73653A200D0A00B4
:026E1E00200052
:076E20002064626D2C2000CC
:066E2700206D730D0A004E
:0E6E2D004E6F20726573706F6E73652E0D0AC6
:016E3B000056
:0D6E96000400000000000000000000B3F048
:0D6EA30004FFFFFFFFFFFFFFFF0000FE00E8
:0500E40090E110E4F0C2
:0A086F00C010858110C082C083050F
:0C0879008105810581E51024F9F88682D4
:0D088500088683121A79AC82AD83AEF0A80C
:0C08920010080808A60408A60508A60621
:0C089E00A810080808B6000B08B60007F8
:0708AA0008B60003020A601A
:0A08B100E51024F5F8E6C0E0E510BC
:0E08BB0024FBF8E6C0E008E6C0E008E6C0E076
:0C08C900E51024F9F8E6C0E008E6C0E005
:0C08D500A81008080886820886830886A0
:0C08E100F01217F1E58124FAF581A8104F
:0E08ED00080808742026FFE40836FA0886037F
:0E08FB008F828A838BF0125BBEFFA3125BBE5E
:0C090900FAA3125BBEFBE51024F6F8E632
:0C091500C0E008E6C0E008E6C0E0A81062
:0E09210008E6C0E008E6C0E08F828A838BF013
:0E092F001231BCAA82AB83AFF0E58124FBF548
:0C093D0081A8100808088682088683083C
:0E09490086F0EA125647A3EB125647A3EF12B0
:0E0957005647C0E0C0A8C2AF90F340E02401B4
:0C096500F090F340E0FABA0117A8100867
:0E097100080890F33CE6F008A3E6F008A3E6C1
:06097F00F012195E803F3A
:0E09850090F345E0FA703890F33CE0FAA3E0FE
:0E099300FBA3E0FF741F2AFAE43BFB8A828B71
:0C09A100838FF0125BBEFAE51024F5F81D
:0B09AD00C3E69A4012A810080808904A
:0C09B800F33CE6F008A3E6F008A3E6F02C
:0C09C400A810080808741F26FAE4083682
:0E09D000FB0886078A828B838FF0125BBEFACB
:0E09DE0090F343E0FBC39A500590F343EAF018
:0C09EC00A810080808742326FBE4083655
:0E09F800FF08860490E110E0FD8B828F838C57
:0B0A0600F012564790E110ED04F09054
:0D0A1100F344E0FBC39A500590F344EAF073
:0C0A1E00A810080808740326FBE4083642
:0C0A2A00FC088605EA75F00CA424AAFA6A
:0C0A3600E434E0FE7F00C003C004C005F3
:0E0A42008A828E838FF0122C09158115811582
:0E0A5000817A01D0E053E080E5E042A8D0E0DA
:020A5E00800214
:020A60007AFF1B
:0C0A6200BA0163E51024F2F88603088650
:0E0A6E0004088605BB0008BC0005BD00028020
:010A7C001B5E
:0C0A7D008B828C838DF0A810080808E61E
:0D0A8900125647A308E6125647A308E612CE
:020A96005647C1
:0E0A980090F345E0FB602990F33CE0FBA3E007
:0E0AA600FCA3E0FD741F2BFBE43CFC8B828C58
:0C0AB400838DF0125BBEFBE51024F5F80A
:080AC000C3EB96500312346EE3
:080AC8008A82851081D0102202
:0A0AD000C010E581F5102406F58141
:0D0ADA00AA82AB83ACF0C0E0C0A8C2AF9010
:0E0AE700F33CE0FDA3E0FEA3E0FFEAB5050E40
:0E0AF500EBB5060AECB507067A007B007C0024
:0B0B0300E4BA0007BB0004BC000104C2
:0C0B0E00FD601290F33CA81008E0F6A374
:090B1A00E008F6A3E008F6800BE8
:0B0B2300A81008A60208A60308A604FC
:0C0B2E00C005A81008860208860308868F
:0E0B3A000474032AFEE43BFF8C058E828F8339
:0E0B48008DF0C002C003C004C005122FFBD008
:0C0B560005D004D003D002E5102404F800
:0C0B620074112AF6E43B08F608A604E52E
:0C0B6E00102404F8740B26FDE40836FE89
:0E0B7A000886078D828E838FF0125BBEFDA36E
:0E0B8800125BBEFEA3125BBEFFED4E4FD0050A
:0C0B96006020E5102404F88682088683A5
:0E0BA2000886F0C002C003C004C005122FFB7D
:080BB000D005D004D003D002EF
:0E0BB80074032AFAE43BFBC005C002C003C070
:0E0BC6000490E10475F000122C0915811581D0
:0E0BD4001581D00590F33FE02401F0D0E053EE
:0E0BE200E080E5E042A8D0E090F345E0FA6044
:070BF00006ED600312346EF4
:060BF700851081D01022E0
:0A0BFD00C010858110C082C083C0C3
:0B0C0700F00581E5102404F8760012CF
:0C0C12000EA9A8100886820886830886B8
:0B0C1E00F0125BBEFEA3125BBEFFE500
:0C0C29001024FCF8E62EFD08E63FFA8DD2
:0E0C35000390F341E0FCA3E0FDC3EC9EED9FB5
:0E0C4300501FC3EB9EEA9F503590F341E0FC3A
:0C0C5100A3E0FDC3EC9BED9A5026E510DB
:070C5D002404F87601801D5C
:0E0C6400C3EB9EEA9F400F90F341E0FCA3E03B
:080C7200FDC3EC9BED9A500755
:070C7A00E5102404F87601E7
:0C0C8100A8100886820886830886F0EB25
:090C8D00125647A3EA125647E58E
:0A0C9600102404F8E67003020D5963
:0E0CA00090F33CE0FCA3E0FDA3E0FE74032C07
:0E0CAE00FCE43DFD8C828D838EF0C002C003FD
:0E0CBC00122FFBD003D00290F33CE0FCA3E02B
:0E0CCA00FDA3E0FE74032CFCE43DFD8C828D46
:0D0CD800838EF0EB125647A3EA12564790A8
:0E0CE500F341E0FCA3E0FDC3EB9CEA9D50341C
:0E0CF30090F33CE0FAA3E0FBA3E0FC74032ABC
:0E0D0100FAE43BFB90E0F5E0FDA3E0FEA3E08A
:0E0D0F00FFC002C003C0048D828E838FF012DD
:0A0D1D002DC8158115811581803263
:0E0D270090F33CE0FAA3E0FBA3E0FC74032A87
:0E0D3500FAE43BFB90E0F2E0FDA3E0FEA3E059
:0E0D4300FFC002C003C0048D828E838FF012A9
:080D51002DC8158115811581E3
:0B0D5900120EC2E582FA700312346E25
:060D6400851081D0102271
:0D0D6A00AA82AB837C00EA4B7003020E509E
:0E0D7700C002C003120EA9D003D00290F341B7
:0E0D8500E0FDA3E0FEEA2DFAEB3EFB90F33C0E
:0E0D9300E0FDA3E0FEA3E0FF74032DFDE43EAF
:0E0DA100FE8D828E838FF0C002C003122FFBE6
:0E0DAF00D003D00290F33CE0FDA3E0FEA3E0F1
:0E0DBD00FF74032DFDE43EFE8D828E838FF0C9
:0A0DCB00EA125647A3EB12564790B8
:0E0DD500F341E0FDA3E0FEC3EA9DEB9E503427
:0E0DE30090F33CE0FAA3E0FBA3E0FD74032ACA
:0E0DF100FCE43BFB90E0F5E0FEA3E0FFA3E096
:0E0DFF00FAC004C003C0058E828F838AF012F2
:0A0E0D002DC8158115811581803272
:0E0E170090F33CE0FAA3E0FBA3E0FD74032A95
:0E0E2500FCE43BFB90E0F2E0FEA3E0FFA3E064
:0E0E3300FAC004C003C0058E828F838AF012BD
:080E41002DC8158115811581F2
:070E4900120EC2AA828A0406
:060E5000EC700302346E99
:010E56002279
:0E0E5700E4C0E0C0E0C0E0E4C0E0E4C0E0C001
:0C0E6500E0C0E07450C0E0E4C0E0743C69
:0B0E7100C0E0746EC0E07480C0E09030
:0E0E7C0017EC12086FAA82E58124F4F581BA02
:0E0E8A000112C2AF90F3457401F090F341E401
:060E9800F0A3F00233F6A6
:010E9E002231
:0A0E9F00C2AF90F345E4F002346D99
:0E0EA900C0E0C0A8C2AF90F346E02401F0D034
:0B0EB700E053E080E5E042A8D0E0221C
:0A0EC200C010E581F5102406F5814B
:0C0ECC00A810087600C0E0C0A8C2AF90DB
:090ED800F346E01490F346F0909B
:090EE100F346E0FB6003021099E6
:0A0EEA0090F340E0FB700302109942
:060EF400A81008087600BA
:0A0EFA0090E0F8E0FCE4BC00010405
:040F0400FCB4010038
:0E0F0800E433FC603190E0FE75F000125BBE39
:0E0F1600FCA3125BBEFDA3125BBEFE74082C92
:0E0F2400FCE43DFD8C828D838EF0125BBEFCE2
:0C0F3200A3125BBEFDA3125BBEFE800696
:060F3E007C007D007E0036
:0E0F44008C078D038E02BC0009BD0006BE00A6
:040F5200030210592D
:0E0F560074112FFCE43BFD8A068C828D838E85
:0E0F6400F0C002C003C007122FFBD007D0035D
:0E0F7200D00274032FFCE43BFD8A068C828DB6
:0E0F8000838EF0C002C003C007122FFBD00703
:0E0F8E00D003D002741F2FFCE43BFD8A068CBA
:0B0F9C00828D838EF0A8100808081258
:0E0FA7005BBEF6C007C003C00290F344E0FA40
:0C0FB500A810080808C3EA96E433D00234
:0C0FC100D003D007600AA81008080890B0
:040FCD00F344E6F013
:0C0FD100E5102404F874032FF6E43B083C
:0E0FDD00F608A6028C828D838EF0125BBE7524
:0A0FEB00F00CA424AAFAE434E0FBA1
:0C0FF5007F00C004C005C006E510240405
:0E100100F8E6C0E008E6C0E008E6C0E08A823B
:0E100F008B838FF0122C09158115811581D06D
:0E101D0006D005D0048C828D838EF0125BBE4F
:0E102B00FC90F33CE0FAA3E0FBA3E0FD741F91
:0E1039002AFAE43BFB8A828B838DF0125BBEA9
:09104700FAC3EC9A5003020EFA00
:09105000A81008087601020EFA4E
:0710590090F347E0FA601B71
:0B10600090F347E0FA600E1210E690DB
:0A106B00F347E01490F347F080EB28
:06107500A8100808760136
:09107B00A8100808B60102800863
:0810840090F348E0FABA010DF7
:0B108C00A81008760190F348E4F01271
:02109700346EB5
:0C109900D0E053E080E5E042A8D0E0A8E1
:0810A50010088682851081D03D
:0210AD0010220F
:0E10AF00C0E0C0A8C2AF90F341E0FAA3E0FB9E
:0E10BD00D0E053E080E5E042A8D0E08A828BCC
:0210CB0083227E
:0E10CD00C0E0C0A8C2AF90F340E0FAD0E053FC
:0B10DB00E080E5E042A8D0E08A82221D
:0810E600C01085811005819006
:0910EE00F346E0FA60030212D699
:0D10F70090F341E02401F0A3E03400F090FC
:0E110400F341E0FAA3E0FB4A703390E0F2E022
:0E111200FAA3E0FBA3E0FC90E0F5E0FDA3E013
:0E112000FEA3E0FF90E0F2EDF0A3EEF0A3EFEF
:0D112E00F090E0F5EAF0A3EBF0A3ECF090F8
:06113B00F349E02401F07D
:0E11410090E0F2E0FAA3E0FBA3E0FC8A828BD0
:0C114F00838CF0125BBEFAE4BA000104CD
:04115B00FAB40100E1
:0E115F00E433FA604A90E0F2E0FAA3E0FBA36A
:0E116D00E0FC74042AFAE43BFB74022AFAE464
:0E117B003BFB8A828B838CF0125BBEFAA312C0
:0E1189005BBEFBA3125BBEFC74082AFAE43BBB
:0D119700FB8A828B838CF0125BBEFAA312E0
:0A11A4005BBEFBA3125BBEFC8006DD
:0611AE007A007B007C00CA
:0E11B4008A058B068C07BA0009BB0006BC003A
:0411C200030212E032
:0E11C60074032DFAE43EFB8F048A828B838C27
:0E11D400F0125BBEFAA3125BBEFBC005C006A4
:0E11E200C00790F341E0FCA3E0FDC3EC9AEDE2
:0E11F0009BE433D007D006D00560030212E066
:0E11FE0074032DFAE43EFB8F048A828B838CEF
:0E120C00F0C005C006C007122FFBD007D006A9
:0E121A00D00574112DFAE43EFB8F04C005C010
:0E12280006C007740B2AFDE43BFE8C078D8286
:0E1236008E838FF0125BBEFDA3125BBEFEA383
:0E124400125BBEFFED4E4FD007D006D0056006
:0E125200158A828B838CF0C005C006C007127F
:081260002FFBD007D006D005DA
:0E126800741F2DFAE43EFB8F048A828B838C68
:0C127600F0A81008125BBEF6C005C00610
:0C128200C00790F344E0FDA81008C3ED85
:0C128E0096E433D007D006D0056008A815
:07129A00100890F344E6F098
:0E12A10074032DFDE43EFE8A828B838CF012D6
:0B12AF005BBE75F00CA424AAFAE43426
:0C12BA00E0FB7C00C005C006C0078A8273
:0E12C6008B838CF0122C091581158115810285
:0212D4001141C6
:0A12D60090F347E02401F01254FBEE
:0A12E00090F347E0FA70031254FB8C
:0612EA00851081D01022E6
:0E12F00090F346E0FA600790F3487401F02294
:0C12FE0090F344E075F00CA424AAFAE47C
:0B130A0034E0FB8A828B83E0700B90C4
:0A131500F344E01490F344F080DF8D
:0C131F0090F344E075F00CA424AAFAE45A
:08132B0034E0FB0ABA00010BDB
:0C13330090F344E075F00CA424AAFCE444
:0C133F0034E0FD8C828D83A3E0FCA3E071
:0E134B00FDA3E0FE74022CFCE43DFD8C828DBF
:0E135900838EF0125BBEFCA3125BBEFDA312DE
:0E1367005BBEFE8A828B83ECF0A3EDF0A3EE5A
:0C137500F090F344E075F00CA424AAFAF8
:0C138100E434E0FB8A828B83A3E0FAA333
:0E138D00E0FBA3E0FC90F344E075F00CA42418
:0A139B00AAFDE434E0FE74042DFD09
:0E13A500E43EFE7F00EAB5055FEBB5065BECAB
:0C13B300B5075790F344E075F00CA4243B
:0A13BF00AAFAE434E0FB0ABA0001C8
:0113C9000B18
:0C13CA0090F344E075F00CA424AAFCE4AD
:0C13D60034E0FD8C828D83A3E0FCA3E0DA
:0E13E200FDA3E0FE74022CFCE43DFD8C828D28
:0E13F000838EF0125BBEFCA3125BBEFDA31247
:0E13FE005BBEFE8A828B83ECF0A3EDF0A3EEC3
:01140C00F0EF
:0C140D0090F344E075F00CA424AAFAE46B
:0C14190034E0FB8A828B83A3E0FAA3E09E
:0E142500FBA3E0FC74082AFAE43BFB8A828BEE
:0E143300838CF0125BBEFAA3125BBEFBA31209
:0E1441005BBEFC90F33CEAF0A3EBF0A3ECF0F2
:01144F00227A
:0A145000C010858110AA82AB83ACA6
:0E145A00F090F33CE0FDA3E0FEA3E0FF741170
:0E1468002DFDE43EFEC005C006C0078A828B43
:0D147600838CF0122DC81581158115819011
:0E148300F33CE0FAA3E0FBA3E0FC74032AFABA
:0D149100E43BFB8A828B838CF0122FFB90D2
:0C149E00F341E0FAA3E0FBE51024FCF8A9
:0E14AA00E62AFA08E63BFB90F33CE0FCA3E0E8
:0E14B800FDA3E0FE74032CFCE43DFD8C828D50
:0D14C600838EF0EA125647A3EB12564790B2
:0E14D300F341E0FCA3E0FDC3EA9CEB9D503426
:0E14E10090F33CE0FAA3E0FBA3E0FC74032AC6
:0E14EF00FAE43BFB90E0F5E0FDA3E0FEA3E095
:0E14FD00FFC002C003C0048D828E838FF012E8
:0A150B002DC815811581158180326D
:0E15150090F33CE0FAA3E0FBA3E0FC74032A91
:0E152300FAE43BFB90E0F2E0FDA3E0FEA3E063
:0E153100FFC002C003C0048D828E838FF012B3
:08153F002DC8158115811581ED
:03154700D010229F
:0A154A00C0108581100581058105A0
:0E15540081AA82AB83ACF0125BBEFDE4BD0049
:02156200010482
:04156400FDB40100D1
:0E156800E433FD603F74042AFAE43BFB740296
:0E1576002AFAE43BFB8A828B838CF0125BBE68
:0E158400FAA3125BBEFBA3125BBEFC74082A26
:0E159200FAE43BFB8A828B838CF0125BBEFA7C
:0C15A000A3125BBEFBA3125BBEFC800626
:0615AC007A007B007C00C8
:0C15B200A81008A60208A60308A604A8BA
:0C15BE001008741126FDE40836FE0886B3
:0E15CA00078D828E838FF0122FFB90F346E088
:0C15D800FD7070A81008740326FDE408E4
:0E15E40036FE0886078D828E838FF0122FFB55
:0C15F200A81008741F26FDE40836FE084F
:0D15FE0086078D828E838FF0125BBEFD90FC
:0D160B00F344E0FEC39D500590F344EDF064
:0C161800A81008740326FEE40836FF0842
:0C1624008602ED75F00CA424AAFBE4344F
:0C163000E0FC7D00C006C007C0028B82F9
:0E163C008C838DF0122C09158115811581808B
:01164A00237C
:0C164B00A81008741126FAE40836FB0809
:0E1657008604C002C003C00490E0F875F000E5
:09166500122C0915811581158173
:0C166E00A81008741F26FAE40836FB08D8
:0D167A0086048A828B838CF0125BBEFA908E
:0E168700F33CE0FBA3E0FCA3E0FD741F2BFB93
:0E169500E43CFC8B828C838DF0125BBEFBC3A9
:0916A300EA9B40057582018003F9
:0316AC0075820044
:0616AF00851081D010221D
:0E16B500AA82AB83ACF090F349E0FD8A828BF1
:0B16C300838CF01256470ABA00010B9E
:0E16CE0090F341E0FDA3E0FE8A828B838CF056
:0916DC00ED125647A3EE02564739
:0A16E500C010858110C082C083C0D0
:0C16EF00F0058105810581A810088682A5
:0E16FB000886830886F0125BBEFD90F349E07E
:06170900FEB5050280316F
:0C170F00A81008740126FDE40836FE084E
:0E171B0086078D828E838FF0125BBEFDA312B7
:0E1729005BBEFE90F341E0FFA3E0FAC3ED9F2C
:09173700EE9A50057D010217DD58
:0C174000A81008740126FEE40836FF081B
:0E174C0086028E828F838AF0125BBEFAA31291
:0E175A005BBEFB90F341E0FCA3E0FEECC39A03
:0A176800FCEE9BFEE51024FBF8E503
:0C177200102404F9E6F70809E6F708095E
:0C177E00E6F7E5102404F8868208868354
:0E178A000886F0125BBEFDA3125BBEFFC3EC2F
:0E1798009DEE9F503E90F341E0FCA3E0FEEC7E
:0E17A600C39AFAEE9BFBEDC39AFAEF9BFBE5AC
:0C17B400102404F886820886830886F062
:0A17C000EA125647A3EB125647A8A1
:0B17CA00100886820886830886F01253
:0617D50016B57D00800244
:0217DB007D018E
:0817DD008D82851081D01022DD
:0717E50090F3487401F022AB
:0517EC001219C480FB8E
:0A17F100C010858110C082C083C0C3
:0C17FB00F0A81008742C26FDE40836FE4F
:0C1807000886078D828E838FF0E5102488
:0D181300FCF8E6125647A308E6125647A857
:0C1820001008742426FDE40836FE08863B
:0C182C00077408C0E0E4C0E0E51024F9F7
:0E183800F8E6C0E008E6C0E008E6C0E08D82F9
:0E1846008E838FF0125AEFE58124FBF581A806
:0C1854001008742426FDE40836FE088607
:0E1860000774072DFDE43EFE8D828E838FF00F
:0C186E00E4125647E51024F8F8B6040018
:09187A004007E51024F8F876039C
:0C188300A81008741F26FDE40836FE08BB
:0C188F0086078D828E838FF0E51024F810
:0C189B00F8E6125647A81008740326FD5A
:0E18A700E40836FE0886078D828E838FF012CD
:0C18B5002BE8A81008741126FDE408368A
:0E18C100FE0886078D828E838FF0122BE8A81A
:0C18CF001008740326FDE40836FE0886AD
:0E18DB000774082DFDE43EFE8D828E838FF093
:0B18E900A81008E6125647A308E612FC
:0918F4005647A308E6125647A866
:0C18FD001008741126FDE40836FE088671
:0C19090007E51024F8F886027B00740447
:0E191500C39AFAE49BFB8D828E838FF0EA1258
:081923005647A3EB125647A83A
:0C192B001008741126FAE40836FB088648
:0E1937000474082AFAE43BFB8A828B838CF04E
:0B194500A81008E6125647A308E6129F
:091950005647A308E6125647852C
:051959001081D01022F6
:02195E007A000D
:03196000BA0400C6
:0C196300501EEA75F00CA424AAFBE4342A
:0C196F00E0FC7D008B828C838DF0C002B8
:08197B00122B16D0020A80DDD8
:0A19830090E0DA75F000122B1690C8
:09198D00E0E675F000122B169043
:09199600E0F875F000122B169028
:09199F00E10475F000122B169012
:0719A800E0F274DAF0A37411
:0A19AF00E0F0A37400F090E0F5747E
:0A19B900E6F0A374E0F0A37400F060
:0119C3002201
:0819C40090F33FE0FA700122EC
:0D19CC00120EA990E104E0FAE4BA00010453
:0C19D900FAC002120EC2D002EA60012225
:0E19E500C0E0C0A8C2AF90E104E0FAE4BA008E
:0219F3000104ED
:0419F500FAB401003F
:0E19F900E433FA603190E10A75F000125BBE33
:0E1A0700FAA3125BBEFBA3125BBEFC74082A9E
:0E1A1500FAE43BFB8A828B838CF0125BBEFAF4
:0C1A2300A3125BBEFBA3125BBEFC80069E
:061A2F007A007B007C0040
:0E1A350074032AFDE43BFE8C078D828E838FA6
:0E1A4300F0C002C003C004122FFBD004D00379
:0C1A5100D00290F340E01490F340F090BD
:0E1A5D00F33FE01490F33FF0D0E053E080E55B
:0E1A6B00E042A8D0E08A828B838CF0021B5FE1
:0A1A7900C010858110C082C08305F3
:0E1A8300810581058190002E123712AC82ADD4
:0C1A910083AEF0A810080808A60408A600
:0C1A9D000508A606A810080808B6000BF3
:0B1AA90008B6000708B60003021B4C43
:0C1AB400A810080808742026FFE408367B
:0C1AC000FA088603A810088682088683B6
:0E1ACC00C002C003C007123712AC82AD83AE59
:0E1ADA00F0D007D003D0028F828A838BF0EC0D
:0B1AE800125647A3ED125647A3EE1262
:0C1AF3005647BC0023BD0020BE001DA80B
:0C1AFF001008080886820886830886F01C
:0C1B0B00123A7EA810080808E4F608F65C
:041B170008F680311B
:0E1B1B008F828A838BF0125BBEFFA3125BBE2B
:0C1B2900FAA3125BBEFBA81008E6C0E0A7
:0E1B350008E6C0E074A5C0E08F828A838BF0C2
:091B4300125A84158115811581E7
:0C1B4C00A8100808088682088683088616
:071B5800F0851081D010227E
:0E1B5F00AA82AB83ACF074202AFDE43BFE8C1E
:0D1B6D00078D828E838FF0125BBEFDA312E8
:0E1B7A005BBEFEA3125BBEFF8D828E838FF0DA
:0E1B8800C002C003C004123A7ED004D003D0C5
:0A1B9600028A828B838CF0023A7EF3
:056E3C0049444C450033
:036EB000000000DF
:016EB30000DE
:016EB40000DD
:026EB5000000DB
:016EB70000DA
:016EB80000D9
:016EB90000D8
:016EBA0000D7
:016EBB0000D6
:016EBC0000D5
:016EBD0000D4
:0A1BA000C010858110C082E5812489
:0C1BAA0009F581A81008E67003021DF583
:0D1BB600900029123712AB82AC83ADF0A86D
:0C1BC300100808A60308A60408A605A840
:0C1BCF00100808B6000B08B6000708B6A6
:051BDB000003021DF5EE
:0A1BE000A81008A91019191986F0C1
:0E1BEA00E7A4FEAFF074012EFAE43FFB8A82FE
:0E1BF8008B83C006C007123712AA82AB83ACE3
:0C1C0600F0D007D006A81008088682085D
:0E1C120086830886F0EA125647A3EB12564767
:0E1C2000A3EC125647BA0009BB0006BC000335
:031C2E00021DE6AE
:0A1C3100A8100808E5102405F97456
:0D1C3B000326F7E4083609F70809E6F7A8C4
:0C1C480010080886820886830886F012C7
:0A1C54005BBEFDA3125BBEFAA312F3
:0C1C5E005BBEFBEE2DFEEF3AFF8B04E5B1
:0C1C6A00102405F886820886830886F0A6
:0C1C7600EE125647A3EF125647A3EC12E3
:0C1C82005647A8100808742426FCE4084B
:0D1C8E0036FE0886078C828E838FF0E412EC
:0C1C9B005647A8100808740626FCE40850
:0D1CA70036FE0886078C828E838FF0ED12CA
:0A1CB4005647A3EA125647A3EB12AD
:071CBE005647A8100808E5D5
:0C1CC500102405F9740926F7E40836091C
:0C1CD100F70809E6F7A8100886047E005A
:0C1CDD00E5102408F8EC24FFF6EE34FFBC
:0C1CE90008F6A81018181886077C00C028
:0C1CF50002C003C005C007C004E51024B5
:0E1D010008F886820886831257FAAC82AE83F9
:0E1D0F0015811581D005D003D002EC2DFDEE1C
:0C1D1D003AFAE5102405F8868208868357
:0E1D29000886F0ED125647A3EA125647A3EBC8
:0C1D3700125647A8100808742526FAE48C
:0D1D43000836FB0886048A828B838CF0A88A
:071D50001008E6125647A837
:0C1D5700100808742626FAE40836FB0881
:0C1D630086048A828B838CF0A81018186C
:0C1D6F0018E6125647A810080874272632
:0E1D7B00FAE40836FB0886048A828B838CF01B
:0C1D890074FF125647A8100808742826A2
:0E1D9500FAE40836FB0886048A828B838CF001
:0C1DA30074FF125647A8100808740C26A4
:0E1DAF00FAE40836FB0886048A828B838CF0E7
:0C1DBD00122B16A8100808741826FAE46F
:0D1DC9000836FB0886048A828B838CF0129A
:0C1DD6002B16A8100808868208868308D7
:041DE20086F08015F2
:0C1DE600A810080886820886830886F092
:031DF200123A7E24
:061DF50090000075F000F3
:061DFB00851081D01022CA
:0A1E0100C010858110C082C083C0AC
:0C1E0B00F0E5812414F581120EA9E51009
:0E1E17002404FD7E007F408D828E838FF012AA
:0C1E250016B5C0E0C0A8C2AFA810087439
:0E1E31002726FDE40836FE0886078D828E8384
:0E1E3F008FF0125BBEFA0A8D828E838FF0EA5E
:0C1E4D00125647A81008742826FAE40872
:0E1E590036FB0886048A828B838CF0125BBEF7
:0E1E6700FD0D8A828B838CF0ED125647D0E081
:0C1E750053E080E5E042A8D0E0A810088F
:0C1E8100E510240AF9742626F7E4083660
:0A1E8D0009F70809E6F7A81008E5B8
:0C1E970010240DF9740326F7E408360946
:0A1EA300F70809E6F7A81008E5109B
:0E1EAD002407F9742526F7E4083609F708091A
:021EBB00E6F748
:0C1EBD00A8100886820886830886F012B0
:091EC9002ACEE5827003021F8994
:0B1ED200E51024F9F8E6084670030252
:021EDD001F895B
:0C1EDF00A81008740C26FDE40836FE086C
:0C1EEB008607E51024F9F8E6C0E008E6E0
:0E1EF700C0E08D828E838FF01214501581157D
:0C1F050081C0E0C0A8C2AFA8100886820E
:0E1F11000886830886F0122994120EC2E5821B
:051F1F00700312346E96
:0C1F2400120EA9C0E0C0A8C2AFA81008AF
:0E1F3000742726FDE40836FE0886078D828E93
:0E1F3E00838FF0125BBEFA0A8D828E838FF0C5
:0C1F4C00EA125647A81008742826FAE490
:0D1F58000836FB0886048A828B838CF01209
:0E1F65005BBEFD0D8A828B838CF0ED12564719
:0E1F7300D0E053E080E5E042A8D0E0D0E0539B
:081F8100E080E5E042A8D0E099
:0C1F8900C0E0C0A8C2AFA8100874242655
:0E1F9500FAE40836FB0886048A828B838CF0FF
:0C1FA300125BBEFDE5102407F8868208E2
:0E1FAF0086830886F0125BBEFEC3ED9E4003E3
:031FBD00022129D5
:0C1FC000E510240AF88682088683088653
:0C1FCC00F0125BBEFDE5102413F8A60522
:0A1FD800087600A81008E510241098
:0E1FE200F9740626F7E4083609F70809E6F751
:0C1FF000E5102410F8868208868308861D
:0C1FFC00F0125BBEFFA3125BBEFDA3123F
:0C2008005BBEFEC002C003C004E5102453
:0C20140013F8E6C0E008E6C0E0E5102488
:0E202000FBF8E6C0E008E6C0E008E6C0E08F8E
:0E202E00828D838EF01259E6E58124FBF58148
:0D203C00D004D003D0028A828B838CF01276
:0E2049005BBEFD0D8A828B838CF0ED12564734
:0C205700E5102410F886820886830886B5
:0C206300F0125BBEFAA3125BBEFBA312DE
:0C206F005BBEFCE510240AF8868208869F
:0D207B00830886F0125BBE2AFAE43BFBE509
:0C208800102410F886820886830886F079
:0C209400EA125647A3EB125647A3EC12C9
:0C20A0005647E510240DF8868208868360
:0E20AC000886F0125BBEFDA3125BBEFEA312FF
:0E20BA005BBEFFC3EA9DEB9EEC64808FF0637B
:0C20C800F08095F04034A81008868208D3
:0E20D40086830886F0125BBEFAA3125BBEFB89
:0C20E200A3125BBEFCE5102410F88682FF
:0D20EE000886830886F0EA125647A3EB121D
:0720FB005647A3EC12564703
:0C2102007A01A81008742826FBE40836B7
:0E210E00FC0886058B828C838DF0125BBEFE72
:0D211C000E8B828C838DF0EE1256478002F0
:022129007A003A
:0E212B00D0E053E080E5E042A8D0E0EA703C4E
:0C213900E51024F9F8E608466032C00208
:0A214500E51024F9FB7C007D40E565
:0C214F00102404FE7F007A40C003C0048E
:0E215B00C0058E828F838AF01216E5AA8215C7
:0C2169008115811581EAD00270027AFF16
:06217500BAFF03021EBDCB
:0C217B00A8100886820886830886F0C041
:0C21870002122994120EC2D0028A828536
:052193001081D01022B4
:0A219800C010858110C082C083C012
:0C21A200F0E581240CF581A810087424DD
:0E21AE0026FDE40836FE0886078D828E838F9C
:0B21BC00F0E5102404F8125BBEF6A84A
:0C21C7001008742526FBE40836FC08868E
:0C21D300028B828C838AF0125BBEFBE55D
:0C21DF00102404F8C3E69B40030223C157
:0A21EB00A81008E5102405F9742679
:0C21F50026F7E4083609F70809E6F7E5CC
:0C220100102405F886820886830886F009
:0C220D00125BBEFAE510240BF8A60208D4
:0A2219007600A81008E5102408F96B
:0E222300740626F7E4083609F70809E6F7E521
:0C223100102408F886820886830886F0D6
:0B223D00125BBEFCA3125BBEFAA312F2
:0C2248005BBEFBC005C006C007E510240B
:0C2254000BF8E6C0E008E6C0E0E510244E
:0E226000FBF8E6C0E008E6C0E008E6C0E08C4F
:0E226E00828A838BF01259E6E58124FBF5810C
:0D227C00D007D006D0058D828E838FF01222
:0E2289005BBEFA0A8D828E838FF0EA125647F2
:0C229700E5102408F8868208868308867B
:0C22A300F0125BBEFAA3125BBEFBA3129C
:0C22AF005BBEFCE5102405F88682088662
:0D22BB00830886F0125BBE2AFAE43BFBE5C7
:0C22C800102408F886820886830886F03F
:0C22D400EA125647A3EB125647A3EC1287
:0C22E0005647A81008740326FDE40836D9
:0E22EC00FE0886078D828E838FF0125BBEFD8A
:0E22FA00A3125BBEFEA3125BBEFFC3EA9DEB08
:0E2308009EEC64808FF063F08095F04034A866
:0B231600100886820886830886F012FB
:0A2321005BBEFAA3125BBEFBA31221
:0C232B005BBEFCE5102408F886820886E2
:0E233700830886F0EA125647A3EB125647A31E
:04234500EC125647F9
:0C234900A81008742826FAE40836FB08E7
:0E23550086048A828B838CF0125BBEFDBDFF76
:0A23630052E51024FAF8E67055A8C0
:0C236D001008741826FAE40836FB0886F5
:0D237900048A828B838CF0125BBE603CA84E
:0A2386001008E5102408F974182669
:0C239000F7E4083609F70809E6F7E51045
:0E239C002408F886820886830886F012154A07
:0723AA00AE82BE00028010AC
:0523B10075820180129D
:0B23B6000D8A828B838CF0ED125647DD
:0723C100E51024FAF8868202
:0623C800851081D01022F7
:0A23CE00C010858110C082C083C0DA
:0C23D800F0E581240FF581120EA9E5103C
:0E23E4002404FD7E007F408D828E838FF012D8
:0C23F20016B5C0E0C0A8C2AFA810087467
:0E23FE002726FDE40836FE0886078D828E83B2
:0E240C008FF0125BBEFA0A8D828E838FF0EA8B
:0C241A00125647A81008742826FAE4089F
:0E24260036FB0886048A828B838CF0125BBE24
:0E243400FD0D8A828B838CF0ED125647D0E0AE
:0C24420053E080E5E042A8D0E0A81008BC
:0C244E00E5102407F9742626F7E4083690
:0A245A0009F70809E6F7A81008E5E5
:0C24640010240DF9740326F7E408360973
:05247000F70809E6F782
:0C247500A8100886820886830886F012F2
:092481002A9DE582700302254149
:0B248A00E51024F9F8E6084670030294
:022495002541DF
:0C249700A81008741826FDE40836FE08A2
:0C24A3008607E51024F9F8E6C0E008E622
:0E24AF00C0E08D828E838FF0121450158115BF
:0C24BD0081C0E0C0A8C2AFA81008868251
:0E24C9000886830886F0122994120EC2E5825E
:0524D700700312346ED9
:0C24DC00120EA9C0E0C0A8C2AFA81008F2
:0E24E800742726FDE40836FE0886078D828ED6
:0E24F600838FF0125BBEFA0A8D828E838FF008
:0C250400EA125647A81008742826FAE4D2
:0D2510000836FB0886048A828B838CF0124B
:0E251D005BBEFD0D8A828B838CF0ED1256475B
:0E252B00D0E053E080E5E042A8D0E0D0E053DD
:08253900E080E5E042A8D0E0DB
:0C254100C0E0C0A8C2AFA8100874242697
:0E254D00FAE40836FB0886048A828B838CF041
:08255B00125BBE70030226B9F9
:0A256300C002C003C004A81008E580
:0C256D0010240AF9740926F7E408360966
:0C257900F70809E6F7E510240AF886824E
:0E2585000886830886F0125BBEFAA3125BBEC6
:0C259300FBA3125BBEFCE5102407F886D9
:0E259F00820886830886F0125BBE2AFAE43BAF
:0C25AD00FBE510240AF8868208868308EB
:0E25B90086F0EA125647A3EB125647A3EC1227
:0C25C7005647E510240DF8868208868334
:0E25D3000886F0125BBEFDA3125BBEFEA312D3
:0E25E1005BBEFFC3EA9DEB9EEC64808FF0634F
:0D25EF00F08095F0D004D003D0024034A855
:0B25FC00100886820886830886F01213
:0A2607005BBEFDA3125BBEFEA31232
:0C2611005BBEFFE510240AF886820886F4
:0E261D00830886F0ED125647A3EE125647A32F
:04262B00EF1256470D
:0E262F008A828B838CF0125BBEFD1D8A828B2B
:0C263D00838CF0ED125647E5102407F8DE
:0E26490086820886830886F0125BBEFA7B004C
:0C265700E510240AF886820886830886B5
:0C266300F0125BBEFCA3125BBEFDA312D4
:0E266F005BBEFEC002C003C004C005C006E58D
:0C267D001024FBF886820886830886F093
:0C2689001259E6E58124FBF581A8100839
:0E269500742726FAE40836FB0886048A828B36
:0E26A300838CF0125BBEFD0D8A828B838CF05F
:0826B100ED1256477A01800288
:0226B9007A00A5
:0E26BB00D0E053E080E5E042A8D0E0EA703CB9
:0C26C900E51024F9F8E608466032C00273
:0A26D500E51024F9FB7C007D40E5D0
:0C26DF00102404FE7F007A40C003C004F9
:0E26EB00C0058E828F838AF01216E5AA821532
:0C26F9008115811581EAD00270027AFF81
:06270500BAFF0302247577
:0C270B00A8100886820886830886F0C0AB
:0C27170002122994120EC2D0028A8285A0
:052723001081D010221E
:0A272800C010858110C082C083C07C
:0C273200F0E5812408F581A8100874244B
:0E273E0026FDE40836FE0886078D828E838F06
:0B274C00F0E5102404F8125BBEF6E577
:0A275700102404F8E6700302292E96
:0A276100C005C006C007A81008E577
:0C276B00102405F9740926F7E40836096B
:0C277700F70809E6F7E5102405F8868253
:0E2783000886830886F0125BBEFDA3125BBEC3
:0C279100FEA3125BBEFFA81008742626F1
:0E279D00FAE40836FB0886048A828B838CF0EF
:0A27AB00E5102408F8125BBEF6E505
:0B27B500102408F8E62DFDE43EFEE5D0
:0C27C000102405F886820886830886F045
:0C27CC00ED125647A3EE125647A3EF1281
:0C27D8005647A81008740326FAE40836DF
:0E27E400FB0886048A828B838CF0125BBEFA9F
:0E27F200A3125BBEFBA3125BBEFCC3ED9AEE0E
:0E2800009BEF64808CF063F08095F0D007D0E1
:0C280E0006D0054034A810088682088619
:0E281A00830886F0125BBEFAA3125BBEFBA31E
:0C282800125BBEFCE5102405F886820857
:0E28340086830886F0EA125647A3EB12564739
:05284200A3EC12564753
:0C284700E5102404F8E6148D828E838FC7
:0C285300F0125647E5102408F886027BBE
:0C285F0000E5102405F886820886830836
:0D286B0086F0125BBEFCA3125BBEFDA31243
:0E2878005BBEFEC002C003C004C005C006E582
:0C2886001024FBF886820886830886F088
:0C2892001259E6E58124FBF581A810082E
:0E289E00742726FAE40836FB0886048A828B2B
:0C28AC00838CF0125BBEFDBDFF68E510E0
:0E28B80024F8F886020886030886048A828BBC
:0C28C600838CF0125BBE705BA8100874DD
:0E28D2000C26FDE40836FE0886078D828E83F4
:0C28E0008FF0125BBE6042A81008740C60
:0E28EC0026FDE40836FE0886078D828E838F57
:0E28FA00F0C002C003C00412154AAE82D00422
:09290800D003D002BE00028018C9
:0D2911008A828B838CF07401125647800B74
:0B291E000D8A828B838CF0ED1256476F
:0529290075820180032E
:03292E00758200AF
:06293100851081D0102288
:0E293700AA82AB83ACF0C0E0C0A8C2AF74248B
:0E2945002AFAE43BFB8A828B838CF0125BBE85
:0E295300FAD0E053E080E5E042A8D0E08A82AE
:012961002253
:0E296200AA82AB83ACF0125BBEFDA3125BBE7B
:0E297000FEA3125BBEFF8D828E838FF0C0022D
:0E297E00C003C004123A7ED004D003D0028AF7
:08298C00828B838CF0023A7E7D
:0E299400AA82AB83ACF0C0E0C0A8C2AF74282A
:0E29A2002AFDE43BFE8C078D828E838FF0129F
:0E29B0005BBEF8188D828E838FF0E8125647BA
:0E29BE00C3747F88F063F08095F050538D82D3
:0E29CC008E838FF074FF12564774182AFDE4B4
:0E29DA003BFE8C078D828E838FF0125BBE60F9
:0E29E8003474182AFDE43BFE8C078D828E832A
:0E29F6008FF0C002C003C00412154AAD82D09B
:0A2A040004D003D002BD0002800FD1
:0E2A0E00C002C003C0041217E5D004D003D0EC
:012A1C0002B7
:0E2A1D00D0E053E080E5E042A8D0E0C0E0C089
:0E2A2B00A8C2AF74272AFDE43BFE8C078D8203
:0E2A39008E838FF0125BBEF8188D828E838F15
:0E2A4700F0E8125647C3747F88F063F0809564
:0E2A5500F050398D828E838FF074FF12564739
:0E2A6300740C2AFDE43BFE8C078D828E838F5F
:0E2A7100F0125BBE601A740C2AFAE43BFB8A7A
:0E2A7F00828B838CF012154AAA82BA00028064
:012A8D000345
:032A8E001217E537
:0C2A9100D0E053E080E5E042A8D0E02255
:0E2A9D00AA82AB83ACF0C0E0C0A8C2AF742424
:0E2AAB002AFAE43BFB8A828B838CF0125BBE1E
:062AB900FAE4BA0001047A
:0E2ABF00FAD0E053E080E5E042A8D0E08A8241
:012ACD0022E6
:0E2ACE00AA82AB83ACF0C0E0C0A8C2AF7424F3
:0E2ADC002AFDE43BFE8C078D828E838FF01264
:0E2AEA005BBEFD74252AFAE43BFB8A828B83D7
:0E2AF8008CF0125BBEFAEDB502047401800191
:012B0600E4EA
:0E2B0700FDD0E053E080E5E042A8D0E08D82F2
:012B1500229D
:0A2B1600C010858110C082C083C08A
:0C2B2000F0058105810581A810087401F2
:0C2B2C0026FDE40836FE088607A8100805
:0C2B3800E5102404F9740426F7E40836C4
:0D2B440009F70809E6F78D828E838FF0E512
:0C2B5100102404F8E6125647A308E61210
:092B5D005647A308E6125647E5AD
:0C2B6600102404F886820886830886F09C
:0C2B720074FF125647A374FF125647E58B
:0C2B7E00102404F8740226FBE40836FC66
:0C2B8A000886058B828C838DF0E51024FA
:0E2B960004F8E6125647A308E6125647A308B5
:0C2BA400E6125647E5102404F8740526DC
:0E2BB000FBE40836FC0886058B828C838DF0D2
:0C2BBE00E5102404F8E6125647A308E6D0
:0A2BCA00125647A308E6125647A86A
:0C2BD400100886820886830886F0E41250
:062BE0005647851081D06C
:022BE6001022BB
:0E2BE800AA82AB83ACF0740B2AFAE43BFB8AA2
:0E2BF600828B838CF0E4125647A3E4125647FC
:052C0400A3E4025647A5
:0A2C0900C010858110C082C083C096
:0B2C1300F0E581240CF581A81008E515
:0C2C1E00102407F9740126F7E4083609B9
:0C2C2A00F70809E6F7E5102407F8868299
:0E2C36000886830886F0125BBEFAA3125BBE0E
:0C2C4400FBA3125BBEFCE5102404F8A604
:0C2C50000208A60308A604E51024FBF807
:0C2C5C008602088603088604E510240A9E
:0D2C6800F874022AF6E43B08F608A604E51D
:0C2C7500102404F886050886060886076F
:0E2C810074022DFDE43EFE8D828E838FF012D4
:0A2C8F005BBEFDA3125BBEFEA312A4
:0C2C99005BBEFFE510240AF88682088666
:0E2CA500830886F0ED125647A3EE125647A3A1
:0C2CB300EF125647E510240AF874052AB9
:0C2CBF00F6E43B08F608A604E510240724
:0E2CCB00F886820886830886F0125BBEFDA3A1
:0A2CD900125BBEFEA3125BBEFFE516
:0C2CE30010240AF886820886830886F018
:0C2CEF00ED125647A3EE125647A3EF1259
:0C2CFB005647E5102404F88605088606FC
:0E2D070008860774022DFDE43EFE8D828E8349
:0D2D15008FF0125BBEFDA3125BBEFEA31289
:0E2D22005BBEFF74052DFDE43EFE8D828E83A8
:0E2D30008FF0EA125647A3EB125647A3EC129F
:0C2D3E005647E5102404F88605088606B8
:0E2D4A0008860774022DFDE43EFE8D828E8306
:0E2D58008FF0EA125647A3EB125647A3EC1277
:0C2D66005647E5102407F8868208868393
:0E2D72000886F0EA125647A3EB125647A3EC70
:0E2D8000125647740B2AFAE43BFB8A828B83BF
:0C2D8E008CF0A81008E6125647A308E6D7
:0A2D9A00125647A308E6125647A898
:0B2DA400100886820886830886F01263
:0C2DAF005BBEFA0AA81008868208868322
:0B2DBB000886F0EA125647851081D010
:022DC6001022D9
:0A2DC800C010858110C082C083C0D6
:0C2DD200F0E581240BF581E51024FBF8EE
:0E2DDE0086050886060886078D828E838FF094
:0A2DEC00125BBEFAA3125BBEFBE50A
:0A2DF600102407F8A60208A603E562
:0C2E0000102407F8B6FF4908B6FF45C0D3
:0C2E0C0005C006C007A81008740426FDCD
:0E2E1800E40836FE08860774052DFDE43EFE34
:0E2E26008D828E838FF0125BBEFDA3125BBE09
:0C2E3400FEA3125BBEFFE5102404F8A60C
:0E2E40000508A60608A607D007D006D0050292
:022E4E002EE173
:0A2E5000A81008E5102404F974042A
:0B2E5A0026F7E4083609F70809E6F740
:0C2E6500E5102404F886020886030886A5
:0E2E71000474022AFAE43BFB8A828B838CF005
:0B2E7F00125BBEFAA3125BBEFBA312A5
:0E2E8A005BBEFC8A828B838CF0125BBEFAA3C7
:0C2E9800125BBEFBE5102407F8C3E69AAD
:0C2EA40008E69B4038E5102404F8860284
:0E2EB00008860308860474022AFAE43BFB8AB3
:0E2EBE00828B838CF0125BBEFAA3125BBEFB0C
:0C2ECC00A3125BBEFCE5102404F8A60273
:092ED80008A60308A604022E65F9
:0C2EE100E5102409F874022DF6E43E0808
:0C2EED00F608A607E5102404F886020889
:0E2EF900860308860474022AFAE43BFB8A82F0
:0E2F07008B838CF0125BBEFAA3125BBEFBA3A1
:0C2F1500125BBEFCE5102409F88682085F
:0E2F210086830886F0EA125647A3EB12564745
:0C2F2F00A3EC125647E5102409F8868236
:0E2F3B000886830886F0125BBEFAA3125BBE06
:0E2F4900FBA3125BBEFC74052AFAE43BFB8A74
:0E2F5700828B838CF0ED125647A3EE12564784
:0E2F6500A3EF12564774052DFAE43EFB8F04CD
:0C2F73008A828B838CF0E5102404F8E6C1
:0D2F7F00125647A308E6125647A308E612B3
:0C2F8C005647E5102404F886020886036E
:0E2F980008860474022AFAE43BFB8A828B83CB
:0E2FA6008CF0ED125647A3EE125647A3EF1221
:0E2FB4005647740B2DFDE43EFE8D828E838FFA
:0C2FC200F0A81008E6125647A308E6121B
:092FCE005647A308E6125647A875
:0B2FD700100886820886830886F0122E
:0C2FE2005BBEFA0AA810088682088683ED
:0B2FEE000886F0EA125647851081D0DB
:022FF9001022A4
:0A2FFB00C010858110C082C083C0A1
:0C300500F0E581240CF581A8100874028D
:0E30110026FDE40836FE0886078D828E838F2A
:0C301F00F0125BBEFAA3125BBEFBA31212
:0C302B005BBEFCE510240AF874052AF6D0
:0B303700E43B08F608A604A81008E51A
:0C304200102407F9740526F7E40836098D
:0C304E00F70809E6F7E5102407F8868271
:0E305A000886830886F0125BBEFAA3125BBEE6
:0C306800FBA3125BBEFCE510240AF886F6
:0E307400820886830886F0EA125647A3EB1204
:083082005647A3EC125647E586
:0C308A00102407F886820886830886F070
:0B309600125BBEFAA3125BBEFBA3128C
:0E30A1005BBEFC74022AFAE43BFB8D828E8338
:0D30AF008FF0125BBEFDA3125BBEFEA312EC
:0E30BC005BBEFF8A828B838CF0ED125647A319
:0A30CA00EE125647A3EF125647A876
:0C30D4001008740B26FAE40836FB08868E
:0D30E000048A828B838CF0125BBEFDA3126C
:0930ED005BBEFEA3125BBEFFE511
:0C30F600102404F8A60508A60608A6078A
:0A310200E5102404F8E510240AF992
:0E310C00740126F7E4083609F70809E6F7E52E
:0C311A0010240AF886820886830886F0DC
:0B312600125BBEFDA3125BBEFEA312F5
:0C3131005BBEFFA81008E6B5050C08E620
:0A313D00B5060708E6B50702800298
:023147008036D0
:0C314900E5102407F886820886830886BB
:0C315500F0125BBEFDA3125BBEFEA312D5
:0C3161005BBEFFE510240AF88682088699
:0E316D00830886F0ED125647A3EE125647A3D4
:04317B00EF125647B2
:0D317F008A828B838CF0E4125647A3E41281
:08318C005647A3E4125647E583
:0C319400102404F886820886830886F068
:0C31A000125BBEFA1AE5102404F88682C7
:0C31AC000886830886F0EA12564785105A
:0431B80081D0102290
:0A31BC00C010858110C082C083C0DE
:0B31C600F0058105810581A81008E5D7
:0C31D100102404F9E6F70809E6F70809E5
:0B31DD00E6F7A8100806B6000208067E
:0C31E800E51024FCF886050886067F0030
:0C31F4007A008D03A810088682088683EC
:0E3200000886F0EB125647A31818A68208A6FF
:0C320E00838E058F068A078D03A8100828
:0E321A0086820886830886F0EB125647A318BA
:0C32280018A68208A683A8100886820859
:0E32340086830886F074AA125647A31818A6BF
:0C3242008208A683A810088682088683F4
:0E324E000886F07480125647A31818A682084E
:0C325C00A683E51024F9F8860508860614
:0C3268000886077A008D03A810088682F3
:0E3274000886830886F0EB125647A31818A6AA
:0E3282008208A6838E058F068A077A008D03C8
:0C329000A8100886820886830886F0EBF0
:0E329C00125647A31818A68208A6838E058F27
:0C32AA00068A07A81008868208868308A0
:0E32B60086F0ED125647A31818A68208A683CC
:0C32C400A8100886820886830886F07433
:0D32D00002125647A31818A68208A683A86C
:0C32DD00100886820886830886F07403BF
:0C32E900125647A31818A68208A683A856
:0C32F500100886820886830886F07404A6
:0C330100125647A31818A68208A683A83D
:0C330D00100886820886830886F074058C
:0C331900125647A31818A68208A683A825
:0C332500100886820886830886F0740673
:0C333100125647A31818A68208A683A80D
:0C333D00100886820886830886F074075A
:0C334900125647A31818A68208A683A8F5
:0C335500100886820886830886F0E412C7
:0C3361005647A31818A68208A683A810DF
:0E336D000886820886830886F074011256478F
:0C337B00A31818A68208A683A8100886D4
:0E338700820886830886F0E4125647A31818C1
:0C339500A68208A683A81008868208867D
:0E33A100830886F074BB125647A31818A68244
:0C33AF0008A683A8100886820886830800
:0B33BB0086F07401125647A81008E5C8
:0C33C600102404F9E6C397FA08E6099702
:0C33D200E5102404F88682088683088633
:0C33DE00F0EA125647E5102404F886823D
:0A33EA000886830886F0851081D064
:0233F4001022A5
:0E33F6001236A390F33CE0FAA3E0FBA3E0FC48
:0C3404008A828B838CF0125BBEF50DA356
:06341000125BBEF50E7513
:063416000F21850D8285E7
:05341C000E83E0F5083D
:07342100050DE4B50D0205E5
:013428000E95
:05342900050FA80F854E
:09342E000D82850E83E0FAF6150B
:0634370008E50870E585C0
:0A343D000F81D09FD010D0D0D00135
:0E344700D000D007D006D005D004D003D002AC
:0E345500D0F0D083D082D0E020E705C2AF02D5
:023463003467CC
:02346500D2AFE4
:06346700D0E07582012295
:01346D00223C
:0E346E00C0E0C0A8C2AFC082C083C0F0C002E0
:0E347C00C003C004C005C006C007C000C001E8
:0C348A00C0D075D000C010C09F90F33C73
:0E349600E0FAA3E0FBA3E0FC8A828B838CF0BB
:0734A400125BBEF50DA3123F
:0534AB005BBEF50E758B
:0934B0000F22E58124DFF50885F7
:0634B9000D82850E83F078
:0834BF00E5086019050DE4B5F4
:0434C7000D02050EDF
:0734CB00850D82850E83A828
:0734D2000FE6FAF0050F15EB
:0334D9000880E385
:0E34DC001212F090F33CE0FAA3E0FBA3E0FC38
:0C34EA008A828B838CF0125BBEF50DA370
:0634F600125BBEF50E752D
:0634FC000F21850D828501
:053502000E83E0F50856
:07350700050DE4B50D0205FE
:01350E000EAE
:05350F00050FA80F8567
:093514000D82850E83E0FAF61524
:06351D0008E50870E585D9
:0A3523000F81D09FD010D0D0D0014E
:0E352D00D000D007D006D005D004D003D002C5
:0E353B00D0F0D083D082D0E020E705C2AF02EE
:02354900354DFE
:02354B00D2AFFD
:02354D00D0E0CC
:0E354F00C2AFC0E0C0A8C2AFC082C083C0F04F
:0E355D00C002C003C004C005C006C007C00005
:0C356B00C001C0D075D000C010C09F90FF
:0E357700F33CE0FAA3E0FBA3E0FC8A828B8326
:093585008CF0125BBEF50DA312DF
:05358E005BBEF50E75A7
:093593000F22E58124DFF5088513
:06359C000D82850E83F094
:0835A200E5086019050DE4B510
:0435AA000D02050EFB
:0735AE00850D82850E83A844
:0735B5000FE6FAF0050F1507
:0335BC000880E3A1
:0735BF00859509750A0075EE
:0A35C6000B00750C00AA967B007C38
:0B35D000008C058B048A03E42509F53C
:0535DB0009EB350AF5C3
:0535E0000AEC350BF5BB
:0535E5000BED350CF5B3
:0C35EA000CAA977B008B058A04E4FB25EB
:0535F60009F509EB35A9
:0535FB000AF50AEC35A1
:053600000BF50BED3598
:063605000CF50C744725D2
:06360B0009F50974013508
:053611000AF50AE43592
:053616000BF50BE4358B
:04361B000CF50C8519
:06361F000B97850A968559
:0636250009951210E612E7
:0E362B0012F053C07F90F33CE0FAA3E0FBA343
:0C363900E0FC8A828B838CF0125BBEF5F3
:063645000DA3125BBEF5AF
:05364B000E750F218542
:073650000D82850E83E0F5F9
:01365700086A
:07365800050DE4B50D0205AC
:01365F000E5C
:05366000050FA80F8515
:093665000D82850E83E0FAF615D2
:06366E0008E50870E58587
:0A3674000F81D09FD010D0D0D001FC
:0E367E00D000D007D006D005D004D003D00273
:0E368C00D0F0D083D082D0E020E705C2AF029C
:02369A00369E5A
:02369C00D2AFAB
:05369E00D0E0D2AF32C4
:0A36A30075C6B8859509750A007513
:0A36AD000B00750C00AA967B007C50
:0B36B700008C058B048A03E42509F554
:0536C20009EB350AF5DB
:0536C7000AEC350BF5D3
:0536CC000BED350CF5CB
:0C36D1000CAA977B008B058A04E4FB2503
:0536DD0009F509EB35C1
:0536E2000AF50AEC35B9
:0536E7000BF50BED35B1
:0636EC000CF50C744725EB
:0636F20009F50974013521
:0536F8000AF50AE435AB
:0536FD000BF50BE435A4
:043702000CF50C8531
:063706000B97850A968571
:06370C00099543A82022EC
:0500E90090EECBE4F0F5
:0A371200C010858110C082C083E55D
:0C371C0081241AF581E5102411F8E4F670
:0E37280008F608F6120EA990EECBE0FF704AEC
:0837360090EEC17415F0A374BC
:0C373E00E1F0A3E4F090EEC4F0A3F090E2
:0E374A00EEC974ACF0A3740DF090EEC6E4F07E
:0D375800A3F0A3F090E11875F00074AC121E
:093765005647A3740D125647905B
:07376E00E11574C6F0A3741D
:0B377500EEF0A3E4F090EECB7401F046
:0C378000A81008E608466014906E41E4B2
:0C378C0093FF740193FCA81008EF26F6D0
:04379800EC0836F60D
:0B379C00A81008E608467003023A6817
:0C37A700A81008C3E694AC08E6940D409E
:0437B30003023A686B
:0937B700E5102406F876C108763D
:0C37C000EE08760090EEC1E0FAA3E0FBFA
:0C37CC00A3E0FFA810080808A60208A649
:0437D8000308A60735
:0C37DC00A810080808740326FCE4083656
:0E37E800FD0886068C828D838EF0125BBEFC7F
:0C37F600A3125BBEFDA81008C3EC96ED0A
:0C38020008965047A810080808868208A5
:0E380E0086830886F0125BBEFCA3125BBEFB35
:0C381C00A3125BBEFAEC4B4A6027A81018
:0C382800080808E5102406F9E6F7080976
:0C383400E6F70809E6F78B058A06A810E5
:0D384000080808A60408A60508A606808F43
:0A384D00A810080808E6B4C60D082C
:0C385700E6B4EE0808E6B40003023A688C
:0C386300E5102406F8868208868308869B
:0C386F00F0125BBEFAA3125BBEFBA312BA
:07387B005BBEFC906E41E50D
:0C388200102414F8E493F674019308F687
:0C388E00E5102414F8E62AFA08E63BFBDB
:0C389A00E5102411F8A60208A60308A6F9
:0C38A60004A81008080886820886830821
:0D38B20086F0125BBEFFA3125BBEFCA312EA
:0C38BF005BBEFDE5102406F8868208863A
:0E38CB00830886F0EF125647A3EC125647A36F
:0C38D900ED125647A810080808740326DA
:0E38E500FCE40836FD0886068C828D838EF08A
:0B38F300E510240EF8125BBEF6A312D5
:0A38FE005BBE08F6E510240EF8A9E1
:0C3908001009E6C397C0E008E60997C06C
:0C391400E0E5102417F8D0E0F618D0E031
:0C392000F6E5102414F8860308E6CB2519
:0C392C00E0CB33FAE5102416F8C3EB964C
:08393800EA08964003023A6818
:0A394000A810080808A91009E726DE
:0C394A00FA09E70836FB088607E51024A0
:0C39560009F8A60208A60308A607E51061
:0C3962002409F8E5102418F9740326F776
:0C396E00E4083609F70809E6F7E5102424
:0C397A000EF8A91009E6C397FA08E60948
:0C39860097FBE5102418F8868208868361
:0E3992000886F0EA125647A3EB1256478C82C5
:0C39A0008D838EF0A81008E6125647A395
:0C39AC0008E6125647E510240CF8A602AD
:0939B80008A6037CC17DEE7E002F
:0C39C1008C828D838EF0E5102418F81223
:0B39CD005BBEF6A3125BBE08F6A3125F
:0C39D8005BBE08F6C004C005C006E51088
:0E39E4002418F8740326FCE40836FD08860655
:0E39F2008C828D838EF0125BBEFCA3125BBE36
:0C3A0000FDE510240CF8C3EC96ED0896D0
:0C3A0C00E433D006D005D0046015E510AE
:0E3A18002418F886020886030886078A048BA5
:053A2600058F068096EB
:0C3A2B00E5102409F886820886830886CE
:0C3A3700F0E5102418F9E7125647A30927
:0E3A4300E7125647A309E71256478C828D837F
:0C3A51008EF0E5102409F8E6125647A399
:0B3A5D0008E6125647A308E612564781
:0C3A6800120EC2E5102411F886820886B8
:0A3A7400830886F0851081D010222F
:0A3A7E00C010E581F5102408F58161
:0E3A8800AA82AB83ACF0EA4B4C7003023B8D7C
:0E3A9600906E41E493FD740193FEEAC39DFA25
:0C3AA400EB9EFBA81008A60208A6030871
:0E3AB000A604C002C003C004120EA9D004D0A8
:0E3ABE0003D00274032AFAE43BFB8A828B8356
:0C3ACC008CF0125BBEFAA3125BBEFBE59F
:0A3AD800102404F8A60208A6037CDF
:053AE200C17DEE7E0035
:0C3AE7008C828D838EF0E5102406F8120E
:0B3AF3005BBEF6A3125BBE08F6A31238
:0C3AFE005BBE08F6C004C005C006E51061
:0E3B0A002406F8740326FCE40836FD0886063F
:0E3B18008C828D838EF0125BBEFCA3125BBE0E
:0C3B2600FDE5102404F8C3EC96ED0896B1
:0C3B3200E433D006D005D0046015E51087
:0E3B3E002406F886020886030886078A048B90
:053B4C00058F068096C4
:0C3B5100A8100886820886830886F0E52C
:0C3B5D00102406F9E7125647A309E712EE
:0E3B69005647A309E71256478C828D838EF0D3
:0B3B7700A81008E6125647A308E6124B
:093B82005647A308E6125647124B
:023B8B000EC268
:063B8D00851081D010221A
:026E410005004A
:0E3B930043C68053C6BE43FD30C291D292D2CB
:0B3BA1009343FE0E123D987582012236
:083BAC00E582FA6003C29322D6
:033BB400D2932287
:083BB700E582FA6003D29122BD
:033BBF00C291228E
:083BC200E582FA6003D29222B1
:033BCA00C2922282
:0A3BCD00C010858110AA82AB83AC02
:0E3BD700F0C2AF8A828B83E8C0E0EAC0E0E56E
:0C3BE500C7C0E0E51024F9F8E6FA08E695
:0E3BF100F58408E64480F58508E61813E6130F
:083BFF00030354304401F5C733
:0E3C0700759201E493A3759200F0A3DAF3D056
:0E3C1500E0F5C7D0E0FAD0E0F8D2AF8A828B9B
:0B3C2300838CF0125BBEF584D01022F1
:083C2E00AA82AB837C007D003B
:0E3C3600C3EC9AED9B5008000CBC00F40D800E
:013C4400F18E
:013C4500225C
:083C4600AA82AB837C007D0023
:0E3C4E00C3EC9AED9B501D9003E8C002C0032A
:0E3C5C00C004C005123C2ED005D004D003D009
:083C6A00020CBC00DF0D80DC40
:013C7200222F
:093C7300AA82AB838595BC7C009C
:033C7C00BC040085
:0E3C7F005030C002C003ADBD8D067D00AFBC4D
:0E3C8D007A00EF2DFDEA3EFE90F34AE0FAA326
:0E3C9B00E0FB90F34AED2AF0EE3BA3F0859596
:083CA900BC0CD003D00280CB5B
:0E3CB10090F34AE0FCA3E0FDC002C0038C8249
:0E3CBF008D831257FA158115817C007D008CD3
:083CCD00028D038A828B832221
:026EBE00FACB0D
:020000040001F9
:0E800000AA82AB83ACF0125BBEFDBD01028014
:01800E002B46
:05800F00BD0202800328
:03801400BD032386
:0C801700740DC0E0E4C0E0744CC0E074E4
:0C802300F3C0E0E4C0E08A828B838CF0A4
:0B802F001259E6E58124FBF581802159
:0C803A00740DC0E0E4C0E07459C0E074B4
:0C804600F3C0E0E4C0E08A828B838CF081
:098052001259E6E58124FBF581D9
:04805B007582012207
:0E805F00AA82AB83ACF0125BBEFDBD010280B5
:01806D0025ED
:05806E00BD02028003C9
:03807300BD031D2D
:0E807600740DC0E0E4C0E0C002C003C004907E
:0E808400F34C75F0001259E6E58124FBF581FE
:0180920022CB
:0E809300740DC0E0E4C0E0C002C003C0049061
:0E80A100F35975F0001259E6E58124FBF581D4
:0180AF0022AE
:020000040000FA
:0D6EC00000000000000000000000000000C5
:0D6ECD0000000000000000000000000000B8
:0E3CD500AA8275CB0075CC008ACDD2BB75CB10
:053CE300BE7582002205
:043CE80075CB002276
:0E3CEC00AA8275EB0075EC008AEDD2BC75EB78
:053CFA00BE75820022EE
:043CFF0075EB00223F
:043D030075E4003231
:073D070053C3DF75C3003256
:0C3D0E00C020C0E0C0F0C082C083C00232
:0E3D1A00C003C004C005C006C007C000C00141
:0E3D2800C0D075D00075D83875CB00124AB6E1
:0E3D3600D0D0D001D000D007D006D005D004E8
:0D3D4400D003D002D083D082D0F0D0E0D0E8
:023D510020321E
:0C3D5300C020C0E0C0F0C082C083C002ED
:0E3D5F00C003C004C005C006C007C000C001FC
:0E3D6D00C0D075D00075D80775EB001262EA61
:0E3D7B00D0D0D001D000D007D006D005D004A3
:0D3D8900D003D002D083D082D0F0D0E0D0A3
:023D96002032D9
:0E3D98007420C0E0E4C0E0E4C0E090EECC7522
:0E3DA600F000125A841581158115817A007B78
:013DB400000E
:0E3DB500C3EA9404EB9400501E8A04EBCC2564
:0B3DC300E0CC33FDEC24ECF582ED3485
:0C3DCE00EEF583E4F0A3F00ABA00DC0B71
:023DDA0080D98E
:0A3DDC007ACC7BEE8BD38AD2D2B8EA
:013DE60022BA
:0C3DE700C020C0E0C0F0C082C083C00259
:0E3DF300C003C004C005C006C007C000C00168
:0E3E0100C0D075D000740155D1FA600653D1BF
:043E0F00FE12474810
:0E3E1300C2C0D0D0D001D000D007D006D0055C
:0E3E2100D004D003D002D083D082D0F0D0E005
:033E2F00D020326E
:053E3200AA82BAE000C5
:073E3700403DBAE2028008E1
:053E3E00BAE30280035D
:033E4300BAE52DB0
:0E3E460090DF53E0FBA3E08AE1900001C0038F
:0E3E5400123C2ED00390DF53E0FCA3E0FD7E75
:0A3E620000EBB50405EEB5050122E2
:073E6C0075E1E675E1E622B5
:033E73008AE122BF
:0C3E7600BADE1053E9FD75E1DF75E1FED6
:073E8200E5E920E10480F9ED
:023E89008AE1CC
:013E8B002214
:053E8C00AA82BA0B0040
:073E91004005EA24E550049E
:043E98007582FF220E
:0E3E9C008A037C00EB24F5FBEC34FFFCC00233
:0E3EAA00C003C0049000051257FAAD82AE832B
:0E3EB80015811581D0028D038E0474652BFBDD
:0E3EC60074013CFC4304408C057E0090DF102C
:0E3ED400EDF0A3EEF090DF11EBF0A3E4F08A26
:023EE20082223A
:0B3EE400E582FA249B50047582FF2247
:0E3EEF00EA75F01FA4FBACF0C0027464C0E0E2
:0E3EFD00E4C0E08B828C831255F5AD82AE835B
:0E3F0B0015811581D0028D038E0474602BFB8E
:0E3F190074A13CFC8C057E0090DF0AEDF0A345
:0E3F2700EEF090DF0BEBF0A3E4F090EEF4EA86
:043F3500F08A82226A
:0E3F390090EEF5E0FA20E73590DF4F7414F0BB
:0E3F4700E4A3F090EEF574804AF090DF17E0EE
:0E3F5500FAA3E0FB90DF1774F75AF0A3EBF02D
:083F6300E5E930E7FB53BEFB6A
:0B3F6B00E5BE30E6FB7582E2123E323C
:0C3F760053D1FED2B875D601758201222D
:0D3F82007582FF123E3275D6817582E51200
:0E3F8F003E3290DF17E0FAA3E0FB90DF1774DC
:0E3F9D00084AF0A3EBF090EEF5E4F075820117
:013FAB0022F3
:073FAC0075D6817582012228
:0B3FB30090F366E0FA600475820122C2
:0E3FBE0090DF17E0FAA3E0FB90DF1774F75ACC
:043FCC00F0A3EBF083
:0E3FD00090DF17E0FAA3E05302107B00BA0165
:063FDE0005BB000280ECAF
:083FE400E5E930E7FB53BEFBE9
:0E3FEC00E5BE30E6FB90EEF5E4F090EEF8F066
:0E3FFA0090DF547401F0E4A3F090DF02740A2B
:0E400800F0E4A3F090DF0374F2F0E4A3F09074
:0E401600DF047430F0E4A3F090DF05E4F0A3C3
:0D402400F090DF60E0FAA3E08A037A0090DC
:0E403100DF61E0FCA3E0FD90EEF6EC2AF0ED7E
:0D403F003BA3F0758212123E8C7582641254
:0C404C003EE47582E7123E327582E612F7
:094058003E327AD97BDF7DF97E4E
:0C406100EE8ED58DD48A058B068E07905C
:0A406D00EEF9EFF090EEFAEDF07AB4
:06407700017BEF8B0490B9
:0A407D00EEFBECF090EEFCEAF09090
:0C408700EEFD7420F090EEFE7483F090CB
:0E409300EEFF7453F090EF00741FF075917003
:0E40A10053E98F539BFC439A01D2A8123F397A
:0E40AF00C284C28490F3667401F0758201220F
:0A40BD00C010858110058105810502
:0E40C70081AA82AB83ACF0125BBEFDBD01028C
:0240D500805A0F
:0640D700BD02030241B727
:0640DD00BD030302417166
:0540E300BD0402800392
:0340E8000241E9A9
:0E40EB0074012AFDE43BFE8C07C002C003C036
:0E40F9000474082DFAE43EFB8F048A828B8348
:0E4107008CF0125BBE90DF4BF0A3E4F0740965
:0E4115002DFDE43EFE8D828E838FF0125BBE88
:0E412300FD90DF4CF0A3E4F0D004D003D002F6
:0C413100A8100874012AF6E43B08F60808
:08413D00A6047A437BDF7C003D
:03414500BC0800B3
:0541480040030241E903
:0C414D00A81008EC26FEE40836FF0886E7
:0E415900058E828F838DF0125BBEFE8A828BF4
:0A41670083F0A3AA82AB830C80D47E
:0E41710074012AFDE43BFE8C07C002C003C0AF
:0E417F000474022DFAE43EFB8F048A828B83C7
:0E418D008CF0125BBE90DF4BF0A3E4F07403E5
:0E419B002DFDE43EFE8D828E838FF0125BBE02
:0E41A900FD90DF4CF0A3E4F0D004D003D00270
:0541B7000ABA00010B33
:0D41BC008A058B068C078D828E838FF01292
:0E41C9005BBEFD90DF4DF0A3E4F00ABA0001EA
:0141D7000BDC
:0E41D8008A828B838CF0125BBEFA90DF4EF071
:0341E600A3E4F05F
:0641E900851081D01022B8
:0C41EF00AA8290EEF8E4F0BA0102803BD6
:0541FB00BA0202800A77
:05420000BA0302800B6F
:05420500BA047A8052AA
:06420A0090EEF87401F0D3
:0E42100090DF02E0FAA3E0FB90DF0274104A98
:0D421E00F0A3EBF090DF03E0FAA3E0FB90CB
:0B422B00DF0374EF5AF0A3EBF080708B
:0E42360090DF02E0FAA3E0FB90DF0274184A6A
:0D424400F0A3EBF090DF03E0FAA3E0FB90A5
:0B425100DF0374104AF0A3EBF0804A7A
:0E425C0090DF02E0FAA3E0FB90DF0274084A54
:0D426A00F0A3EBF090DF03E0FAA3E0FB907F
:0B427700DF0374104AF0A3EBF080247A
:0E42820090DF02E0FAA3E0FB90DF0274E75A3F
:0D429000F0A3EBF090DF03E0FAA3E0FB9059
:09429D00DF0374EF5AF0A3EBF00B
:0442A60075820122FA
:0E42AA007A007B007582E2C002C003123E3231
:0E42B800900010123C2E900010123C2ED003ED
:0442C600D0027C089E
:0E42CA0090DF07E0FDA3E0ED24D3FD3395E087
:0E42D800FEED2AFAEE3BFB900010C002C00380
:0E42E600C004123C2ED004D003D002DCD774EA
:0E42F40008C0E0E4C0E08A828B83125EC1AC99
:0E43020082AD83158115818C028D038A822283
:0A431000C0108581107A017582E269
:0E431A00C002123E32900010123C2E90001095
:0D432800123C2E900010123C2E900010123E
:0C4335003C2ED002A810181818B6000288
:02434100804DAD
:0C434300A810181818B6015390DF62E0B3
:0C434F00FBA3E0FCEB30E0357B017C00C0
:05435B00BB0002803EE2
:07436000EC24FE50027B007B
:0E4367009000FAC002C003C004123C2ED00425
:0E437500D003D00290DF62E0FDA3E0FEED2059
:06438300E0047B007A005B
:034389000C80CFD6
:04438C007A00800E25
:0E43900090DF62E0FBA3E0FCEB20E0027A008D
:05439E008A82D010220C
:0B43A300E582FA60067582E9023E32F6
:0643AE007582E8023E32B8
:0A43B400C010858110C082C083C0D4
:0C43BE00F0E581240CF581E5102404F8E2
:0C43CA007601A81008742226FEE40836D4
:0E43D600FF0886058E828F838DF0125BBEFE7F
:0943E400A3125BBEFFA81008E55E
:0C43ED0010240AF9742026F7E4083609B1
:0C43F900F70809E6F7E510240AF88682B0
:0E4405000886830886F0125BBEFDA3125BBE24
:0C441300FAEEC39DFEEF9AFFE5102405B1
:0E441F00F8A60608A60790EEF5E0FC30E606CB
:06442D00758200024587C4
:07443300EC20E703123F3902
:0C443A00E5102405F8C374809674800817
:0D44460086F063F08095F0E433FC60030223
:02445300456EB4
:0C445500C004A81008742C26FDE40836F2
:0C446100FE088607E510240AF886820891
:0E446D0086830886F0125BBEFCA3125BBEFACB
:0C447B00EC2DFDEA3EFEE5102407F8A63B
:0D4487000508A60608A6077582E7C0041206
:0C4494003E32D004E5102405F8860274C6
:0C44A000022AF5D9D004E5102407F886A4
:0944AC00020886030886057E0063
:0C44B500C0048E077C00E5102405F8C34D
:0E44C100EF96EC64800886F063F08095F0E4DE
:0E44CF0033D00460138A828B838DF0125BBEA3
:0A44DD00F5D9A3AA82AB830E80CEAE
:0E44E70075D90075D900C004E4C0E0758200EC
:0E44F500124310AA821581D004EA7006758267
:0445030002024587E4
:0E45070053E9BF7582E4C004123E32D0047A3C
:0145150000A5
:0E45160090DF62E0FBA3E0FDEB20E4328A03BD
:044524000ABBC80006
:0E452800502A90DF62E0A3E0E4FBFD4B600E42
:0E4536007582E2C004123E32D0047AC880D2F0
:0E45440090000AC002C004123C2ED004D00227
:0245520080C225
:03455400BAC800E2
:0B4557004009E5102404F87600800CF9
:0C456200C284D28490EEF5E0FA4460F0D0
:0C456E00E5102404F8B6010AEC6007E533
:06457A00102404F8760095
:07458000E5102404F8868217
:06458700851081D0102216
:0A458D00C010E581F5102404F5814B
:0D459700AA82AB83ACF0C002C003C00412C6
:0E45A400633ED004D003D0028A828B838CF059
:0845B200125BBE600302473FEB
:0E45BA00C002C003C0047408C0E074F8C0E082
:0E45C80074FFC0E07401C0E0E4C0E090EF8B2F
:0E45D60075F000123BCDE58124FBF581D00489
:0E45E400D003D00274012AFDE43BFE8C07A830
:0445F2001008760037
:0645F600A81008B6080041
:0C45FC005045C002C003C004A8100874A1
:0C46080007C396A81008082DF6E43E0831
:0A461400F608A607A81008E6248B9C
:0A461E00F582E434EFF583E0FCA818
:0C46280010080886820886830886F0ECE3
:0C463400125647A8100806D004D003D08E
:034640000280B342
:0E4643008A828B838CF074011256472AFDE4A4
:0E4651003BFE8C07C002C003C0047401C0E031
:0E465F008D828E838FF0126392AD821581D012
:0A466D0004D003D002BD0102800357
:03467700024736C1
:0E467A00906E43C002C003C004124C17D0045F
:0E468800D003D00274012AFDE43BFE8C07C073
:0E46960002C003C0048D028E038F048A828B43
:0E46A400838CF0E412564774012DFAE43EFBBD
:0E46B2008F048A828B838CF0E41256477402C8
:0E46C0002DFAE43EFB8F048A828B838CF0E49B
:0E46CE0012564774032DFAE43EFB8F048A82D5
:0E46DC008B838CF0E412564774042DFAE43EF2
:0E46EA00FB8F048A828B838CF0E41256477497
:0E46F800052DFAE43EFB8F048A828B838CF042
:0E470600E412564774062DFAE43EFB8F048A37
:0E471400828B838CF0744412564774072DFD7F
:0E472200E43EFE8D828E838FF0744412564763
:06473000D004D003D0020A
:094736008A828B838CF01263E689
:09473F00758201851081D0102261
:0A474800C010E581F5102417F5817B
:0A475200A810087600A810080876E9
:08475C00010876EF087600E584
:0C476400102406F8E4F608F608F675D6F6
:0C47700081D284A8100808868208868385
:0E477C000886F0125BBEFDA31818A68208A6E0
:0A478A0083E5102405F8A605E510EC
:0C4794002405F8E6247C5007E5102405FD
:0347A000F8768325
:0847A300E5102405F8B6020040
:0947AB004007E5102405F816167C
:0847B400E5102405F8B603002E
:0547BC005003024A4B0E
:0A47C100AE100E7F007A40E51024D0
:0C47CB0006FBE510240CF8A6030876009D
:0E47D70008764090F12EE0FBA3E0FCA3E0FD8D
:0C47E500C006C007C002E510240CF8E676
:0E47F100C0E008E6C0E008E6C0E08B828C83E2
:0E47FF008DF0122728AA82E58124FAF581E4C4
:04480D00BA010104E7
:054811007003024A4B98
:0C481600E5102406F886050886060886D2
:0C48220007742C2DFAE43EFB8F04E51017
:0E482E002409F8A60208A60308A60474262D85
:0E483C00FAE43EFB8F048A828B838CF0E41238
:0E484A0056478D828E838FF0E4125647A3E40A
:0E485800125647A3E412564774202DFAE43E90
:0E486600FB8F048A828B838CF0E4125647A3EA
:0E487400E4125647741F2DFDE43EFE8D828E29
:0C488200838FF0E4125647A8100808E5E8
:0C488E0010240FF9E6F70809E6F7080906
:0C489A00E6F7E5102409F8860208860302
:0548A6000886047E00FD
:0B48AB00E5102405F8C3EE96502BE545
:0C48B60010240FF886820886830886F024
:0E48C200125BBEFDA31818A68208A6838A8288
:0E48D0008B838CF0ED125647A3AA82AB830EA9
:0248DE0080CB8D
:0C48E000E5102406F8860208860308860E
:0C48EC0004E5102412F874262AF6E43BC0
:0B48F80008F608A604E5102412F8E5FD
:0C490300102415F9740126F7E4083609A9
:0C490F00F70809E6F7E510240FF886828F
:0C491B000886830886F0125BBEFDE510E4
:0C492700240FF8A9100909740126F7E418
:0D493300083609F70809E6F7ED24D3FDE585
:0C494000102415F886820886830886F093
:0C494C00ED125647E5102412F874022604
:0C495800FDE40836FE088607A8100808D9
:0C49640086820886830886F0E510241582
:0C497000F9125BBEF78D828E838FF0E59C
:09497C00102415F8E6125647E577
:0C498500102412F874222AF6E43B08F615
:0C49910008A604E5102405F886027B004F
:0C499D00E5102412F88682088683088644
:0B49A900F0EA125647A3EB125647E558
:0C49B400102415F8747F568D828E838FBE
:0E49C000F012564790EEF5E044C0F075820903
:0C49CE00123CD5A81008088682088683D9
:0C49DA000886F0125BBEFA30E715E5100D
:0E49E6002406F886820886830886F012643A5A
:0549F40012648E8052E8
:0C49F900E5102406F886020886030886F4
:0E4A05000474222AFAE43BFB8A828B838CF035
:0A4A1300E4125647A3E4125647E5EB
:0C4A1D00102406FA7B007C4090F12EE093
:0C4A2900FDA3E0FEA3E0FFA81008E6C01B
:0E4A3500E0C002C003C0048D828E838FF01299
:084A43002198E58124FCF581B6
:0E4A4B00C284C2AF90DF53E0FAA3E07B00BA52
:074A59000005BB0002804ACA
:0E4A600090DF62E0FAA3E053020C7B00BA0480
:0E4A6E0031BB002E75D68190DF62E0A3E0E43C
:0E4A7C00FAFB4A60147582E5123E327582E63E
:0B4A8A00123E327582E2123E328006BE
:064A95007582E6123E32BC
:054A9B0075D601800D3D
:0A4AA000D28475D60175D70180039A
:034AAA0075D601BD
:084AAD00D2AF851081D0102268
:014AB50022DE
:084AB60090EEF5E054BFF02280
:0C4ABE00C020C0E0C0F0C082C083C00275
:0E4ACA00C003C004C005C006C007C000C00184
:0E4AD800C0D075D000C2AFE5E930E62453E946
:0E4AE600BF90EEF5E0FA30E51490EEF5744066
:0D4AF4004AF090EEF5E06420F07582251286
:024B01003CD5A1
:054B0300C28475D6011B
:0E4B0800E5E930E44F90DF62E0FAA3E0FBEA5B
:0E4B160020E44090DF53E0FAA3E0FBEA247FA6
:0E4B2400502075D6817582E5123E327582E60C
:0D4B3200123E327582E6123E327582E212AA
:074B3F003E3275D601801320
:084B4600EA24FE500E75D68131
:084B4E00EA6005E5D91A80F8C0
:034B560075D60110
:034B590053E9EF2E
:0E4B5C00E5E930E52853E9DF90DF62E0FAA3D7
:0E4B6A00E0FBEA30E319E5D620E00375D60142
:0E4B7800D28490DF62E0FAA3E0FBEA20E103C2
:034B860075D701DF
:0E4B8900539BFC759170D2AFD0D0D001D000FC
:0E4B9700D007D006D005D004D003D002D083C2
:094BA500D082D0F0D0E0D0203223
:0C4BAE00C020C0E0C0F0C082C083C00284
:0E4BBA00C003C004C005C006C007C000C00193
:0E4BC800C0D075D000C28975D6817582E51205
:0C4BD6003E327582E6123E327582E61215
:0E4BE2003E327582E2123E3275D601C284C2A6
:0E4BF00084D0D0D001D000D007D006D005D0A0
:0E4BFE0004D003D002D083D082D0F0D0E0D01B
:024C0C00203254
:0E6E43004E6F206164647265737320696E2067
:086E5100666C6173682E0A00F3
:016EDA0000B7
:034C0E00025083CE
:034C11000250F35B
:034C140002519CAE
:084C1700AA82AB837C007D0042
:0E4C1F008A828B83E493FE60278E82C002C0DF
:0E4C2D0003C004C005124C14AE82D005D004A2
:0A4C3B00D003D002BEFF038C8222DA
:054C45000ABA00010B9A
:054C4A000D8D0480D077
:034C4F008C822232
:0A4C5200C010858110058105810561
:0A4C5C00817AD27BEF7C008A828B04
:0C4C6600838CF0E41256471ABAFF011BC1
:0A4C7200A810181818B610028003ED
:034C7C00024D11D5
:0C4C7F00E51024FBF8740F56FD7E00EDDC
:0A4C8B002459F582EE346EF583E43F
:0E4C950093FD8A828B838CF01256471ABAFF69
:024CA300011BF3
:0C4CA500E51024FBF808E618C4C6C4544F
:0D4CB1000F66C6540FC666C630E30244F01D
:0C4CBE0008F6E51024FBF8740F56FD7E8C
:0A4CCA0000ED2459F582EE346EF57A
:0E4CD40083E493FD8A828B838CF01256471A7C
:044CE200BAFF011BF9
:0C4CE600E51024FBF808E618C4C6C4540E
:0D4CF2000F66C6540FC666C630E30244F0DC
:0C4CFF0008F6E51024FBF8E60846600308
:034D0B00024C7FD8
:034D0E00024DEA69
:0C4D11007F00E51024FBF808E630E70FF7
:0C4D1D007F01E51024FBF8C3E496F608C3
:034D2900E496F617
:0B4D2C00A81008A60208A60308A604B1
:0C4D3700C007740AC0E0E4C0E0E51024EE
:0E4D4300FBF88682088683125BDAAD82AE83AF
:0C4D510015811581D00774302DFDA810CD
:0E4D5D000886820886830886F0ED125647A865
:084D6B00100816B6FF0208163D
:0C4D7300C007740AC0E0E4C0E0E51024B2
:0E4D7F00FBF88682088683125EC1AD82AE8389
:0C4D8D0015811581D007E51024FBF8A665
:0C4D99000508A606E51024FBF8E6084615
:0C4DA5007090EF6021A81008868208863C
:0C4DB100830886F0742D125647A81008E5
:0E4DBD00E624FFFA08E634FFFB088604801F98
:0C4DCB00A8100886820886830886F07411
:0C4DD70020125647A81008E624FFFA0836
:074DE300E634FFFB08860423
:054DEA000ABA00010BF4
:0D4DEF008A828B838CF0C002C003C00412C6
:0E4DFC005BA6AD82D004D003D002C002C0037B
:0E4E0A00C004C0058A828B838CF0124E2B15DB
:0E4E180081D004D003D0028A828B838CF08577
:054E26001081D01022F4
