:0600000002008B0247D252
:01000B0032C2
:0100130032BA
:03001B00024E2B67
:0100230032AA
:03002B000230D9C7
:01003300329A
:01003B003292
:03004300023A1E60
:03004B0002393A3D
:0300530002393E31
:03005B0002394522
:0300630002398AD5
:01006B003262
:03007300024EAC8E
:01007B003252
:030083000246E64C
:0300EE0002008687
:050086001200F180FEF4
:0E00F10012371DE4C0E0C0E0C0E07402C0E0C1
:0E00FF00E4C0E0C0E0C0E07418C0E07401C0CE
:0A010D00E0748AC0E074E6C0E074FC
:0E01170080C0E090012D1203F9E58124F4F57B
:08012500811209E190000022A3
:0A012D00C010E581F510240CF581E7
:0E01370090C20075F001E412482E90001412E0
:0E01450008F490000075F000126504E5827069
:070153000690E68E1248370A
:0E015A009000321208F4E4C0E0C0E0758202AA
:0E0168001253C8AA82AB83ACF01581158190AA
:0E017600F285EAF0A3EBF0A3ECF0EA4B4C604C
:0A018400277478C0E074F2C0E0E4D4
:0E018E00C0E08A828B838CF01256B6AA8215CE
:0A019C008115811581BA0102800669
:0601A60090E6A3124837A9
:0E01AC0090F285E0FAA3E0FBA3E0FC8A828BD0
:0D01BA00838CF0125AE0AA82AB83ACF0A84F
:0B01C7001008A60208A60308A604A862
:0C01D2001008E60846084670030203AC63
:0C01DE00A81008742226FDE40836FE0874
:0E01EA0086078D828E838FF0E412DD83A3E4FE
:0C01F80012DD83A81008742026FAE40829
:0D02040036FB0886048A828B838CF0E4129E
:08021100DD83A3E412DD83A8E4
:0C0219001008742626FAE40836FB08865C
:0E0225000474042AFAE43BFB8A828B838CF07B
:09023300740112DD83A81008E536
:0C023C00102404F9742C26F7E40836099D
:0E024800F70809E6F78D828E838FF012E2FA36
:0C025600FBA312E2FAFAE5102409F87488
:0E026200012BF6E43A08F68D828E838FF0E5CC
:0C027000102409F8E612DD83A308E61252
:0C027C00DD83E5102404F8EB26FBEA0803
:0E02880036FA0886048B828A838CF074541236
:08029600DD83E5102409F8E501
:0C029E00102407F9740126F7E408360963
:0C02AA00F78D828E838FF0E5102407F89A
:0B02B600E612DD83A308E612DD83E5FD
:0A02C100102404F8E5102409F9E701
:0E02CB0026FC09E70836FA0886038C828A832F
:0C02D9008BF0746512DD83E5102409F839
:0C02E500E510240BF9740226F7E408363B
:0C02F10009F78D828E838FF0E510240B3E
:0C02FD00F8E612DD83A308E612DD83E5BD
:0A030900102404F8E5102407F9E7BA
:0E03130026FC09E70836FA0886038C828A83E6
:0C0321008BF0747312DD83E5102409F8E2
:0C032D00E5102407F9740326F7E40836F5
:0C03390009F78D828E838FF0E5102407F9
:0C034500F8E612DD83A308E612DD83E574
:0A035100102404F8E510240BF9E76E
:0E035B0026FC09E70836FA0886038C828A839E
:0C0369008BF0747412DD83E5102409F899
:0E037500740426FAE40836FB8D828E838FF026
:0A038300EA12DD83A3EB12DD83E52F
:0A038D00102404F8E5102407F9E736
:0E03970026FA09E70836FB0886048A828B8363
:0703A5008CF0742112DD83CE
:0C03AC0090F285E0FAA3E0FBA3E0FCA8BF
:0C03B8001008E6C0E008E6C0E008E6C05F
:0A03C400E07478C0E074F2C0E0E4D9
:0E03CE00C0E08A828B838CF0125C5AAA82E512
:0E03DC008124FAF581BA010690E6B91248377D
:0A03EA009000641208F40201AC85D3
:0503F4001081D0102271
:04E68A00417070006B
:0EE68E004E616E6F537461636B205374617242
:07E69C0074204F6B0D0A0012
:0EE6A300536F636B65742062696E642066615C
:08E6B100696C65642E0D0A007E
:0EE6B9005061636B65742073656E740D0A000A
:0DE7210003FFFFFFFF0000000000007D006F
:03E72E00000000E8
:0500E40090E066E4F06D
:0A03F900C010858110C082C083058A
:0C0403008105810581E51024F9F886824E
:0D040F00088683121603AC82AD83AEF0A800
:0C041C0010080808A60408A60508A6069B
:0C042800A810080808B6000B08B6000772
:0704340008B600030205EA0F
:0A043B00E51024F5F8E6C0E0E51036
:0E04450024FBF8E6C0E008E6C0E008E6C0E0F0
:0C045300E51024F9F8E6C0E008E6C0E07F
:0C045F00A810080808868208868308861A
:0C046B00F012137BE58124FAF581A81043
:0E047700080808742026FFE40836FA088603F9
:0E0485008F828A838BF012E2FAFFA312E2FA52
:0C049300FAA312E2FAFBE51024F6F8E6EA
:0C049F00C0E008E6C0E008E6C0E0A810DD
:0E04AB0008E6C0E008E6C0E08F828A838BF08E
:0E04B900122D46AA82AB83AFF0E58124FBF53D
:0C04C70081A810080808868208868308B7
:0E04D30086F0EA12DD83A3EB12DD83A3EF12A5
:0E04E100DD83C0E0C0A8C2AF90F28CE0240121
:0C04EF00F090F28CE0FABA0117A8100897
:0E04FB00080890F288E6F008A3E6F008A3E6F1
:06050900F01214E8803F2F
:0E050F0090F291E0FA703890F288E0FAA3E0E2
:0E051D00FBA3E0FF741F2AFAE43BFB8A828BEB
:0C052B00838FF012E2FAFAE51024F5F8D4
:0B053700C3E69A4012A81008080890C4
:0C054200F288E6F008A3E6F008A3E6F05B
:0C054E00A810080808741F26FAE40836FC
:0E055A00FB0886078A828B838FF012E2FAFA82
:0E05680090F28FE0FBC39A500590F28FEAF0FC
:0C057600A810080808742326FBE40836CF
:0E058200FF08860490E066E0FD8B828F838C7C
:0B059000F012DD8390E066ED04F090B7
:0D059B00F290E0FBC39A500590F290EAF058
:0C05A800A810080808740326FBE40836BD
:0C05B400FC088605EA75F00CA42400FA8F
:0C05C000E434E0FE7F00C003C004C0056E
:0E05CC008A828E838FF0122793158115811578
:0E05DA00817A01D0E053E080E5E042A8D0E055
:0205E80080028F
:0205EA007AFF96
:0C05EC00BA0163E51024F2F886030886CB
:0E05F80004088605BB0008BC0005BD0002809B
:010606001BD8
:0C0607008B828C838DF0A810080808E698
:0D06130012DD83A308E612DD83A308E612C2
:02062000DD8378
:0E06220090F291E0FB602990F288E0FBA3E0EB
:0E063000FCA3E0FD741F2BFBE43CFC8B828CD2
:0C063E00838DF012E2FAFBE51024F5F8C1
:08064A00C3EB965003122FF8D8
:080652008A82851081D010227C
:0A065A00C010E581F5102406F581BB
:0D066400AA82AB83ACF0C0E0C0A8C2AF908A
:0E067100F288E0FDA3E0FEA3E0FFEAB5050E6F
:0E067F00EBB5060AECB507067A007B007C009E
:0B068D00E4BA0007BB0004BC0001043D
:0C069800FD601290F288A81008E0F6A3A4
:0906A400E008F6A3E008F6800B63
:0B06AD00A81008A60208A60308A60477
:0C06B800C005A81008860208860308860A
:0E06C4000474032AFEE43BFF8C058E828F83B4
:0E06D2008DF0C002C003C004C005122B85D0FD
:0C06E00005D004D003D002E5102404F87B
:0C06EC0074112AF6E43B08F608A604E5A9
:0C06F800102404F8740B26FDE40836FE04
:0E0704000886078D828E838FF012E2FAFDA325
:0E07120012E2FAFEA312E2FAFFED4E4FD005FE
:0C0720006020E5102404F886820886831F
:0E072C000886F0C002C003C004C005122B8571
:08073A00D005D004D003D00269
:0E07420074032AFAE43BFBC005C002C003C0EA
:0E0750000490E05A75F0001227931581158170
:0E075E001581D00590F28BE02401F0D0E0531D
:0E076C00E080E5E042A8D0E090F291E0FA6073
:07077A0006ED6003122FF8E9
:06078100851081D010225A
:0A078700C010858110C082C083C03D
:0B079100F00581E5102404F87600124A
:0C079C000A33A8100886820886830886AD
:0B07A800F012E2FAFEA312E2FAFFE5F5
:0C07B3001024FCF8E62EFD08E63FFA8D4D
:0E07BF000390F28DE0FCA3E0FDC3EC9EED9FE5
:0E07CD00501FC3EB9EEA9F503590F28DE0FC6A
:0C07DB00A3E0FDC3EC9BED9A5026E51056
:0707E7002404F87601801DD7
:0E07EE00C3EB9EEA9F400F90F28DE0FCA3E06B
:0807FC00FDC3EC9BED9A5007D0
:07080400E5102404F8760161
:0C080B00A8100886820886830886F0EB9F
:0908170012DD83A3EA12DD83E582
:0A082000102404F8E670030208E358
:0E082A0090F288E0FCA3E0FDA3E0FE74032C36
:0E083800FCE43DFD8C828D838EF0C002C00377
:0E084600122B85D003D00290F288E0FCA3E0D4
:0E085400FDA3E0FE74032CFCE43DFD8C828DC0
:0D086200838EF0EB12DD83A3EA12DD83909C
:0E086F00F28DE0FCA3E0FDC3EB9CEA9D50344B
:0E087D0090F288E0FAA3E0FBA3E0FC74032AEB
:0E088B00FAE43BFB90E04BE0FDA3E0FEA3E0AF
:0E089900FFC002C003C0048D828E838FF01258
:0A08A7002952158115811581803258
:0E08B10090F288E0FAA3E0FBA3E0FC74032AB7
:0E08BF00FAE43BFB90E048E0FDA3E0FEA3E07E
:0E08CD00FFC002C003C0048D828E838FF01224
:0808DB002952158115811581D8
:0B08E300120A4CE582FA7003122FF895
:0608EE00851081D01022EC
:0D08F400AA82AB837C00EA4B70030209DA94
:0E090100C002C003120A33D003D00290F28D60
:0E090F00E0FDA3E0FEEA2DFAEB3EFB90F2883D
:0E091D00E0FDA3E0FEA3E0FF74032DFDE43E29
:0E092B00FE8D828E838FF0C002C003122B85DA
:0E093900D003D00290F288E0FDA3E0FEA3E020
:0E094700FF74032DFDE43EFE8D828E838FF043
:0A095500EA12DD83A3EB12DD8390AC
:0E095F00F28DE0FDA3E0FEC3EA9DEB9E503456
:0E096D0090F288E0FAA3E0FBA3E0FD74032AF9
:0E097B00FCE43BFB90E04BE0FEA3E0FFA3E0BA
:0E098900FAC004C003C0058E828F838AF0126C
:0A0997002952158115811581803267
:0E09A10090F288E0FAA3E0FBA3E0FD74032AC5
:0E09AF00FCE43BFB90E048E0FEA3E0FFA3E089
:0E09BD00FAC004C003C0058E828F838AF01238
:0809CB002952158115811581E7
:0709D300120A4CAA828A04FB
:0609DA00EC7003022FF88F
:0109E00022F4
:0E09E100E4C0E0C0E0C0E0E4C0E0E4C0E0C07C
:0C09EF00E0C0E07450C0E0E4C0E074C759
:0B09FB00C0E074E6C0E07480C0E09033
:0E0A060013761203F9AA82E58124F4F581BA71
:0E0A14000112C2AF90F2917401F090F28DE4E5
:060A2200F0A3F0022F809A
:010A280022AB
:0A0A2900C2AF90F291E4F0022FF743
:0E0A3300C0E0C0A8C2AF90F292E02401F0D063
:0B0A4100E053E080E5E042A8D0E02296
:0A0A4C00C010E581F5102406F581C5
:0C0A5600A810087600C0E0C0A8C2AF9055
:090A6200F292E01490F292F0907F
:090A6B00F292E0FB6003020C238F
:0A0A740090F28CE0FB7003020C23EB
:060A7E00A8100808760034
:0A0A840090E04EE0FCE4BC00010429
:040A8E00FCB40100B3
:0E0A9200E433FC603190E05475F00012E2FA9B
:0E0AA000FCA312E2FAFDA312E2FAFE74082C87
:0E0AAE00FCE43DFD8C828D838EF012E2FAFC9A
:0C0ABC00A312E2FAFDA312E2FAFE80068B
:060AC8007C007D007E00B1
:0E0ACE008C078D038E02BC0009BD0006BE0021
:040ADC0003020BE323
:0E0AE00074112FFCE43BFD8A068C828D838E00
:0E0AEE00F0C002C003C007122B85D007D00352
:0E0AFC00D00274032FFCE43BFD8A068C828D31
:0E0B0A00838EF0C002C003C007122B85D007F7
:0E0B1800D003D002741F2FFCE43BFD8A068C34
:0B0B2600828D838EF0A81008080812D2
:0E0B3100E2FAF6C007C003C00290F290E0FAAC
:0C0B3F00A810080808C3EA96E433D002AE
:0C0B4B00D003D007600AA810080808902A
:040B5700F290E6F042
:0C0B5B00E5102404F874032FF6E43B08B6
:0E0B6700F608A6028C828D838EF012E2FA75DB
:0A0B7500F00CA42400FAE434E0FBC5
:0C0B7F007F00C004C005C006E51024047F
:0E0B8B00F8E6C0E008E6C0E008E6C0E08A82B6
:0E0B99008B838FF0122793158115811581D063
:0E0BA70006D005D0048C828D838EF012E2FA07
:0E0BB500FC90F288E0FAA3E0FBA3E0FD741FC1
:0E0BC3002AFAE43BFB8A828B838DF012E2FA61
:090BD100FAC3EC9A5003020A84F5
:090BDA00A81008087601020A8443
:070BE30090F293E0FA601BA1
:0B0BEA0090F293E0FA600E120C709085
:0A0BF500F293E01490F293F080EB0D
:060BFF00A81008087601B1
:090C0500A8100808B601028008DD
:080C0E0090F294E0FABA010D26
:0B0C1600A81008760190F294E4F012A0
:020C21002FF8AA
:0C0C2300D0E053E080E5E042A8D0E0A85B
:080C2F0010088682851081D0B7
:020C3700102289
:0E0C3900C0E0C0A8C2AF90F28DE0FAA3E0FBCD
:0E0C4700D0E053E080E5E042A8D0E08A828B46
:020C55008322F8
:0E0C5700C0E0C0A8C2AF90F28CE0FAD0E0532B
:0B0C6500E080E5E042A8D0E08A822297
:080C7000C01085811005819080
:090C7800F292E0FA6003020E6042
:0D0C810090F28DE02401F0A3E03400F0902B
:0E0C8E00F28DE0FAA3E0FB4A703390E048E0FC
:0E0C9C00FAA3E0FBA3E0FC90E04BE0FDA3E038
:0E0CAA00FEA3E0FF90E048EDF0A3EEF0A3EF14
:0D0CB800F090E04BEAF0A3EBF0A3ECF0901D
:060CC500F295E02401F0AD
:0E0CCB0090E048E0FAA3E0FBA3E0FC8A828BF5
:0C0CD900838CF012E2FAFAE4BA00010485
:040CE500FAB401005C
:0E0CE900E433FA604A90E048E0FAA3E0FBA38F
:0E0CF700E0FC74042AFAE43BFB74022AFAE4DF
:0E0D05003BFB8A828B838CF012E2FAFAA31277
:0E0D1300E2FAFBA312E2FAFC74082AFAE43BAF
:0D0D2100FB8A828B838CF012E2FAFAA31297
:0A0D2E00E2FAFBA312E2FAFC8006D1
:060D38007A007B007C0044
:0E0D3E008A058B068C07BA0009BB0006BC00B4
:040D4C0003020E6A26
:0E0D500074032DFAE43EFB8F048A828B838CA1
:0E0D5E00F012E2FAFAA312E2FAFBC005C00698
:0E0D6C00C00790F28DE0FCA3E0FDC3EC9AED11
:0E0D7A009BE433D007D006D0056003020E6A5A
:0E0D880074032DFAE43EFB8F048A828B838C69
:0E0D9600F0C005C006C007122B85D007D0069E
:0E0DA400D00574112DFAE43EFB8F04C005C08B
:0E0DB20006C007740B2AFDE43BFE8C078D8201
:0E0DC0008E838FF012E2FAFDA312E2FAFEA378
:0E0DCE0012E2FAFFED4E4FD007D006D00560BE
:0E0DDC00158A828B838CF0C005C006C00712FA
:080DEA002B85D007D006D005CF
:0E0DF200741F2DFAE43EFB8F048A828B838CE3
:0C0E0000F0A8100812E2FAF6C005C006C7
:0C0E0C00C00790F290E0FDA81008C3EDB4
:0C0E180096E433D007D006D0056008A88F
:070E2400100890F290E6F0C7
:0E0E2B0074032DFDE43EFE8A828B838CF01250
:0B0E3900E2FA75F00CA42400FAE43487
:0C0E4400E0FB7C00C005C006C0078A82ED
:0E0E50008B838CF0122793158115811581027A
:020E5E000CCBBB
:0A0E600090F293E02401F012511B00
:0A0E6A0090F293E0FA700312511B9E
:060E7400851081D0102260
:0E0E7A0090F292E0FA600790F2947401F02278
:0C0E880090F290E075F00CA42400FAE455
:0B0E940034E0FB8A828B83E0700B903F
:0A0E9F00F290E01490F290F080DF72
:0C0EA90090F290E075F00CA42400FAE434
:080EB50034E0FB0ABA00010B56
:0C0EBD0090F290E075F00CA42400FCE41E
:0C0EC90034E0FD8C828D83A3E0FCA3E0EC
:0E0ED500FDA3E0FE74022CFCE43DFD8C828D3A
:0E0EE300838EF012E2FAFCA312E2FAFDA312D3
:0E0EF100E2FAFE8A828B83ECF0A3EDF0A3EE12
:0C0EFF00F090F290E075F00CA42400FAD2
:0C0F0B00E434E0FB8A828B83A3E0FAA3AD
:0E0F1700E0FBA3E0FC90F290E075F00CA42447
:0A0F250000FDE434E0FE74042DFD2D
:0E0F2F00E43EFE7F00EAB5055FEBB5065BEC25
:0C0F3D00B5075790F290E075F00CA4246A
:0A0F490000FAE434E0FB0ABA0001EC
:010F53000B92
:0C0F540090F290E075F00CA42400FCE486
:0C0F600034E0FD8C828D83A3E0FCA3E054
:0E0F6C00FDA3E0FE74022CFCE43DFD8C828DA2
:0E0F7A00838EF012E2FAFCA312E2FAFDA3123B
:0E0F8800E2FAFE8A828B83ECF0A3EDF0A3EE7A
:010F9600F06A
:0C0F970090F290E075F00CA42400FAE445
:0C0FA30034E0FB8A828B83A3E0FAA3E019
:0E0FAF00FBA3E0FC74082AFAE43BFB8A828B69
:0E0FBD00838CF012E2FAFAA312E2FAFBA312FE
:0E0FCB00E2FAFC90F288EAF0A3EBF0A3ECF05F
:010FD90022F5
:0A0FDA00C010858110AA82AB83AC21
:0E0FE400F090F288E0FDA3E0FEA3E0FF7411A0
:0E0FF2002DFDE43EFEC005C006C0078A828BBE
:0D100000838CF01229521581158115819005
:0E100D00F288E0FAA3E0FBA3E0FC74032AFAE9
:0D101B00E43BFB8A828B838CF0122B8590C6
:0C102800F28DE0FAA3E0FBE51024FCF8D8
:0E103400E62AFA08E63BFB90F288E0FCA3E017
:0E104200FDA3E0FE74032CFCE43DFD8C828DCA
:0D105000838EF0EA12DD83A3EB12DD8390A6
:0E105D00F28DE0FCA3E0FDC3EA9CEB9D503455
:0E106B0090F288E0FAA3E0FBA3E0FC74032AF5
:0E107900FAE43BFB90E04BE0FDA3E0FEA3E0B9
:0E108700FFC002C003C0048D828E838FF01262
:0A1095002952158115811581803262
:0E109F0090F288E0FAA3E0FBA3E0FC74032AC1
:0E10AD00FAE43BFB90E048E0FDA3E0FEA3E088
:0E10BB00FFC002C003C0048D828E838FF0122E
:0810C9002952158115811581E2
:0310D100D010221A
:0A10D400C01085811005810581051B
:0E10DE0081AA82AB83ACF012E2FAFDE4BD0001
:0210EC000104FD
:0410EE00FDB401004C
:0E10F200E433FD603F74042AFAE43BFB740211
:0E1100002AFAE43BFB8A828B838CF012E2FA1F
:0E110E00FAA312E2FAFBA312E2FAFC74082A1A
:0E111C00FAE43BFB8A828B838CF012E2FAFA33
:0C112A00A312E2FAFBA312E2FAFC80061A
:061136007A007B007C0042
:0C113C00A81008A60208A60308A604A834
:0C1148001008741126FDE40836FE08862D
:0E115400078D828E838FF0122B8590F292E031
:0C116200FD7070A81008740326FDE4085E
:0E116E0036FE0886078D828E838FF0122B8549
:0C117C00A81008741F26FDE40836FE08C9
:0D11880086078D828E838FF012E2FAFD90B3
:0D119500F290E0FEC39D500590F290EDF049
:0C11A200A81008740326FEE40836FF08BD
:0C11AE008602ED75F00CA42400FBE43474
:0C11BA00E0FC7D00C006C007C0028B8274
:0E11C6008C838DF01227931581158115818081
:0111D40023F7
:0C11D500A81008741126FAE40836FB0884
:0E11E1008604C002C003C00490E04E75F0000A
:0911EF0012279315811581158169
:0C11F800A81008741F26FAE40836FB0853
:0D12040086048A828B838CF012E2FAFA9045
:0E121100F288E0FBA3E0FCA3E0FD741F2BFBC2
:0E121F00E43CFC8B828C838DF012E2FAFBC360
:09122D00EA9B4005758201800373
:03123600758200BE
:06123900851081D0102297
:0E123F00AA82AB83ACF090F295E0FD8A828B20
:0B124D00838CF012DD830ABA00010B55
:0E12580090F28DE0FDA3E0FE8A828B838CF085
:09126600ED12DD83A3EE02DD832D
:0A126F00C010858110C082C083C04A
:0C127900F0058105810581A8100886821F
:0E1285000886830886F012E2FAFD90F295E0EA
:06129300FEB505028031EA
:0C129900A81008740126FDE40836FE08C9
:0E12A50086078D828E838FF012E2FAFDA3126F
:0E12B300E2FAFE90F28DE0FFA3E0FAC3ED9F99
:0912C100EE9A50057D010213674D
:0C12CA00A81008740126FEE40836FF0896
:0E12D60086028E828F838AF012E2FAFAA31249
:0E12E400E2FAFB90F28DE0FCA3E0FEECC39A70
:0A12F200FCEE9BFEE51024FBF8E57E
:0C12FC00102404F9E6F70809E6F70809D9
:0C130800E6F7E5102404F88682088683CE
:0E1314000886F012E2FAFDA312E2FAFFC3EC23
:0E1322009DEE9F503E90F28DE0FCA3E0FEECAD
:0E133000C39AFAEE9BFBEDC39AFAEF9BFBE526
:0C133E00102404F886820886830886F0DC
:0A134A00EA12DD83A3EB12DD83A895
:0B135400100886820886830886F012CD
:06135F00123F7D00800238
:021365007D0108
:081367008D82851081D0102257
:07136F0090F2947401F022DA
:0513760012154E80FB82
:0A137B00C010858110C082C083C03D
:0C138500F0A81008742C26FDE40836FEC9
:0C1391000886078D828E838FF0E5102403
:0D139D00FCF8E612DD83A308E612DD83A84C
:0C13AA001008742426FDE40836FE0886B6
:0C13B600077408C0E0E4C0E0E51024F972
:0E13C200F8E6C0E008E6C0E008E6C0E08D8274
:0E13D0008E838FF012E22BE58124FBF581A8BD
:0C13DE001008742426FDE40836FE088682
:0E13EA000774072DFDE43EFE8D828E838FF08A
:0C13F800E412DD83E51024F8F8B60400D0
:091404004007E51024F8F8760316
:0C140D00A81008741F26FDE40836FE0835
:0C14190086078D828E838FF0E51024F88A
:0C142500F8E612DD83A81008740326FD11
:0E143100E40836FE0886078D828E838FF01247
:0C143F002772A81008741126FDE408367E
:0E144B00FE0886078D828E838FF0122772A80E
:0C1459001008740326FDE40836FE088627
:0E1465000774082DFDE43EFE8D828E838FF00D
:0B147300A81008E612DD83A308E612B3
:09147E00DD83A308E612DD83A85A
:0C1487001008741126FDE40836FE0886EB
:0C14930007E51024F8F886027B007404C2
:0E149F00C39AFAE49BFB8D828E838FF0EA12D3
:0814AD00DD83A3EB12DD83A82F
:0C14B5001008741126FAE40836FB0886C3
:0E14C1000474082AFAE43BFB8A828B838CF0C9
:0B14CF00A81008E612DD83A308E61257
:0914DA00DD83A308E612DD838521
:0514E3001081D0102271
:0214E8007A0088
:0314EA00BA040041
:0C14ED00501EEA75F00CA42400FBE4344F
:0C14F900E0FC7D008B828C838DF0C00233
:081505001226A0D0020A80DDCD
:0A150D0090E03075F0001226A09067
:09151700E03C75F0001226A090E2
:09152000E04E75F0001226A090C7
:09152900E05A75F0001226A090B2
:07153200E0487430F0A374DF
:0A153900E0F0A37400F090E04B74A2
:0A1543003CF0A374E0F0A37400F084
:01154D00227B
:08154E0090F28BE0FA7001221B
:0D155600120A3390E05AE0FAE4BA000104F2
:0C156300FAC002120A4CD002EA60012219
:0E156F00C0E0C0A8C2AF90E05AE0FAE4BA00B3
:02157D00010467
:04157F00FAB40100B9
:0E158300E433FA603190E06075F00012E2FA95
:0E159100FAA312E2FAFBA312E2FAFC74082A93
:0E159F00FAE43BFB8A828B838CF012E2FAFAAC
:0C15AD00A312E2FAFBA312E2FAFC800693
:0615B9007A007B007C00BB
:0E15BF0074032AFDE43BFE8C078D828E838F21
:0E15CD00F0C002C003C004122B85D004D0036E
:0C15DB00D00290F28CE01490F28CF090A2
:0E15E700F28BE01490F28BF0D0E053E080E540
:0E15F500E042A8D0E08A828B838CF00216E9D7
:0A160300C010858110C082C083056D
:0E160D00810581058190002E12329CAC82ADC9
:0C161B0083AEF0A810080808A60408A67A
:0C1627000508A606A810080808B6000B6D
:0B16330008B6000708B600030216D638
:0C163E00A810080808742026FFE40836F5
:0C164A00FA088603A81008868208868330
:0E165600C002C003C00712329CAC82AD83AE4E
:0E166400F0D007D003D0028F828A838BF0EC87
:0B16720012DD83A3ED12DD83A3EE1256
:0C167D00DD83BC0023BD0020BE001DA8C2
:0C1689001008080886820886830886F096
:0C169500123608A810080808E4F608F651
:0416A10008F6803196
:0E16A5008F828A838BF012E2FAFFA312E2FA20
:0C16B300FAA312E2FAFBA81008E6C0E05F
:0E16BF0008E6C0E074A5C0E08F828A838BF03D
:0916CD0012E1C01581158115819F
:0C16D600A8100808088682088683088691
:0716E200F0851081D01022F9
:0E16E900AA82AB83ACF074202AFDE43BFE8C99
:0D16F700078D828E838FF012E2FAFDA312A0
:0E170400E2FAFEA312E2FAFF8D828E838FF0CE
:0E171200C002C003C004123608D004D003D0B9
:0A172000028A828B838CF0023608E7
:05E6C70049444C450030
:03E73100000000E5
:01E7340000E4
:01E7350000E3
:02E736000000E1
:01E7380000E0
:01E7390000DF
:01E73A0000DE
:01E73B0000DD
:01E73C0000DC
:01E73D0000DB
:01E73E0000DA
:0A172A00C010858110C082E5812403
:0C17340009F581A81008E6700302197F77
:0D17400090002912329CAB82AC83ADF0A862
:0C174D00100808A60308A60408A605A8BA
:0C175900100808B6000B08B6000708B620
:05176500000302197FE2
:0A176A00A81008A91019191986F03B
:0E177400E7A4FEAFF074012EFAE43FFB8A8278
:0E1782008B83C006C00712329CAA82AB83ACD8
:0C179000F0D007D006A8100808868208D8
:0E179C0086830886F0EA12DD83A3EB12DD835C
:0E17AA00A3EC12DD83BA0009BB0006BC0003ED
:0317B800021970A3
:0A17BB00A8100808E5102405F974D1
:0D17C5000326F7E4083609F70809E6F7A83F
:0C17D20010080886820886830886F01242
:0A17DE00E2FAFDA312E2FAFAA312E8
:0C17E800E2FAFBEE2DFEEF3AFF8B04E569
:0C17F400102405F886820886830886F021
:0C180000EE12DD83A3EF12DD83A3EC12D7
:0C180C00DD83A8100808742426FCE40802
:0D18180036FE0886078C828E838FF0E41266
:0C182500DD83A8100808740626FCE40807
:0D18310036FE0886078C828E838FF0ED1244
:0A183E00DD83A3EA12DD83A3EB12A1
:07184800DD83A8100808E58C
:0C184F00102405F9740926F7E408360996
:0C185B00F70809E6F7A8100886047E00D4
:0C186700E5102408F8EC24FFF6EE34FF36
:0C18730008F6A81018181886077C00C0A2
:0C187F0002C003C005C007C004E510242F
:0E188B0008F8868208868312DF36AC82AE83B0
:0E18990015811581D005D003D002EC2DFDEE97
:0C18A7003AFAE5102405F88682088683D2
:0E18B3000886F0ED12DD83A3EA12DD83A3EBBD
:0C18C10012DD83A8100808742526FAE444
:0D18CD000836FB0886048A828B838CF0A805
:0718DA001008E612DD83A8EF
:0C18E100100808742626FAE40836FB08FC
:0C18ED0086048A828B838CF0A8101818E7
:0C18F90018E612DD83A8100808742726EA
:0E190500FAE40836FB0886048A828B838CF095
:0C19130074FF12DD83A810080874282659
:0E191F00FAE40836FB0886048A828B838CF07B
:0C192D0074FF12DD83A8100808740C265B
:0E193900FAE40836FB0886048A828B838CF061
:0C1947001226A0A8100808741826FAE464
:0D1953000836FB0886048A828B838CF01214
:0C19600026A0A8100808868208868308CC
:04196C0086F080156C
:0C197000A810080886820886830886F00C
:03197C0012360818
:06197F0090000075F0006D
:06198500851081D0102244
:0A198B00C010858110C082C083C027
:0C199500F0E5812414F581120A33E510FE
:0E19A1002404FD7E007F408D828E838FF01225
:0C19AF00123FC0E0C0A8C2AFA81008742E
:0E19BB002726FDE40836FE0886078D828E83FF
:0E19C9008FF012E2FAFA0A8D828E838FF0EA16
:0C19D70012DD83A81008742826FAE4082A
:0E19E30036FB0886048A828B838CF012E2FAAF
:0E19F100FD0D8A828B838CF0ED12DD83D0E039
:0C19FF0053E080E5E042A8D0E0A810080A
:0C1A0B00E510240AF9742626F7E40836DA
:0A1A170009F70809E6F7A81008E532
:0C1A210010240DF9740326F7E4083609C0
:0A1A2D00F70809E6F7A81008E51015
:0E1A37002407F9742526F7E4083609F7080994
:021A4500E6F7C2
:0C1A4700A8100886820886830886F0122A
:091A53002658E5827003021B1302
:0B1A5C00E51024F9F8E60846700302CC
:021A67001B134F
:0C1A6900A81008740C26FDE40836FE08E6
:0C1A75008607E51024F9F8E6C0E008E65A
:0E1A8100C0E08D828E838FF0120FDA15811572
:0C1A8F0081C0E0C0A8C2AFA81008868289
:0E1A9B000886830886F012251E120A4CE5828A
:051AA9007003122FF88C
:0C1AAE00120A33C0E0C0A8C2AFA81008A4
:0E1ABA00742726FDE40836FE0886078D828E0E
:0E1AC800838FF012E2FAFA0A8D828E838FF07D
:0C1AD600EA12DD83A81008742826FAE448
:0D1AE2000836FB0886048A828B838CF01284
:0E1AEF00E2FAFD0D8A828B838CF0ED12DD830E
:0E1AFD00D0E053E080E5E042A8D0E0D0E05316
:081B0B00E080E5E042A8D0E013
:0C1B1300C0E0C0A8C2AFA81008742426CF
:0E1B1F00FAE40836FB0886048A828B838CF079
:0C1B2D0012E2FAFDE5102407F886820899
:0E1B390086830886F012E2FAFEC3ED9E40039A
:031B4700021CB3CA
:0C1B4A00E510240AF886820886830886CD
:0C1B5600F012E2FAFDE5102413F8A605D9
:0A1B6200087600A81008E510241012
:0E1B6C00F9740626F7E4083609F70809E6F7CB
:0C1B7A00E5102410F88682088683088697
:0C1B8600F012E2FAFFA312E2FAFDA31233
:0C1B9200E2FAFEC002C003C004E510240B
:0C1B9E0013F8E6C0E008E6C0E0E5102403
:0E1BAA00FBF8E6C0E008E6C0E008E6C0E08F09
:0E1BB800828D838EF012E122E58124FBF581FF
:0D1BC600D004D003D0028A828B838CF012F1
:0E1BD300E2FAFD0D8A828B838CF0ED12DD8329
:0C1BE100E5102410F88682088683088630
:0C1BED00F012E2FAFAA312E2FAFBA312D3
:0C1BF900E2FAFCE510240AF88682088657
:0D1C0500830886F012E2FA2AFAE43BFBE5C0
:0C1C1200102410F886820886830886F0F3
:0C1C1E00EA12DD83A3EB12DD83A3EC12BD
:0C1C2A00DD83E510240DF8868208868317
:0E1C36000886F012E2FAFDA312E2FAFEA312F3
:0E1C4400E2FAFFC3EA9DEB9EEC64808FF06332
:0C1C5200F08095F04034A810088682084D
:0E1C5E0086830886F012E2FAFAA312E2FAFB7D
:0C1C6C00A312E2FAFCE5102410F88682B6
:0D1C78000886830886F0EA12DD83A3EB12D4
:071C8500DD83A3EC12DD83F7
:0C1C8C007A01A81008742826FBE4083632
:0E1C9800FC0886058B828C838DF012E2FAFE2A
:0D1CA6000E8B828C838DF0EE12DD838002A8
:021CB3007A00B5
:0E1CB500D0E053E080E5E042A8D0E0EA703CC9
:0C1CC300E51024F9F8E608466032C00283
:0A1CCF00E51024F9FB7C007D40E5E0
:0C1CD900102404FE7F007A40C003C00409
:0E1CE500C0058E828F838AF012126FAA8215BC
:0C1CF3008115811581EAD00270027AFF91
:061CFF00BAFF03021A47C0
:0C1D0500A8100886820886830886F0C0BB
:0C1D11000212251E120A4CD0028A8285A4
:051D1D001081D010222E
:0A1D2200C010858110C082C083C08C
:0C1D2C00F0E581240CF581A81008742457
:0E1D380026FDE40836FE0886078D828E838F16
:0B1D4600F0E5102404F812E2FAF6A801
:0C1D51001008742526FBE40836FC088608
:0C1D5D00028B828C838AF012E2FAFBE514
:0C1D6900102404F8C3E69B4003021F4B4B
:0A1D7500A81008E5102405F97426F3
:0C1D7F0026F7E4083609F70809E6F7E546
:0C1D8B00102405F886820886830886F084
:0C1D970012E2FAFAE510240BF8A602088C
:0A1DA3007600A81008E5102408F9E6
:0E1DAD00740626F7E4083609F70809E6F7E59C
:0C1DBB00102408F886820886830886F051
:0B1DC70012E2FAFCA312E2FAFAA312E7
:0C1DD200E2FAFBC005C006C007E51024C3
:0C1DDE000BF8E6C0E008E6C0E0E51024C9
:0E1DEA00FBF8E6C0E008E6C0E008E6C0E08CCA
:0E1DF800828A838BF012E122E58124FBF581C3
:0D1E0600D007D006D0058D828E838FF0129C
:0E1E1300E2FAFA0A8D828E838FF0EA12DD83E6
:0C1E2100E5102408F886820886830886F5
:0C1E2D00F012E2FAFAA312E2FAFBA31290
:0C1E3900E2FAFCE5102405F88682088619
:0D1E4500830886F012E2FA2AFAE43BFBE57E
:0C1E5200102408F886820886830886F0B9
:0C1E5E00EA12DD83A3EB12DD83A3EC127B
:0C1E6A00DD83A81008740326FDE4083690
:0E1E7600FE0886078D828E838FF012E2FAFD41
:0E1E8400A312E2FAFEA312E2FAFFC3EA9DEBFC
:0E1E92009EEC64808FF063F08095F04034A8E1
:0B1EA000100886820886830886F01276
:0A1EAB00E2FAFAA312E2FAFBA31216
:0C1EB500E2FAFCE5102408F8868208869A
:0E1EC100830886F0EA12DD83A3EB12DD83A313
:041ECF00EC12DD83B1
:0C1ED300A81008742826FAE40836FB0862
:0E1EDF0086048A828B838CF012E2FAFDBDFF2E
:0A1EED0052E51024FAF8E67055A83B
:0C1EF7001008741826FAE40836FB088670
:0D1F0300048A828B838CF012E2FA603CA805
:0A1F10001008E5102408F9741826E3
:0C1F1A00F7E4083609F70809E6F7E510BF
:0E1F26002408F886820886830886F01210D4FC
:071F3400AE82BE0002801026
:051F3B00758201801217
:0B1F40000D8A828B838CF0ED12DD8394
:071F4B00E51024FAF886827C
:061F5200851081D0102271
:0A1F5800C010858110C082C083C054
:0C1F6200F0E581240FF581120A33E51030
:0E1F6E002404FD7E007F408D828E838FF01252
:0C1F7C00123FC0E0C0A8C2AFA81008745B
:0E1F88002726FDE40836FE0886078D828E832C
:0E1F96008FF012E2FAFA0A8D828E838FF0EA43
:0C1FA40012DD83A81008742826FAE40857
:0E1FB00036FB0886048A828B838CF012E2FADC
:0E1FBE00FD0D8A828B838CF0ED12DD83D0E066
:0C1FCC0053E080E5E042A8D0E0A8100837
:0C1FD800E5102407F9742626F7E408360B
:0A1FE40009F70809E6F7A81008E560
:0C1FEE0010240DF9740326F7E4083609EE
:051FFA00F70809E6F7FD
:0C1FFF00A8100886820886830886F0126D
:09200B002627E58270030220CBB8
:0B201400E51024F9F8E608467003020E
:02201F0020CBD4
:0C202100A81008741826FDE40836FE081C
:0C202D008607E51024F9F8E6C0E008E69C
:0E203900C0E08D828E838FF0120FDA158115B4
:0C20470081C0E0C0A8C2AFA810088682CB
:0E2053000886830886F012251E120A4CE582CC
:052061007003122FF8CE
:0C206600120A33C0E0C0A8C2AFA81008E6
:0E207200742726FDE40836FE0886078D828E50
:0E208000838FF012E2FAFA0A8D828E838FF0BF
:0C208E00EA12DD83A81008742826FAE48A
:0D209A000836FB0886048A828B838CF012C6
:0E20A700E2FAFD0D8A828B838CF0ED12DD8350
:0E20B500D0E053E080E5E042A8D0E0D0E05358
:0820C300E080E5E042A8D0E056
:0C20CB00C0E0C0A8C2AFA8100874242612
:0E20D700FAE40836FB0886048A828B838CF0BC
:0820E50012E2FA70030222432B
:0A20ED00C002C003C004A81008E5FB
:0C20F70010240AF9740926F7E4083609E1
:0C210300F70809E6F7E510240AF88682C8
:0E210F000886830886F012E2FAFAA312E2FABA
:0C211D00FBA312E2FAFCE5102407F88690
:0E212900820886830886F012E2FA2AFAE43B66
:0C213700FBE510240AF886820886830865
:0E21430086F0EA12DD83A3EB12DD83A3EC121B
:0C215100DD83E510240DF88682088683EB
:0E215D000886F012E2FAFDA312E2FAFEA312C7
:0E216B00E2FAFFC3EA9DEB9EEC64808FF06306
:0D217900F08095F0D004D003D0024034A8CF
:0B218600100886820886830886F0128D
:0A219100E2FAFDA312E2FAFEA31227
:0C219B00E2FAFFE510240AF886820886AC
:0E21A700830886F0ED12DD83A3EE12DD83A324
:0421B500EF12DD83C5
:0E21B9008A828B838CF012E2FAFD1D8A828BE3
:0C21C700838CF0ED12DD83E5102407F896
:0E21D30086820886830886F012E2FAFA7B0004
:0C21E100E510240AF88682088683088630
:0C21ED00F012E2FAFCA312E2FAFDA312C9
:0E21F900E2FAFEC002C003C004C005C006E545
:0C2207001024FBF886820886830886F00D
:0C22130012E122E58124FBF581A81008EF
:0E221F00742726FAE40836FB0886048A828BB0
:0E222D00838CF012E2FAFD0D8A828B838CF016
:08223B00ED12DD837A0180023F
:022243007A001F
:0E224500D0E053E080E5E042A8D0E0EA703C33
:0C225300E51024F9F8E608466032C002ED
:0A225F00E51024F9FB7C007D40E54A
:0C226900102404FE7F007A40C003C00473
:0E227500C0058E828F838AF012126FAA821526
:0C2283008115811581EAD00270027AFFFB
:06228F00BAFF03021FFF6D
:0C229500A8100886820886830886F0C026
:0C22A1000212251E120A4CD0028A82850F
:0522AD001081D0102299
:0A22B200C010858110C082C083C0F7
:0C22BC00F0E5812408F581A810087424C6
:0E22C80026FDE40836FE0886078D828E838F81
:0B22D600F0E5102404F812E2FAF6E52F
:0A22E100102404F8E670030224B88C
:0A22EB00C005C006C007A81008E5F2
:0C22F500102405F9740926F7E4083609E6
:0C230100F70809E6F7E5102405F88682CD
:0E230D000886830886F012E2FAFDA312E2FAB7
:0C231B00FEA312E2FAFFA81008742626A8
:0E232700FAE40836FB0886048A828B838CF069
:0A233500E5102408F812E2FAF6E5BC
:0B233F00102408F8E62DFDE43EFEE54A
:0C234A00102405F886820886830886F0BF
:0C235600ED12DD83A3EE12DD83A3EF1275
:0C236200DD83A81008740326FAE4083696
:0E236E00FB0886048A828B838CF012E2FAFA56
:0E237C00A312E2FAFBA312E2FAFCC3ED9AEE02
:0E238A009BEF64808CF063F08095F0D007D05C
:0C23980006D0054034A810088682088694
:0E23A400830886F012E2FAFAA312E2FAFBA313
:0C23B20012E2FAFCE5102405F88682080F
:0E23BE0086830886F0EA12DD83A3EB12DD832E
:0523CC00A3EC12DD830B
:0C23D100E5102404F8E6148D828E838F42
:0C23DD00F012DD83E5102408F886027B76
:0C23E90000E5102405F8868208868308B1
:0D23F50086F012E2FAFCA312E2FAFDA31238
:0E240200E2FAFEC002C003C004C005C006E539
:0C2410001024FBF886820886830886F002
:0C241C0012E122E58124FBF581A81008E4
:0E242800742726FAE40836FB0886048A828BA5
:0C243600838CF012E2FAFDBDFF68E51097
:0E24420024F8F886020886030886048A828B36
:0C245000838CF012E2FA705BA810087494
:0E245C000C26FDE40836FE0886078D828E836E
:0C246A008FF012E2FA6042A81008740C17
:0E24760026FDE40836FE0886078D828E838FD1
:0E248400F0C002C003C0041210D4AE82D00417
:09249200D003D002BE0002801844
:0D249B008A828B838CF0740112DD83800B2C
:0B24A8000D8A828B838CF0ED12DD8327
:0524B3007582018003A9
:0324B8007582002A
:0624BB00851081D0102203
:0E24C100AA82AB83ACF0C0E0C0A8C2AF742406
:0E24CF002AFAE43BFB8A828B838CF012E2FA3D
:0E24DD00FAD0E053E080E5E042A8D0E08A8229
:0124EB0022CE
:0E24EC00AA82AB83ACF012E2FAFDA312E2FA70
:0E24FA00FEA312E2FAFF8D828E838FF0C002E5
:0E250800C003C004123608D004D003D0028AEB
:08251600828B838CF002360871
:0E251E00AA82AB83ACF0C0E0C0A8C2AF7428A4
:0E252C002AFDE43BFE8C078D828E838FF01219
:0E253A00E2FAF8188D828E838FF0E812DD83AE
:0E254800C3747F88F063F08095F050538D824D
:0E2556008E838FF074FF12DD8374182AFDE46B
:0E2564003BFE8C078D828E838FF012E2FA60B0
:0E2572003474182AFDE43BFE8C078D828E83A4
:0E2580008FF0C002C003C0041210D4AD82D090
:0A258E0004D003D002BD0002800F4C
:0E259800C002C003C00412136FD004D003D0E1
:0125A6000232
:0E25A700D0E053E080E5E042A8D0E0C0E0C004
:0E25B500A8C2AF74272AFDE43BFE8C078D827E
:0E25C3008E838FF012E2FAF8188D828E838FCD
:0E25D100F0E812DD83C3747F88F063F080951C
:0E25DF00F050398D828E838FF074FF12DD83F1
:0E25ED00740C2AFDE43BFE8C078D828E838FDA
:0E25FB00F012E2FA601A740C2AFAE43BFB8A32
:0E260900828B838CF01210D4AA82BA00028059
:0126170003BF
:0326180012136F2B
:0C261B00D0E053E080E5E042A8D0E022CF
:0E262700AA82AB83ACF0C0E0C0A8C2AF74249E
:0E2635002AFAE43BFB8A828B838CF012E2FAD5
:06264300FAE4BA000104F4
:0E264900FAD0E053E080E5E042A8D0E08A82BB
:012657002260
:0E265800AA82AB83ACF0C0E0C0A8C2AF74246D
:0E2666002AFDE43BFE8C078D828E838FF012DE
:0E267400E2FAFD74252AFAE43BFB8A828B838E
:0E2682008CF012E2FAFAEDB502047401800148
:01269000E465
:0E269100FDD0E053E080E5E042A8D0E08D826D
:01269F002218
:0A26A000C010858110C082C083C005
:0C26AA00F0058105810581A8100874016D
:0C26B60026FDE40836FE088607A8100880
:0C26C200E5102404F9740426F7E408363F
:0D26CE0009F70809E6F78D828E838FF0E58D
:0C26DB00102404F8E612DD83A308E612C8
:0926E700DD83A308E612DD83E5A2
:0C26F000102404F886820886830886F017
:0C26FC0074FF12DD83A374FF12DD83E580
:0C270800102404F8740226FBE40836FCE0
:0C2714000886058B828C838DF0E5102474
:0E27200004F8E612DD83A308E612DD83A308A9
:0C272E00E612DD83E5102404F874052693
:0E273A00FBE40836FC0886058B828C838DF04C
:0C274800E5102404F8E612DD83A308E687
:0A27540012DD83A308E612DD83A85E
:0C275E00100886820886830886F0E412CA
:06276A00DD83851081D023
:02277000102235
:0E277200AA82AB83ACF0740B2AFAE43BFB8A1C
:0E278000828B838CF0E412DD83A3E412DD83F0
:05278E00A3E402DD835D
:0A279300C010858110C082C083C011
:0B279D00F0E581240CF581A81008E590
:0C27A800102407F9740126F7E408360934
:0C27B400F70809E6F7E5102407F8868214
:0E27C0000886830886F012E2FAFAA312E2FA03
:0C27CE00FBA312E2FAFCE5102404F8A6BC
:0C27DA000208A60308A604E51024FBF882
:0C27E6008602088603088604E510240A19
:0D27F200F874022AF6E43B08F608A604E598
:0C27FF00102404F88605088606088607EA
:0E280B0074022DFDE43EFE8D828E838FF0124E
:0A281900E2FAFDA312E2FAFEA31298
:0C282300E2FAFFE510240AF8868208861D
:0E282F00830886F0ED12DD83A3EE12DD83A395
:0C283D00EF12DD83E510240AF874052A70
:0C284900F6E43B08F608A604E51024079E
:0E285500F886820886830886F012E2FAFDA358
:0A28630012E2FAFEA312E2FAFFE50A
:0C286D0010240AF886820886830886F092
:0C287900ED12DD83A3EE12DD83A3EF124D
:0C288500DD83E5102404F88605088606B3
:0E28910008860774022DFDE43EFE8D828E83C4
:0D289F008FF012E2FAFDA312E2FAFEA3127E
:0E28AC00E2FAFF74052DFDE43EFE8D828E8360
:0E28BA008FF0EA12DD83A3EB12DD83A3EC1294
:0C28C800DD83E5102404F8860508860670
:0E28D40008860774022DFDE43EFE8D828E8381
:0E28E2008FF0EA12DD83A3EB12DD83A3EC126C
:0C28F000DD83E5102407F886820886834B
:0E28FC000886F0EA12DD83A3EB12DD83A3EC65
:0E290A0012DD83740B2AFAE43BFB8A828B8376
:0C2918008CF0A81008E612DD83A308E68E
:0A29240012DD83A308E612DD83A88C
:0B292E00100886820886830886F012DD
:0C293900E2FAFA0AA810088682088683D9
:0B2945000886F0EA12DD83851081D0C7
:02295000102253
:0A295200C010858110C082C083C050
:0C295C00F0E581240BF581E51024FBF868
:0E29680086050886060886078D828E838FF00E
:0A29760012E2FAFAA312E2FAFBE5FE
:0A298000102407F8A60208A603E5DC
:0C298A00102407F8B6FF4908B6FF45C04E
:0C29960005C006C007A81008740426FD48
:0E29A200E40836FE08860774052DFDE43EFEAF
:0E29B0008D828E838FF012E2FAFDA312E2FAFE
:0C29BE00FEA312E2FAFFE5102404F8A6C4
:0E29CA000508A60608A607D007D006D005020D
:0229D8002A6B68
:0A29DA00A81008E5102404F97404A5
:0B29E40026F7E4083609F70809E6F7BB
:0C29EF00E5102404F88602088603088620
:0E29FB000474022AFAE43BFB8A828B838CF080
:0B2A090012E2FAFAA312E2FAFBA31299
:0E2A1400E2FAFC8A828B838CF012E2FAFAA3BB
:0C2A220012E2FAFBE5102407F8C3E69A64
:0C2A2E0008E69B4038E5102404F88602FE
:0E2A3A0008860308860474022AFAE43BFB8A2D
:0E2A4800828B838CF012E2FAFAA312E2FAFB00
:0C2A5600A312E2FAFCE5102404F8A6022A
:092A620008A60308A6040229EFEE
:0C2A6B00E5102409F874022DF6E43E0882
:0C2A7700F608A607E5102404F886020803
:0E2A8300860308860474022AFAE43BFB8A826A
:0E2A91008B838CF012E2FAFAA312E2FAFBA396
:0C2A9F0012E2FAFCE5102409F886820817
:0E2AAB0086830886F0EA12DD83A3EB12DD833A
:0C2AB900A3EC12DD83E5102409F88682EE
:0E2AC5000886830886F012E2FAFAA312E2FAFB
:0E2AD300FBA312E2FAFC74052AFAE43BFB8A2C
:0E2AE100828B838CF0ED12DD83A3EE12DD8379
:0E2AEF00A3EF12DD8374052DFAE43EFB8F0485
:0C2AFD008A828B838CF0E5102404F8E63C
:0D2B090012DD83A308E612DD83A308E612A7
:0C2B1600DD83E5102404F8860208860325
:0E2B220008860474022AFAE43BFB8A828B8345
:0E2B30008CF0ED12DD83A3EE12DD83A3EF1215
:0E2B3E00DD83740B2DFDE43EFE8D828E838FB1
:0C2B4C00F0A81008E612DD83A308E612D2
:092B5800DD83A308E612DD83A869
:0B2B6100100886820886830886F012A8
:0C2B6C00E2FAFA0AA810088682088683A4
:0B2B78000886F0EA12DD83851081D092
:022B830010221E
:0A2B8500C010858110C082C083C01B
:0C2B8F00F0E581240CF581A81008740208
:0E2B9B0026FDE40836FE0886078D828E838FA5
:0C2BA900F012E2FAFAA312E2FAFBA31207
:0C2BB500E2FAFCE510240AF874052AF688
:0B2BC100E43B08F608A604A81008E595
:0C2BCC00102407F9740526F7E408360908
:0C2BD800F70809E6F7E5102407F88682EC
:0E2BE4000886830886F012E2FAFAA312E2FADB
:0C2BF200FBA312E2FAFCE510240AF886AE
:0E2BFE00820886830886F0EA12DD83A3EB12BC
:082C0C00DD83A3EC12DD83E57A
:0C2C1400102407F886820886830886F0EA
:0B2C200012E2FAFAA312E2FAFBA31280
:0E2C2B00E2FAFC74022AFAE43BFB8D828E83EF
:0D2C39008FF012E2FAFDA312E2FAFEA312E0
:0E2C4600E2FAFF8A828B838CF0ED12DD83A30D
:0A2C5400EE12DD83A3EF12DD83A86A
:0C2C5E001008740B26FAE40836FB088608
:0D2C6A00048A828B838CF012E2FAFDA31223
:092C7700E2FAFEA312E2FAFFE505
:0C2C8000102404F8A60508A60608A60704
:0A2C8C00E5102404F8E510240AF90D
:0E2C9600740126F7E4083609F70809E6F7E5A9
:0C2CA40010240AF886820886830886F057
:0B2CB00012E2FAFDA312E2FAFEA312EA
:0C2CBB00E2FAFFA81008E6B5050C08E6D8
:0A2CC700B5060708E6B50702800213
:022CD10080364B
:0C2CD300E5102407F88682088683088636
:0C2CDF00F012E2FAFDA312E2FAFEA312CA
:0C2CEB00E2FAFFE510240AF88682088651
:0E2CF700830886F0ED12DD83A3EE12DD83A3C9
:042D0500EF12DD8369
:0D2D09008A828B838CF0E412DD83A3E41238
:082D1600DD83A3E412DD83E577
:0C2D1E00102404F886820886830886F0E2
:0C2D2A0012E2FAFA1AE5102404F886827E
:0C2D36000886830886F0EA12DD83851011
:042D420081D010220A
:0A2D4600C010858110C082C083C058
:0B2D5000F0058105810581A81008E551
:0C2D5B00102404F9E6F70809E6F708095F
:0B2D6700E6F7A8100806B600020806F8
:0C2D7200E51024FCF886050886067F00AA
:0C2D7E007A008D03A81008868208868366
:0E2D8A000886F0EB12DD83A31818A68208A6B7
:0C2D9800838E058F068A078D03A81008A3
:0E2DA40086820886830886F0EB12DD83A31872
:0C2DB20018A68208A683A81008868208D4
:0E2DBE0086830886F074AA12DD83A31818A677
:0C2DCC008208A683A8100886820886836F
:0E2DD8000886F0748012DD83A31818A6820806
:0C2DE600A683E51024F9F886050886068F
:0C2DF2000886077A008D03A8100886826E
:0E2DFE000886830886F0EB12DD83A31818A662
:0E2E0C008208A6838E058F068A077A008D0342
:0C2E1A00A8100886820886830886F0EB6A
:0E2E260012DD83A31818A68208A6838E058FDE
:0C2E3400068A07A810088682088683081A
:0E2E400086F0ED12DD83A31818A68208A68383
:0C2E4E00A8100886820886830886F074AD
:0D2E5A000212DD83A31818A68208A683A823
:0C2E6700100886820886830886F0740339
:0C2E730012DD83A31818A68208A683A80D
:0C2E7F00100886820886830886F0740420
:0C2E8B0012DD83A31818A68208A683A8F5
:0C2E9700100886820886830886F0740507
:0C2EA30012DD83A31818A68208A683A8DD
:0C2EAF00100886820886830886F07406EE
:0C2EBB0012DD83A31818A68208A683A8C5
:0C2EC700100886820886830886F07407D5
:0C2ED30012DD83A31818A68208A683A8AD
:0C2EDF00100886820886830886F0E41242
:0C2EEB00DD83A31818A68208A683A81097
:0E2EF7000886820886830886F0740112DD8347
:0C2F0500A31818A68208A683A81008864E
:0E2F1100820886830886F0E412DD83A3181878
:0C2F1F00A68208A683A8100886820886F7
:0E2F2B00830886F074BB12DD83A31818A682FB
:0C2F390008A683A810088682088683087A
:0B2F450086F0740112DD83A81008E57F
:0C2F5000102404F9E6C397FA08E609977C
:0C2F5C00E5102404F886820886830886AD
:0C2F6800F0EA12DD83E5102404F88682F4
:0A2F74000886830886F0851081D0DE
:022F7E0010221F
:0E2F800012322D90F288E0FAA3E0FBA3E0FCF1
:0C2F8E008A828B838CF012E2FAF50DA30E
:062F9A0012E2FAF50E75CB
:062FA0000F21850D828562
:052FA6000E83E0F508B8
:072FAB00050DE4B50D020560
:012FB2000E10
:052FB300050FA80F85C9
:092FB8000D82850E83E0FAF61586
:062FC10008E50870E5853B
:0A2FC7000F81D09FD010D0D0D001B0
:0E2FD100D000D007D006D005D004D003D00227
:0E2FDF00D0F0D083D082D0E020E705C2AF0250
:022FED002FF1C2
:022FEF00D2AF5F
:062FF100D0E07582012210
:012FF70022B7
:0E2FF800C0E0C0A8C2AFC082C083C0F0C0025B
:0E300600C003C004C005C006C007C000C00162
:0C301400C0D075D000C010C09F90F288A2
:0E302000E0FAA3E0FBA3E0FC8A828B838CF035
:07302E0012E2FAF50DA312F6
:05303500E2FAF50E7542
:09303A000F22E58124DFF5088571
:063043000D82850E83F0F2
:08304900E5086019050DE4B56E
:043051000D02050E59
:07305500850D82850E83A8A2
:07305C000FE6FAF0050F1565
:033063000880E3FF
:0E306600120E7A90F288E0FAA3E0FBA3E0FCE1
:0C3074008A828B838CF012E2FAF50DA327
:0630800012E2FAF50E75E4
:063086000F21850D82857B
:05308C000E83E0F508D1
:07309100050DE4B50D020579
:013098000E29
:05309900050FA80F85E2
:09309E000D82850E83E0FAF6159F
:0630A70008E50870E58554
:0A30AD000F81D09FD010D0D0D001C9
:0E30B700D000D007D006D005D004D003D00240
:0E30C500D0F0D083D082D0E020E705C2AF0269
:0230D30030D7F4
:0230D500D2AF78
:0230D700D0E047
:0E30D900C2AFC0E0C0A8C2AFC082C083C0F0CA
:0E30E700C002C003C004C005C006C007C00080
:0C30F500C001C0D075D000C010C09F907A
:0E310100F288E0FAA3E0FBA3E0FC8A828B8355
:09310F008CF012E2FAF50DA31296
:05311800E2FAF50E755E
:09311D000F22E58124DFF508858D
:063126000D82850E83F00E
:08312C00E5086019050DE4B58A
:043134000D02050E75
:07313800850D82850E83A8BE
:07313F000FE6FAF0050F1581
:033146000880E31B
:07314900859509750A007568
:0A3150000B00750C00AA967B007CB2
:0B315A00008C058B048A03E42509F5B6
:0531650009EB350AF53D
:05316A000AEC350BF535
:05316F000BED350CF52D
:0C3174000CAA977B008B058A04E4FB2565
:0531800009F509EB3523
:053185000AF50AEC351B
:05318A000BF50BED3513
:06318F000CF50C7447254D
:0631950009F50974013583
:05319B000AF50AE4350D
:0531A0000BF50BE43506
:0431A5000CF50C8594
:0631A9000B97850A9685D4
:0631AF000995120C7012DC
:0E31B5000E7A53C07F90F288E0FAA3E0FBA3ED
:0C31C300E0FC8A828B838CF012E2FAF5AB
:0631CF000DA312E2FAF567
:0531D5000E750F2185BD
:0731DA000D82850E83E0F574
:0131E10008E5
:0731E200050DE4B50D020527
:0131E9000ED7
:0531EA00050FA80F8590
:0931EF000D82850E83E0FAF6154D
:0631F80008E50870E58502
:0A31FE000F81D09FD010D0D0D00177
:0E320800D000D007D006D005D004D003D002ED
:0E321600D0F0D083D082D0E020E705C2AF0216
:0232240032284E
:02322600D2AF25
:05322800D0E0D2AF323E
:0A322D0075C6B8859509750A00758D
:0A3237000B00750C00AA967B007CCA
:0B324100008C058B048A03E42509F5CE
:05324C0009EB350AF555
:053251000AEC350BF54D
:053256000BED350CF545
:0C325B000CAA977B008B058A04E4FB257D
:0532670009F509EB353B
:05326C000AF50AEC3533
:053271000BF50BED352B
:063276000CF50C74472565
:06327C0009F5097401359B
:053282000AF50AE43525
:053287000BF50BE4351E
:04328C000CF50C85AC
:063290000B97850A9685EC
:06329600099543A8202267
:0500E90090EE21E4F09F
:0A329C00C010858110C082C083E5D8
:0C32A60081241AF581E5102411F8E4F6EB
:0E32B20008F608F6120A3390EE21E0FF704A8B
:0832C00090EE17746BF0A3748B
:0C32C800E0F0A3E4F090EE1AF0A3F09008
:0E32D400EE1F74ACF0A3740DF090EE1CE4F04D
:0D32E200A3F0A3F090E06E75F00074AC1244
:0932EF00DD83A3740D12DD839050
:0732F800E06B741CF0A374ED
:0B32FF00EEF0A3E4F090EE217401F06B
:0C330A00A81008E60846601490E6CCE429
:0C33160093FF740193FCA81008EF26F64A
:04332200EC0836F687
:0B332600A81008E6084670030235F20C
:0C333100A81008C3E694AC08E6940D4018
:04333D00030235F260
:09334100E5102406F87617087661
:0C334A00EE08760090EE17E0FAA3E0FB1E
:0C335600A3E0FFA810080808A60208A6C3
:043362000308A607AF
:0C336600A810080808740326FCE40836D0
:0E337200FD0886068C828D838EF012E2FAFC36
:0C338000A312E2FAFDA81008C3EC96EDC1
:0C338C0008965047A81008080886820820
:0E33980086830886F012E2FAFCA312E2FAFB2A
:0C33A600A312E2FAFAEC4B4A6027A810D0
:0C33B200080808E5102406F9E6F70809F1
:0C33BE00E6F70809E6F78B058A06A81060
:0D33CA00080808A60408A60508A606808FBE
:0A33D700A810080808E6B41C0D0851
:0C33E100E6B4EE0808E6B400030235F282
:0C33ED00E5102406F88682088683088616
:0C33F900F012E2FAFAA312E2FAFBA312AF
:07340500E2FAFC90E6CCE5C1
:0C340C00102414F8E493F674019308F601
:0C341800E5102414F8E62AFA08E63BFB55
:0C342400E5102411F8A60208A60308A673
:0C34300004A8100808088682088683089B
:0D343C0086F012E2FAFFA312E2FAFCA312DE
:0C344900E2FAFDE5102406F886820886F1
:0E345500830886F0EF12DD83A3EC12DD83A363
:0C346300ED12DD83A81008080874032691
:0E346F00FCE40836FD0886068C828D838EF004
:0B347D00E510240EF812E2FAF6A3128C
:0A348800E2FA08F6E510240EF8A998
:0C3492001009E6C397C0E008E60997C0E7
:0C349E00E0E5102417F8D0E0F618D0E0AC
:0C34AA00F6E5102414F8860308E6CB2594
:0C34B600E0CB33FAE5102416F8C3EB96C7
:0834C200EA089640030235F20E
:0A34CA00A810080808A91009E72659
:0C34D400FA09E70836FB088607E510241B
:0C34E00009F8A60208A60308A607E510DC
:0C34EC002409F8E5102418F9740326F7F1
:0C34F800E4083609F70809E6F7E510249F
:0C3504000EF8A91009E6C397FA08E609C2
:0C35100097FBE5102418F88682088683DB
:0E351C000886F0EA12DD83A3EB12DD838C82B9
:0C352A008D838EF0A81008E612DD83A34C
:0C35360008E612DD83E510240CF8A60264
:0935420008A6037C177DEE7E0053
:0C354B008C828D838EF0E5102418F8129D
:0B355700E2FAF6A312E2FA08F6A31253
:0C356200E2FA08F6C004C005C006E5103F
:0E356E002418F8740326FCE40836FD088606CF
:0E357C008C828D838EF012E2FAFCA312E2FA2A
:0C358A00FDE510240CF8C3EC96ED08964B
:0C359600E433D006D005D0046015E51029
:0E35A2002418F886020886030886078A048B20
:0535B000058F06809666
:0C35B500E5102409F88682088683088649
:0C35C100F0E5102418F9E712DD83A309DF
:0E35CD00E712DD83A309E712DD838C828D8374
:0C35DB008EF0E5102409F8E612DD83A351
:0B35E70008E612DD83A308E612DD8376
:0C35F200120A4CE5102411F886820886AD
:0A35FE00830886F0851081D01022AA
:0A360800C010E581F5102408F581DB
:0E361200AA82AB83ACF0EA4B4C700302371770
:0E36200090E6CCE493FD740193FEEAC39DFA9C
:0C362E00EB9EFBA81008A60208A60308EB
:0E363A00A604C002C003C004120A33D004D09C
:0E36480003D00274032AFAE43BFB8A828B83D0
:0C3656008CF012E2FAFAA312E2FAFBE593
:0A366200102404F8A60208A6037C59
:05366C00177DEE7E0059
:0C3671008C828D838EF0E5102406F81288
:0B367D00E2FAF6A312E2FA08F6A3122C
:0C368800E2FA08F6C004C005C006E51018
:0E3694002406F8740326FCE40836FD088606BA
:0E36A2008C828D838EF012E2FAFCA312E2FA03
:0C36B000FDE5102404F8C3EC96ED08962C
:0C36BC00E433D006D005D0046015E51002
:0E36C8002406F886020886030886078A048B0B
:0536D600058F0680963F
:0C36DB00A8100886820886830886F0E5A7
:0C36E700102406F9E712DD83A309E712A6
:0E36F300DD83A309E712DD838C828D838EF0C8
:0B370100A81008E612DD83A308E61202
:09370C00DD83A308E612DD83123F
:023715000A4C5C
:06371700851081D0102294
:02E6CC00050047
:0E371D0043C68053C6BEC291D292D29343FEE1
:08372B000E1239CF7582012254
:08373300E582FA6003C2932253
:03373B00D2932204
:08373E00E582FA6003D291223A
:03374600C291220B
:08374900E582FA6003D292222E
:03375100C29222FF
:0A375400C010858110AA82AB83AC7F
:0E375E00F0C2AF8A828B83E8C0E0EAC0E0E5EB
:0C376C00C7C0E0E51024F9F8E6FA08E612
:0E377800F58408E64480F58508E61813E6138C
:08378600030354304401F5C7B0
:0E378E00759201E493A3759200F0A3DAF3D0D4
:0E379C00E0F5C7D0E0FAD0E0F8D2AF8A828B19
:0B37AA00838CF012E2FAF584D01022AC
:0837B500AA82AB837C007D00B9
:0E37BD00C3EC9AED9B5008000CBC00F40D808C
:0137CB00F10C
:0137CC0022DA
:0837CD00AA82AB837C007D00A1
:0E37D500C3EC9AED9B501D9003E8C002C003A8
:0E37E300C004C0051237B5D005D004D003D005
:0837F100020CBC00DF0D80DCBE
:0137F90022AD
:0937FA00AA82AB838595BC7C001A
:03380300BC040002
:0E3806005030C002C003ADBD8D067D00AFBCCA
:0E3814007A00EF2DFDEA3EFE90F296E0FAA358
:0E382200E0FB90F296ED2AF0EE3BA3F08595C8
:08383000BC0CD003D00280CBD8
:0E38380090F296E0FCA3E0FDC002C0038C827B
:0E3846008D8312DF36158115817C007D008C8C
:08385400028D038A828B83229E
:02E73F00FACB13
:0E385C00AA82AB83ACF012E2FAFDBD0102803D
:01386A002B32
:05386B00BD0202800314
:03387000BD032372
:0C387300740DC0E0E4C0E07498C0E07484
:0C387F00F2C0E0E4C0E08A828B838CF091
:0B388B0012E122E58124FBF581802181
:0C389600740DC0E0E4C0E074A5C0E07454
:0C38A200F2C0E0E4C0E08A828B838CF06E
:0938AE0012E122E58124FBF58101
:0438B70075820122F3
:0E38BB00AA82AB83ACF012E2FAFDBD010280DE
:0138C90025D9
:0538CA00BD02028003B5
:0338CF00BD031D19
:0E38D200740DC0E0E4C0E0C002C003C004906A
:0E38E000F29875F00012E122E58124FBF581DB
:0138EE0022B7
:0E38EF00740DC0E0E4C0E0C002C003C004904D
:0E38FD00F2A575F00012E122E58124FBF581B1
:01390B002299
:0DE7410000000000000000000000000000CB
:0DE74E0000000000000000000000000000BE
:0E390C00AA8275CB0075CC008ACDD2BB75CBDC
:05391A00BE75820022D1
:04391F0075CB002242
:0E392300AA8275EB0075EC008AEDD2BC75EB44
:05393100BE75820022BA
:0439360075EB00220B
:04393A0075E40032FE
:07393E0053C3DF75C3003223
:0C394500C020C0E0C0F0C082C083C002FF
:0E395100C003C004C005C006C007C000C0010E
:0E395F00C0D075D00075D83875CB001246DE8A
:0E396D00D0D0D001D000D007D006D005D004B5
:0D397B00D003D002D083D082D0F0D0E0D0B5
:023988002032EB
:0C398A00C020C0E0C0F0C082C083C002BA
:0E399600C003C004C005C006C007C000C001C9
:0E39A400C0D075D00075D80775EB0012AFE9E2
:0E39B200D0D0D001D000D007D006D005D00470
:0D39C000D003D002D083D082D0F0D0E0D070
:0239CD002032A6
:0E39CF007420C0E0E4C0E0E4C0E090EE227599
:0E39DD00F00012E1C01581158115817A007B82
:0139EB0000DB
:0E39EC00C3EA9404EB9400501E8A04EBCC2531
:0B39FA00E0CC33FDEC2442F582ED34FC
:0C3A0500EEF583E4F0A3F00ABA00DC0B3D
:023A110080D95A
:0A3A13007A227BEE8BD38AD2D2B860
:013A1D002286
:0C3A1E00C020C0E0C0F0C082C083C00225
:0E3A2A00C003C004C005C006C007C000C00134
:0E3A3800C0D075D000740155D1FA600653D18C
:043A4600FE124376B3
:0E3A4A00C2C0D0D0D001D000D007D006D00529
:0E3A5800D004D003D002D083D082D0F0D0E0D2
:033A6600D020323B
:053A6900AA82BAE00092
:073A6E00403DBAE2028008AE
:053A7500BAE30280032A
:033A7A00BAE52D7D
:0E3A7D0090DF53E0FBA3E08AE1900001C0035C
:0E3A8B001237B5D00390DF53E0FCA3E0FD7EC0
:0A3A990000EBB50405EEB5050122AF
:073AA30075E1E675E1E62282
:033AAA008AE1228C
:0C3AAD00BADE1053E9FD75E1DF75E1FEA3
:073AB900E5E920E10480F9BA
:023AC0008AE199
:013AC20022E1
:053AC300AA82BA0B000D
:073AC8004005EA24E550046B
:043ACF007582FF22DB
:0E3AD3008A037C00EB24F5FBEC34FFFCC00200
:0E3AE100C003C00490000512DF36AD82AE8334
:0E3AEF0015811581D0028D038E0474652BFBAA
:0E3AFD0074013CFC4304408C057E0090DF10F9
:0E3B0B00EDF0A3EEF090DF11EBF0A3E4F08AF2
:023B1900822206
:0B3B1B00E582FA249B50047582FF2213
:0E3B2600EA75F01FA4FBACF0C0027464C0E0AE
:0E3B3400E4C0E08B828C8312DD31AD82AE8363
:0E3B420015811581D0028D038E0474602BFB5B
:0E3B500074A13CFC8C057E0090DF0AEDF0A312
:0E3B5E00EEF090DF0BEBF0A3E4F090EE4AEAFD
:043B6C00F08A822237
:0E3B700090EE4BE0FA20E73590DF4F7414F032
:0E3B7E00E4A3F090EE4B74804AF090DF17E065
:0E3B8C00FAA3E0FB90DF1774F75AF0A3EBF0FA
:083B9A00E5E930E7FB53BEFB37
:0B3BA200E5BE30E6FB7582E2123A69D6
:0C3BAD0053D1FED2B875D60175820122FA
:0D3BB9007582FF123A6975D6817582E5129A
:0E3BC6003A6990DF17E0FAA3E0FB90DF177476
:0E3BD400084AF0A3EBF090EE4BE4F07582018E
:013BE20022C0
:073BE30075D68175820122F5
:0B3BEA0090F2B2E0FA60047582012244
:0E3BF50090DF17E0FAA3E0FB90DF1774F75A99
:043C0300F0A3EBF04F
:0E3C070090DF17E0FAA3E05302107B00BA0131
:063C150005BB000280EC7B
:083C1B00E5E930E7FB53BEFBB5
:0E3C2300E5BE30E6FB90EE4BE4F090EE4EF086
:0E3C310090DF547401F0E4A3F090DF02740AF7
:0E3C3F00F0E4A3F090DF0374F2F0E4A3F09041
:0E3C4D00DF047430F0E4A3F090DF05E4F0A390
:0D3C5B00F090DF60E0FAA3E08A037A0090A9
:0E3C6800DF61E0FCA3E0FD90EE4CEC2AF0EDF5
:0D3C76003BA3F0758212123AC375826412EE
:0C3C83003B1B7582E7123A697582E6125D
:093C8F003A697AD97BDF7D4F7E92
:0C3C9800EE8ED58DD48A058B068E079029
:0A3CA400EE4FEFF090EE50EDF07AD5
:063CAE00577BEE8B049031
:0A3CB400EE51ECF090EE52EAF090B1
:0C3CBE00EE537420F090EE547483F090EC
:0E3CCA00EE557453F090EE56741FF075917025
:0E3CD80053E98F539BFC439A01D2A8123B7014
:0A3CE60090F2B27401F07582012221
:0A3CF000C0108581100581058105D3
:0E3CFA0081AA82AB83ACF012E2FAFDBD01029A
:023D0800805ADF
:063D0A00BD0203023DEAC8
:063D1000BD0303023DA407
:053D1600BD0402800362
:033D1B00023E1C49
:0E3D1E0074012AFDE43BFE8C07C002C003C006
:0E3D2C000474082DFAE43EFB8F048A828B8318
:0E3D3A008CF012E2FA90DF4BF0A3E4F0740973
:0E3D48002DFDE43EFE8D828E838FF012E2FA96
:0E3D5600FD90DF4CF0A3E4F0D004D003D002C7
:0C3D6400A8100874012AF6E43B08F608D9
:083D7000A6047A437BDF7C000E
:033D7800BC080084
:053D7B004003023E1CA4
:0C3D8000A81008EC26FEE40836FF0886B8
:0E3D8C00058E828F838DF012E2FAFE8A828B02
:0A3D9A0083F0A3AA82AB830C80D44F
:0E3DA40074012AFDE43BFE8C07C002C003C080
:0E3DB2000474022DFAE43EFB8F048A828B8398
:0E3DC0008CF012E2FA90DF4BF0A3E4F07403F3
:0E3DCE002DFDE43EFE8D828E838FF012E2FA10
:0E3DDC00FD90DF4CF0A3E4F0D004D003D00241
:053DEA000ABA00010B04
:0D3DEF008A058B068C078D828E838FF01263
:0E3DFC00E2FAFD90DF4DF0A3E4F00ABA0001F8
:013E0A000BAC
:0E3E0B008A828B838CF012E2FAFA90DF4EF07E
:033E1900A3E4F02F
:063E1C00851081D0102288
:0C3E2200AA8290EE4EE4F0BA0102803B50
:053E2E00BA0202800A47
:053E3300BA0302800B40
:053E3800BA047A80527B
:063E3D0090EE4E7401F04E
:0E3E430090DF02E0FAA3E0FB90DF0274104A69
:0D3E5100F0A3EBF090DF03E0FAA3E0FB909C
:0B3E5E00DF0374EF5AF0A3EBF080705C
:0E3E690090DF02E0FAA3E0FB90DF0274184A3B
:0D3E7700F0A3EBF090DF03E0FAA3E0FB9076
:0B3E8400DF0374104AF0A3EBF0804A4B
:0E3E8F0090DF02E0FAA3E0FB90DF0274084A25
:0D3E9D00F0A3EBF090DF03E0FAA3E0FB9050
:0B3EAA00DF0374104AF0A3EBF080244B
:0E3EB50090DF02E0FAA3E0FB90DF0274E75A10
:0D3EC300F0A3EBF090DF03E0FAA3E0FB902A
:093ED000DF0374EF5AF0A3EBF0DC
:043ED90075820122CB
:0E3EDD007A007B007582E2C002C003123A69CF
:0E3EEB009000101237B59000101237B5D003BA
:043EF900D0027C086F
:0E3EFD0090DF07E0FDA3E0ED24D3FD3395E058
:0E3F0B00FEED2AFAEE3BFB900010C002C00350
:0E3F1900C0041237B5D004D003D002DCD77438
:0E3F270008C0E0E4C0E08A828B8312E5FDACA6
:0E3F350082AD83158115818C028D038A822254
:0A3F4300C0108581107A017582E23A
:0E3F4D00C002123A699000101237B5900010B1
:0D3F5B001237B59000101237B5900010120B
:0C3F680037B5D002A810181818B60002D7
:023F7400804D7E
:0C3F7600A810181818B6015390DF62E084
:0C3F8200FBA3E0FCEB30E0357B017C0091
:053F8E00BB0002803EB3
:073F9300EC24FE50027B004C
:0E3F9A009000FAC002C003C0041237B5D00474
:0E3FA800D003D00290DF62E0FDA3E0FEED202A
:063FB600E0047B007A002C
:033FBC000C80CFA7
:043FBF007A00800EF6
:0E3FC30090DF62E0FBA3E0FCEB20E0027A005E
:053FD1008A82D01022DD
:0B3FD600E582FA60067582E9023A6994
:063FE1007582E8023A6956
:0A3FE700C010858110C082C083C0A5
:0C3FF100F0E581240CF581E5102404F8B3
:0C3FFD007601A81008742226FEE40836A5
:0E400900FF0886058E828F838DF012E2FAFE8C
:09401700A312E2FAFFA81008E56B
:0C40200010240AF9742026F7E408360981
:0C402C00F70809E6F7E510240AF8868280
:0E4038000886830886F012E2FAFDA312E2FA6F
:0C404600FAEEC39DFEEF9AFFE510240582
:0E405200F8A60608A60790EE4BE0FC30E60646
:064060007582000241B56B
:07406600EC20E703123B70A0
:0C406D00E5102405F8C3748096748008E8
:0D40790086F063F08095F0E433FC600302F4
:02408600419C5B
:0C408800C004A81008742C26FDE40836C3
:0C409400FE088607E510240AF886820862
:0E40A00086830886F012E2FAFCA312E2FAFA16
:0C40AE00EC2DFDEA3EFEE5102407F8A60C
:0D40BA000508A60608A6077582E7C00412D7
:0C40C7003A69D004E5102405F886027464
:0C40D300022AF5D9D004E5102407F88675
:0940DF00020886030886057E0034
:0C40E800C0048E077C00E5102405F8C31E
:0E40F400EF96EC64800886F063F08095F0E4AF
:0E41020033D00460138A828B838DF012E2FAB0
:0A411000F5D9A3AA82AB830E80CE7E
:0E411A0075D90075D900C004E4C0E0758200BC
:0E412800123F43AA821581D004EA7005758209
:0341360002807C88
:0E41390053E9BF7582E4C004123A69D0047ADB
:014147000077
:0E41480090DF62E0FBA3E0FDEB20E4328A038F
:044156000ABBC800D8
:0E415A00502A90DF62E0A3E0E4FBFD4B600E14
:0E4168007582E2C004123A69D0047AC880D28F
:0E41760090000AC002C0041237B5D004D00277
:0241840080C2F7
:03418600BAC800B4
:0B4189004009E5102404F876008008CF
:0841940090EE4BE0FA4460F0EC
:0C419C00E5102404F8B6010AEC6007E509
:0641A800102404F876006B
:0741AE00E5102404F88682ED
:0641B500851081D01022EC
:0A41BB00C010E581F5102404F58121
:0D41C500AA82AB83ACF0C002C003C004129C
:0E41D200385CD004D003D0028A828B838CF03C
:0841E00012E2FA600302436DD4
:0E41E800C002C003C0047408C0E074F8C0E058
:0E41F60074FFC0E07401C0E0E4C0E090EEE1B0
:0E42040075F000123754E58124FBF581D004DB
:0E421200D003D00274012AFDE43BFE8C07A805
:04422000100876000C
:06422400A81008B6080016
:0C422A005045C002C003C004A810087476
:0C42360007C396A81008082DF6E43E0807
:0A424200F608A607A81008E624E11C
:0A424C00F582E434EEF583E0FCA8EF
:0C42560010080886820886830886F0ECB9
:0C42620012DD83A8100806D004D003D0A1
:03426E000280B318
:0E4271008A828B838CF0740112DD832AFDE4B7
:0E427F003BFE8C07C002C003C0047401C0E007
:0E428D008D828E838FF0127BD2AD821581D090
:0A429B0004D003D002BD010280032D
:0342A5000243646D
:0E42A80090E6CEC002C003C004124837D00416
:0E42B600D003D00274012AFDE43BFE8C07C049
:0E42C40002C003C0048D028E038F048A828B19
:0E42D200838CF0E412DD8374012DFAE43EFBD0
:0E42E0008F048A828B838CF0E412DD837402DB
:0E42EE002DFAE43EFB8F048A828B838CF0E471
:0E42FC0012DD8374032DFAE43EFB8F048A82E8
:0E430A008B838CF0E412DD8374042DFAE43E04
:0E431800FB8F048A828B838CF0E412DD8374A9
:0E432600052DFAE43EFB8F048A828B838CF017
:0E433400E412DD8374062DFAE43EFB8F048A4A
:0E434200828B838CF0744412DD8374072DFD92
:0E435000E43EFE8D828E838FF0744412DD8376
:06435E00D004D003D002E0
:094364008A828B838CF01238BBB5
:09436D00758201851081D0102237
:0A437600C010E581F5102417F58151
:0A438000A810087600A810080876BF
:08438A00570876EE087600E505
:0C439200102406F8E4F608F608F675D6CC
:0C439E0081A81008088682088683088623
:0E43AA00F012E2FAFDA31818A68208A683E519
:0A43B800102405F8A605E510240501
:0C43C200F8E6247C5007E5102405F8768E
:0143CE00836B
:0843CF00E5102405F8B6020018
:0943D7004007E5102405F8161654
:0843E000E5102405F8B6030006
:0543E8005003024677BE
:0A43ED00AE100E7F007A40E51024A8
:0C43F70006FBE510240CF8A60308760075
:0E44030008764090F084E0FBA3E0FCA3E0FD0F
:0C441100C006C007C002E510240CF8E64D
:0E441D00C0E008E6C0E008E6C0E08B828C83B9
:0E442B008DF01222B2AA82E58124FAF581E416
:04443900BA010104BF
:05443D00700302467748
:0C444200E5102406F886050886060886AA
:0C444E0007742C2DFAE43EFB8F04E510EF
:0E445A002409F8A60208A60308A60474262D5D
:0E446800FAE43EFB8F048A828B838CF0E41210
:0E447600DD838D828E838FF0E412DD83A3E45C
:0E44840012DD83A3E412DD8374202DFAE43EE2
:0E449200FB8F048A828B838CF0E412DD83A3FF
:0E44A000E412DD83741F2DFDE43EFE8D828E3E
:0C44AE00838FF0E412DD83A8100808E5FD
:0C44BA0010240FF9E6F70809E6F70809DE
:0C44C600E6F7E5102409F88602088603DA
:0544D2000886047E00D5
:0B44D700E5102405F8C3EE96502BE51D
:0C44E20010240FF886820886830886F0FC
:0E44EE0012E2FAFDA31818A68208A6838A829D
:0E44FC008B838CF0ED12DD83A3AA82AB830EBE
:02450A0080CB64
:0C450C00E5102406F886020886030886E5
:0C45180004E5102412F874262AF6E43B97
:0B45240008F608A604E5102412F8E5D4
:0C452F00102415F9740126F7E408360981
:0C453B00F70809E6F7E510240FF8868267
:0C4547000886830886F012E2FAFDE510F9
:0C455300240FF8A9100909740126F7E4F0
:0D455F00083609F70809E6F7ED24D3FDE55D
:0C456C00102415F886820886830886F06B
:0C457800ED12DD83E5102412F874022619
:0C458400FDE40836FE088607A8100808B1
:0C45900086820886830886F0E51024155A
:0C459C00F912E2FAF78D828E838FF0E5B1
:0945A800102415F8E612DD83E58C
:0C45B100102412F874222AF6E43B08F6ED
:0C45BD0008A604E5102405F886027B0027
:0C45C900E5102412F8868208868308861C
:0B45D500F0EA12DD83A3EB12DD83E5AA
:0C45E000102415F8747F568D828E838F96
:0E45EC00F012DD8390EE4BE044C0F0758209C2
:0C45FA0012390CA810080886820886837D
:0C4606000886F012E2FAFA30E715E51021
:0E4612002406F886820886830886F012AD69B9
:0546200012AD2D8052D7
:0C462500E5102406F886020886030886CB
:0E4631000474222AFAE43BFB8A828B838CF00D
:0A463F00E412DD83A3E412DD83E53D
:0C464900102406FA7B007C4090F084E016
:0C465500FDA3E0FEA3E0FFA81008E6C0F3
:0E466100E0C002C003C0048D828E838FF01271
:08466F001D22E58124FCF58108
:0E467700C2AF90DF53E0FAA3E07B00BA00056B
:05468500BB00028048AB
:0E468A0090DF62E0FAA3E053020C7B00BA045A
:0E46980031BB002E75D68190DF62E0A3E0E416
:0E46A600FAFB4A60147582E5123A697582E6E5
:0B46B400123A697582E2123A69800632
:0646BF007582E6123A6963
:0546C50075D601800B19
:0846CA0075D60175D7018003CC
:0346D20075D60199
:0846D500D2AF851081D0102244
:0146DD0022BA
:0846DE0090EE4BE054BFF02206
:0C46E600C020C0E0C0F0C082C083C00251
:0E46F200C003C004C005C006C007C000C00160
:0E470000C0D075D000C2AFE5E930E62253E923
:0E470E00BF90EE4BE0FA30E51490EE4B744095
:0D471C004AF090EE4BE06420F0758225120B
:02472900390C49
:03472B0075D6013F
:0E472E00E5E930E44F90DF62E0FAA3E0FBEA39
:0E473C0020E44090DF53E0FAA3E0FBEA247F84
:0E474A00502075D6817582E5123A697582E6B7
:0D475800123A697582E6123A697582E21222
:074765003A6975D6018013CB
:08476C00EA24FE500E75D6810F
:08477400EA6005E5D91A80F89E
:03477C0075D601EE
:03477F0053E9EF0C
:0E478200E5E930E52653E9DF90DF62E0FAA3B7
:0E479000E0FBEA30E317E5D620E00375D60122
:0E479E0090DF62E0FAA3E0FBEA20E10375D7AA
:0147AC00010B
:0E47AD00539BFC759170D2AFD0D0D001D000DC
:0E47BB00D007D006D005D004D003D002D083A2
:0947C900D082D0F0D0E0D0203203
:0C47D200C020C0E0C0F0C082C083C00264
:0E47DE00C003C004C005C006C007C000C00173
:0E47EC00C0D075D000C28975D6817582E512E5
:0C47FA003A697582E6123A697582E6128F
:0E4806003A697582E2123A6975D601D0D0D0B7
:0E48140001D000D007D006D005D004D003D0CC
:0C48220002D083D082D0F0D0E0D0203251
:0EE6CE004E6F206164647265737320696E2064
:08E6DC00666C6173682E0A00F0
:01E75B0000BD
:03482E00024CA396
:03483100024D1322
:03483400024DBC76
:08483700AA82AB837C007D0026
:0E483F008A828B83E493FE60278E82C002C0C3
:0E484D0003C004C005124834AE82D005D0046A
:0A485B00D003D002BEFF038C8222BE
:054865000ABA00010B7E
:05486A000D8D0480D05B
:03486F008C822216
:0A487200C010858110058105810545
:0A487C00817A287BEF7C008A828B92
:0C488600838CF0E412DD831ABAFF011BE2
:0A489200A810181818B610028003D1
:03489C000249319D
:0C489F00E51024FBF8740F56FD7E00EDC0
:0A48AB0024E4F582EE34E6F583E420
:0E48B50093FD8A828B838CF012DD831ABAFF8A
:0248C300011BD7
:0C48C500E51024FBF808E618C4C6C45433
:0D48D1000F66C6540FC666C630E30244F001
:0C48DE0008F6E51024FBF8740F56FD7E70
:0A48EA0000ED24E4F582EE34E6F55B
:0E48F40083E493FD8A828B838CF012DD831A9D
:04490200BAFF011BDC
:0C490600E51024FBF808E618C4C6C454F1
:0D4912000F66C6540FC666C630E30244F0BF
:0C491F0008F6E51024FBF8E608466003EB
:03492B0002489FA0
:03492E00024A0A30
:0C4931007F00E51024FBF808E630E70FDB
:0C493D007F01E51024FBF8C3E496F608A7
:03494900E496F6FB
:0B494C00A81008A60208A60308A60495
:0C495700C007740AC0E0E4C0E0E51024D2
:0E496300FBF8868208868312E4FAAD82AE83EA
:0C49710015811581D00774302DFDA810B1
:0E497D000886820886830886F0ED12DD83A886
:08498B00100816B6FF02081621
:0C499300C007740AC0E0E4C0E0E5102496
:0E499F00FBF8868208868312E5FDAD82AE83AA
:0C49AD0015811581D007E51024FBF8A649
:0C49B9000508A606E51024FBF8E60846F9
:0C49C5007090EF6021A810088682088620
:0C49D100830886F0742D12DD83A8100806
:0E49DD00E624FFFA08E634FFFB088604801F7C
:0C49EB00A8100886820886830886F074F5
:0C49F7002012DD83A81008E624FFFA0857
:074A0300E634FFFB08860406
:054A0A000ABA00010BD7
:0D4A0F008A828B838CF0C002C003C00412A9
:0E4A1C00E2E2AD82D004D003D002C002C0039B
:0E4A2A00C004C0058A828B838CF0124A4B15A3
:0E4A380081D004D003D0028A828B838CF0855B
:054A46001081D01022D8
:0A4A4B00C010858110C082C083C036
:054A5500F07D007E0071
:0C4A5A00A810181818C3EE965039C005BB
:0C4A6600A81008EE26FFE40836FD0886C4
:0E4A7200028F828D838AF012E2FAF582C0056F
:0E4A8000C006124834AA82D006D005E4BAFF60
:024A8E00010421
:084A9000D00560048D8280074F
:054A98000E8E0580BD3B
:024A9D008D8208
:064A9F00851081D01022F9
:0A4AA500C010858110058105810510
:0E4AAF0081AA82AB83ACF074012AFDE43BFEC9
:0E4ABD008C078A828B838CF012E2FAFABA011F
:044ACB0003024B6037
:064ACF00BA0203024C379D
:064AD500BA0303024BC00E
:054ADB00BA040280098D
:064AE000BA0803024C9726
:034AE600024C9DE2
:0E4AE90074082DFDE43EFE8D828E838FF01248
:0E4AF700E2FAFAA3AD82AE837B00C005C006D2
:0E4B0500C007C002C0037410C0E07582021227
:0E4B13004872158115811581D007D006D00596
:0E4B21008D828E838FF012E2FAFAA3AD82AE7F
:0E4B2F00837B00C005C006C007C002C003742F
:0E4B3D0010C0E07582021248721581158115B4
:0E4B4B008190E6F4124837D007D006D005ED71
:074B590024F6FDEE34FFFE1F
:0C4B600074082DFDE43EFEA81008A60518
:084B6C0008A60608A6077A005E
:034B7400BA08007C
:054B77004003024C9D0B
:094B7C00A8100816B6FF02081685
:0C4B8500A8100886820886830886F012BB
:0E4B9100E2FAFB7C00C002C003C0047410C036
:0E4B9F00E0758202124872158115811581D0D1
:044BAD0002BA070041
:0C4BB100500A90E6F6C002124837D0020D
:034BBD000A80B4B7
:0E4BC00074022DFDE43EFE8D828E838FF01276
:0E4BCE00E2FAFAA3AD82AE837B00C005C006FA
:0E4BDC00C007C002C0037410C0E07582021250
:0E4BEA004872158115811581D007D006D005BF
:0E4BF8008D828E838FF012E2FAFAA3AD82AEA8
:0E4C0600837B00C005C006C007C002C0037457
:0E4C140010C0E07582021248721581158115DC
:0E4C22008190E6F4124837D007D006D005ED99
:074C300024FCFDEE34FFFE41
:0D4C370074022DFDE43EFE7A028E048F0310
:054C44001DBDFF011C75
:0E4C49008D828C838BF012E2FAFE7F00C00297
:0E4C5700C003C004C005C006C0077410C0E052
:0E4C6500758202124872158115811581D005E5
:0E4C7300D004D003D002EA14701690E6F6C00A
:0E4C810002C003C004C005124837D005D0049D
:044C8F00D003D0027C
:044C9300DAAF80060E
:064C970090E6F812483718
:064C9D00851081D01022F9
:0EE6E400303132333435363738394142434411
:02E6F20045469B
:02E6F400200004
:02E6F6003A00E8
:0AE6F80042726F6164636173740085
:0E4CA300AA82AB83ACF0FDBA0065BBC262BC56
:0E4CB100015FBD005C90F2B4E0FAA3E0FBA34B
:0E4CBF00E0FCEA4B4C70267401C0E0758204E4
:0E4CCD0012172AAA82AB83ACF0158190F2B4C4
:0E4CDB00EAF0A3EBF0A3ECF090F2B7E4F09057
:034CE900F2B8F02E
:0E4CEC0043F10243F4C05390DF43FE6053FED9
:0E4CFA006F75FAD875FC0B75FB0275F8C2D207
:0A4D0800AB439A0890F2B37401F077
:014D1200227E
:0A4D1300C010858110C082C0830526
:0B4D1D0081E5102403FC7D007E409027
:0C4D2800F2B4E0FFA3E0FAA3E0FBA81047
:0E4D340008E6C0E008E6C0E0C004C005C00606
:0E4D42008F828A838BF0121F58AA82E581248B
:0C4D5000FBF581BA010FA81008080886C6
:094D5C00027B008A828B83800334
:034D650090FFFFBD
:064D6800851081D010222D
:084D6E00C0108581100581AA27
:0C4D7600100A7B007C4090F2B4E0FDA32A
:0E4D8200E0FEA3E0FFE4C0E0C0E0C002C0031A
:0E4D9000C0048D828E838FF0121F58AA82E518
:0C4D9E008124FBF581BA010DA8100886E5
:094DAA00027B008A828B838003E6
:034DB30090FFFF6F
:064DB600851081D01022DF
:0D4DBC00AA827B0090F2B3E0FCBC010990DC
:084DC900F2B3E4F08AF980570F
:094DD10090F2B8E0FC0CBC80007B
:064DDA004004EC2480FC03
:0D4DE00090F2B7E0FDECB505047BFF803BD1
:0A4DED00EC2429F582E434EFF5838D
:0E4DF700EAF0C2AF90F2B8ECF090F2B3E0FC3C
:0E4E0500BC011E90F2B7ED04F090F2B7E0FC95
:034E1300BC800060
:094E16004007EC248090F2B7F093
:074E1F0090F2B3E4F08AF900
:024E2600D2AF09
:034E28008B822258
:0C4E2B00C020C0E0C0F0C082C083C00204
:0E4E3700C003C004C005C006C007C000C00113
:0A4E4500C0D075D000C010858110A8
:0A4E4F000581C28FA81008A6F9AA79
:0C4E5900100A7B007C4090F2B4E0FDA346
:0E4E6500E0FEA3E0FFE4C0E0C002C003C00412
:0E4E73008D828E838FF0121D22AA82E581248B
:094E8100FCF581BA0103122FF8BF
:0A4E8A00851081D010D0D0D001D0E7
:0E4E940000D007D006D005D004D003D002D045
:0A4EA20083D082D0F0D0E0D020329F
:0E4EAC00C0E0C082C083C002C003C0D075D079
:0E4EBA0000C2EA90F2B7E0FA90F2B8E0FBEA2C
:054EC800B50302802A81
:0E4ECD0090F2B7EA04F090F2B7E0FABA800073
:094EDB004007EA248090F2B7F0D0
:0B4EE40090F2B7E0FA2429F582E434D4
:084EEF00EFF583E0F5F9800600
:064EF70090F2B37401F01B
:0D4EFD00D0D0D003D002D083D082D0E032DC
:01E75C0001BB
:03E75D00000000B9
:01E7600000B8
:01E7610000B7
:0E4F0A0090F2B9E0FABAFF3E90F021E4F0A375
:034F1800F07A0824
:0C4F1B00EA14FB75F00FA4FC24A9F58239
:0C4F2700E434EFF583E4F0A3F0A3F0EC19
:0A4F330024A9FCE434EFFD74062C01
:0E4F3D00F582E43DF583E4F08B02EA70D1903A
:054F4B00F2B97401F051
:014F5000223E
:0A4F5100C010858110C082C083C02B
:0E4F5B00F00581058190F2B9E0FDBDFF031263
:024F69004F0AED
:044F6B007D007E0047
:034F6F00BE080079
:0C4F7200506EEE75F00FA4FFE510240453
:0A4F7E00F8EF24A9F6E434EF08F67A
:0C4F8800E5102404F88682088683E0FA15
:0C4F9400A3E0FBA3E0FCEA4B4C703EE500
:0A4FA000102404F88682088683A915
:0C4FAA001009E7F0A309E7F0A309E7F005
:0A4FB600EF24A9FFE434EFFA7406BB
:0E4FC0002FF582E43AF583E4F08F828A83A312
:0C4FCE00A3A3A3A3A810181818E6F08DE8
