:020000040000FA
:0600000002008B02488C97
:01000B0032C2
:0100130032BA
:03001B00024E682A
:0100230032AA
:03002B000230920E
:01003300329A
:01003B003292
:0300430002392D52
:03004B000238492F
:0300530002384D23
:03005B0002385414
:03006300023899C7
:01006B003262
:01007300325A
:01007B003252
:0300830002479C95
:0300EE0002008687
:050086001200F180FEF4
:0E00F1001236D9D284D285E4C0E0C0E0C0E06F
:0E00FF00E4C0E0E4C0E0C0E0C0E074DCC0E0BB
:0A010D00E4C0E07434C0E07462C086
:0E011700E07480C0E090012F1201ABE581245E
:0A012500F4F581120A59900000223F
:0A012F00C010E581F510240DF581E4
:07013900125706C285C284C3
:0E0140009001F4E4F5F012575AAA82AB83BA8C
:07014E00FF05BBFF0280EB7F
:08015500BA0D05BB000280E3B6
:08015D00BA4505BB0002801049
:08016500BA6505BB0002801E13
:08016D00BA6DD0BB00CD801E6D
:020175007A000E
:03017700BA0900C2
:0E017A0050C474302AF582C002124DD1D0025A
:030188000A80ECFE
:08018B00758235124DD180ADE3
:0C019300AA100A7B007C408A828B838CBF
:0A019F00F01240E0809B851081D033
:0201A900102222
:056234004D61696E00E0
:0500E40090E066E4F06D
:0A01AB00C010858110C082C08305DA
:0C01B5008105810581E51024F9F886829F
:0D01C1000886831215FDAC82AD83AEF0A858
:0C01CE0010080808A60408A60508A606EC
:0C01DA00A810080808B6000B08B60007C3
:0701E60008B6000302039CB0
:0A01ED00E51024F5F8E6C0E0E51087
:0E01F70024FBF8E6C0E008E6C0E008E6C0E041
:0C020500E51024F9F8E6C0E008E6C0E0CF
:0C021100A810080808868208868308866A
:0C021D00F0121429E58124FAF581A810E4
:0E022900080808742026FFE40836FA08860349
:0E0237008F828A838BF0125479FFA3125479C0
:0C024500FAA3125479FBE51024F6F8E649
:0C025100C0E008E6C0E008E6C0E0A8102D
:0E025D0008E6C0E008E6C0E08F828A838BF0DE
:0E026B00122CFFAA82AB83AFF0E58124FBF5D5
:0C02790081A81008080886820886830807
:0E02850086F0EA124F1AA3EB124F1AA3EF12E3
:0E0293004F1AC0E0C0A8C2AF90F499E0240159
:0C02A100F090F499E0FABA0117A81008D8
:0E02AD00080890F496E6F008A3E6F008A3E631
:0602BB00F0121596803FD1
:0E02C10090F49EE0FA703890F496E0FAA3E014
:0E02CF00FBA3E0FF741F2AFAE43BFB8A828B3C
:0C02DD00838FF0125479FAE51024F5F834
:0B02E900C3E69A4012A8100808089015
:0C02F400F496E6F008A3E6F008A3E6F09C
:0C030000A810080808741F26FAE408364C
:0E030C00FB0886078A828B838FF0125479FAE1
:0E031A0090F49CE0FBC39A500590F49CEAF02E
:0C032800A810080808742326FBE408361F
:0E033400FF08860490E066E0FD8B828F838CCC
:0B034200F0124F1A90E066ED04F090FE
:0D034D00F49DE0FBC39A500590F49DEAF08A
:0C035A00A810080808740326FBE408360D
:0C036600FC088605EA75F00CA42400FADF
:0C037200E434E0FE7F00C003C004C005BE
:0E037E008A828E838FF012274C15811581150F
:0E038C00817A01D0E053E080E5E042A8D0E0A5
:02039A008002DF
:02039C007AFFE6
:0C039E00BA0163E51024F2F8860308861B
:0E03AA0004088605BB0008BC0005BD000280EB
:0103B8001B29
:0C03B9008B828C838DF0A810080808E6E9
:0D03C500124F1AA308E6124F1AA308E61201
:0203D2004F1AC0
:0E03D40090F49EE0FB602990F496E0FBA3E01D
:0E03E200FCA3E0FD741F2BFBE43CFC8B828C23
:0C03F000838DF0125479FBE51024F5F821
:0803FC00C3EB965003122FB170
:080404008A82851081D01022CC
:0A040C00C010858110C082C083C0BB
:0B041600F00581E5102404F8760012C8
:0C0421000AABA8100886820886830886B3
:0B042D00F0125479FEA3125479FFE591
:0C0438001024FCF8E62EFD08E63FFA8DCB
:0E0444000390F49AE0FCA3E0FDC3EC9EED9F54
:0E045200501FC3EB9EEA9F503590F49AE0FCD9
:0C046000A3E0FDC3EC9BED9A5026E510D4
:07046C002404F87601801D55
:0E047300C3EB9EEA9F400F90F49AE0FCA3E0DA
:08048100FDC3EC9BED9A50074E
:07048900E5102404F87601E0
:0C049000A8100886820886830886F0EB1E
:09049C00124F1AA3EA124F1AE5EF
:0A04A500102404F8E6700302056855
:0E04AF0090F496E0FCA3E0FDA3E0FE74032CA5
:0E04BD00FCE43DFD8C828D838EF0C002C003F6
:0E04CB00122B3ED003D00290F496E0FCA3E08A
:0E04D900FDA3E0FE74032CFCE43DFD8C828D3F
:0D04E700838EF0EB124F1AA3EA124F1A9009
:0E04F400F49AE0FCA3E0FDC3EB9CEA9D5034BB
:0E05020090F496E0FAA3E0FBA3E0FC74032A59
:0E051000FAE43BFB90E04BE0FDA3E0FEA3E02D
:0E051E00FFC002C003C0048D828E838FF012D6
:0A052C00290B15811581158180321D
:0E05360090F496E0FAA3E0FBA3E0FC74032A25
:0E054400FAE43BFB90E048E0FDA3E0FEA3E0FC
:0E055200FFC002C003C0048D828E838FF012A2
:08056000290B1581158115819D
:0B056800120AC4E582FA7003122FB1E2
:06057300851081D010226A
:0D057900AA82AB837C00EA4B700302065F90
:0E058600C002C003120AABD003D00290F49A58
:0E059400E0FDA3E0FEEA2DFAEB3EFB90F496AC
:0E05A200E0FDA3E0FEA3E0FF74032DFDE43EA8
:0E05B000FE8D828E838FF0C002C003122B3EA0
:0E05BE00D003D00290F496E0FDA3E0FEA3E08F
:0E05CC00FF74032DFDE43EFE8D828E838FF0C2
:0A05DA00EA124F1AA3EB124F1A9019
:0E05E400F49AE0FDA3E0FEC3EA9DEB9E5034C6
:0E05F20090F496E0FAA3E0FBA3E0FD74032A68
:0E060000FCE43BFB90E04BE0FEA3E0FFA3E038
:0E060E00FAC004C003C0058E828F838AF012EA
:0A061C00290B15811581158180322C
:0E06260090F496E0FAA3E0FBA3E0FD74032A33
:0E063400FCE43BFB90E048E0FEA3E0FFA3E007
:0E064200FAC004C003C0058E828F838AF012B6
:08065000290B158115811581AC
:07065800120AC4AA828A0401
:06065F00EC7003022FB154
:010665002272
:0A066600C010E581F5102406F581AF
:0D067000AA82AB83ACF0C0E0C0A8C2AF907E
:0E067D00F496E0FDA3E0FEA3E0FFEAB5050E53
:0E068B00EBB5060AECB507067A007B007C0092
:0B069900E4BA0007BB0004BC00010431
:0C06A400FD601290F496A81008E0F6A388
:0906B000E008F6A3E008F6800B57
:0B06B900A81008A60208A60308A6046B
:0C06C400C005A8100886020886030886FE
:0E06D0000474032AFEE43BFF8C058E828F83A8
:0E06DE008DF0C002C003C004C005122B3ED038
:0C06EC0005D004D003D002E5102404F86F
:0C06F80074112AF6E43B08F608A604E59D
:0C070400102404F8740B26FDE40836FEF7
:0E0710000886078D828E838FF0125479FDA328
:0E071E00125479FEA3125479FFED4E4FD00510
:0C072C006020E5102404F8868208868313
:0E0738000886F0C002C003C004C005122B3EAC
:08074600D005D004D003D0025D
:0E074E0074032AFAE43BFBC005C002C003C0DE
:0E075C000490E05A75F00012274C15811581AB
:0E076A001581D005D0E053E080E5E042A8D034
:07077800E0ED6003122FB158
:06077F00851081D010225C
:0A078500C010E581F5102406F5818F
:0C078F00AA82AB83ACF0A81008A60208F8
:0E079B00A60308A604BA0009BB0006BC0003B2
:0307A9000208D172
:0E07AC00C0E0C0A8C2AF74032AFDE43BFE8C7F
:0E07BA0007C002C003C004740B2DFAE43EFB1E
:0E07C8008F048A828B838CF0125479FAA3126C
:0A07D6005479FBA3125479FCEAB435
:0A07E0005A0CEBB4E008ECB400047E
:0407EA007401800115
:0107EE00E426
:0607EF00FAE4BA00010467
:0B07F500D004D003D00260030208C64D
:0D0800008D828E838FF0C002C003C00412F1
:0E080D002B3ED004D003D002741F2AFAE43B25
:0E081B00FB8A828B838CF0125479FA90F49D44
:0B082900E0FBC39A500590F49DEAF03C
:0A083400A81008E5102404F974036D
:0C083E0026F7E4083609F70809E6F7A8D9
:0C084A001008741F26FDE40836FE088626
:0E085600078D828E838FF012547975F00CA4FA
:0A0864002400FAE434E0FB7C00C03D
:0C086E0005C006C007E5102404F8E6C031
:0E087A00E008E6C0E008E6C0E08A828B838CCE
:0E088800F012274C158115811581D007D0067E
:0D089600D0058D828E838FF0125479FD9075
:0E08A300F496E0FAA3E0FBA3E0FC741F2AFA2F
:0E08B100E43BFB8A828B838CF0125479FAC3ED
:0708BF00ED9A4003122FB176
:0B08C600D0E053E080E5E042A8D0E065
:0608D100851081D0102209
:0A08D700C010858110C082C083C0EC
:0C08E100F0E581240CF5817D00A81008D2
:0C08ED00E5102404F9E6F70809E6F70816
:0A08F90009E6F7A81008E51024072F
:0E090300F9740326F7E4083609F70809E6F749
:0C091100E5102407F8740B26FBE4083600
:0E091D00FC0886028B828C838AF0125479FBD0
:0C092B00A3125479FCA3125479FAEBB427
:0A0937005A0CECB4E008EAB4000426
:0409410074018001BC
:01094500E4CD
:07094600FBBB0003020A5194
:0A094D0090F49FE0FA6003020A2A0A
:0A095700A81008E510240AF9741F27
:0C09610026F7E4083609F70809E6F7E578
:0C096D0010240AF886820886830886F0B1
:0E097900125479FB90F496E0FFA3E0FEA3E099
:0E098700FA741F2FFFE43EFE8F828E838AF0EB
:0E099500125479FFC3EB9FB3E433FF8F05E5E7
:0C09A300102407F886820886830886F07E
:0C09AF00C005122B3ED005E510240AF80C
:0D09BB0086820886830886F0125479FA902F
:0D09C800F49DE0FBC39A500590F49DEAF009
:0C09D500C005E5102404F8740326FAE4C1
:0C09E1000836FB088604E5102404F874B6
:0E09ED001F26FEE40836FF0886058E828F83E3
:0C09FB008DF012547975F00CA42400FD5E
:0C0A0700E434E0FE7F00C005C002C00324
:0E0A1300C0048D828E838FF012274C15811542
:090A2100811581D005D005802764
:0C0A2A00A81008741126FAE40836FB0836
:0E0A36008604C005C002C003C00490E04E75E7
:0D0A4400F00012274C158115811581D00599
:080A51008D82851081D0102276
:0E0A5900E4C0E0C0E0C0E0E4C0E0E4C0E0C003
:0C0A6700E0C0E07450C0E0E4C0E074396E
:0B0A7300C0E07462C0E07480C0E0903E
:0E0A7E0014241201ABAA82E58124F4F581BA9A
:0E0A8C000112C2AF90F49E7401F090F49AE44F
:060A9A00F0A3F0022F3969
:010AA0002233
:0A0AA100C2AF90F49EE4F0022FB003
:0E0AAB00C0E0C0A8C2AF90F49FE02401F0D0DC
:0B0AB900E053E080E5E042A8D0E0221E
:0A0AC400C010E581F5102406F5814D
:0C0ACE00A810087600C0E0C0A8C2AF90DD
:090ADA00F49FE01490F49FF090E9
:090AE300F49FE0FB6003020C9B90
:0A0AEC0090F499E0FB7003020C9BEC
:060AF600A81008087600BC
:0A0AFC0090E04EE0FCE4BC000104B1
:040B0600FCB401003A
:0E0B0A00E433FC603190E05475F00012547931
:0E0B1800FCA3125479FDA3125479FE74082C2C
:0E0B2600FCE43DFD8C828D838EF0125479FC30
:0C0B3400A3125479FDA3125479FE800630
:060B40007C007D007E0038
:0E0B46008C078D038E02BC0009BD0006BE00A8
:040B540003020C5B31
:0E0B580074112FFCE43BFD8A068C828D838E87
:0E0B6600F0C002C003C007122B3ED007D00320
:0E0B7400D00274032FFCE43BFD8A068C828DB8
:0E0B8200838EF0C002C003C007122B3ED007C6
:0E0B9000D003D002741F2FFCE43BFD8A068CBC
:0B0B9E00828D838EF0A810080808125A
:0E0BA9005479F6C007C003C00290F49DE0FA34
:0C0BB700A810080808C3EA96E433D00236
:0C0BC300D003D007600AA81008080890B2
:040BCF00F49DE6F0BB
:0C0BD300E5102404F874032FF6E43B083E
:0E0BDF00F608A6028C828D838EF01254797572
:0A0BED00F00CA42400FAE434E0FB4D
:0C0BF7007F00C004C005C006E510240407
:0E0C0300F8E6C0E008E6C0E008E6C0E08A823D
:0E0C11008B838FF012274C158115811581D031
:0E0C1F0006D005D0048C828D838EF01254799D
:0E0C2D00FC90F496E0FAA3E0FBA3E0FD741F38
:0E0C3B002AFAE43BFB8A828B838DF0125479F7
:090C4900FAC3EC9A5003020AFC04
:090C5200A81008087601020AFC52
:070C5B0090F4A0E0FA601B19
:0B0C620090F4A0E0FA600E120CE89085
:0A0C6D00F4A0E01490F4A0F080EB76
:060C7700A8100808760138
:090C7D00A8100808B60102800865
:080C860090F4A1E0FABA010D9F
:0B0C8E00A81008760190F4A1E4F01219
:020C99002FB179
:0C0C9B00D0E053E080E5E042A8D0E0A8E3
:080CA70010088682851081D03F
:020CAF00102211
:0E0CB100C0E0C0A8C2AF90F49AE0FAA3E0FB46
:0E0CBF00D0E053E080E5E042A8D0E08A828BCE
:020CCD00832280
:0E0CCF00C0E0C0A8C2AF90F499E0FAD0E053A4
:0B0CDD00E080E5E042A8D0E08A82221F
:080CE800C01085811005819008
:090CF000F49FE0FA6003020ED843
:0D0CF90090F49AE02401F0A3E03400F090A4
:0E0D0600F49AE0FAA3E0FB4A703390E048E074
:0E0D1400FAA3E0FBA3E0FC90E04BE0FDA3E0BF
:0E0D2200FEA3E0FF90E048EDF0A3EEF0A3EF9B
:0D0D3000F090E04BEAF0A3EBF0A3ECF090A4
:060D3D00F4A2E02401F025
:0E0D430090E048E0FAA3E0FBA3E0FC8A828B7C
:0C0D5100838CF0125479FAE4BA0001041B
:040D5D00FAB40100E3
:0E0D6100E433FA604A90E048E0FAA3E0FBA316
:0E0D6F00E0FC74042AFAE43BFB74022AFAE466
:0E0D7D003BFB8A828B838CF0125479FAA3120E
:0E0D8B005479FBA3125479FC74082AFAE43B55
:0D0D9900FB8A828B838CF0125479FAA3122E
:0A0DA6005479FBA3125479FC800677
:060DB0007A007B007C00CC
:0E0DB6008A058B068C07BA0009BB0006BC003C
:040DC40003020EE236
:0E0DC80074032DFAE43EFB8F048A828B838C29
:0E0DD600F0125479FAA3125479FBC005C0063E
:0E0DE400C00790F49AE0FCA3E0FDC3EC9AED8A
:0E0DF2009BE433D007D006D0056003020EE26A
:0E0E000074032DFAE43EFB8F048A828B838CF0
:0E0E0E00F0C005C006C007122B3ED007D0066C
:0E0E1C00D00574112DFAE43EFB8F04C005C012
:0E0E2A0006C007740B2AFDE43BFE8C078D8288
:0E0E38008E838FF0125479FDA3125479FEA31D
:0E0E4600125479FFED4E4FD007D006D0056054
:0E0E5400158A828B838CF0C005C006C0071281
:080E62002B3ED007D006D0059D
:0E0E6A00741F2DFAE43EFB8F048A828B838C6A
:0C0E7800F0A81008125479F6C005C0065E
:0C0E8400C00790F49DE0FDA81008C3ED2D
:0C0E900096E433D007D006D0056008A817
:070E9C00100890F49DE6F040
:0E0EA30074032DFDE43EFE8A828B838CF012D8
:0B0EB100547975F00CA42400FAE4341E
:0C0EBC00E0FB7C00C005C006C0078A8275
:0E0EC8008B838CF012274C1581158115810249
:020ED6000D43CA
:0A0ED80090F4A0E02401F0124AFD9E
:0A0EE20090F4A0E0FA7003124AFD3C
:060EEC00851081D01022E8
:0E0EF20090F49FE0FA600790F4A17401F022E2
:0C0F000090F49DE075F00CA42400FAE4CD
:0B0F0C0034E0FB8A828B83E0700B90C6
:0A0F1700F49DE01490F49DF080DFDB
:0C0F210090F49DE075F00CA42400FAE4AC
:080F2D0034E0FB0ABA00010BDD
:0C0F350090F49DE075F00CA42400FCE496
:0C0F410034E0FD8C828D83A3E0FCA3E073
:0E0F4D00FDA3E0FE74022CFCE43DFD8C828DC1
:0E0F5B00838EF0125479FCA3125479FDA31278
:0E0F69005479FE8A828B83ECF0A3EDF0A3EEA8
:0C0F7700F090F49DE075F00CA42400FA4A
:0C0F8300E434E0FB8A828B83A3E0FAA335
:0E0F8F00E0FBA3E0FC90F49DE075F00CA424C0
:0A0F9D0000FDE434E0FE74042DFDB5
:0E0FA700E43EFE7F00EAB5055FEBB5065BECAD
:0C0FB500B5075790F49DE075F00CA424E3
:0A0FC10000FAE434E0FB0ABA000174
:010FCB000B1A
:0C0FCC0090F49DE075F00CA42400FCE4FF
:0C0FD80034E0FD8C828D83A3E0FCA3E0DC
:0E0FE400FDA3E0FE74022CFCE43DFD8C828D2A
:0E0FF200838EF0125479FCA3125479FDA312E1
:0E1000005479FE8A828B83ECF0A3EDF0A3EE10
:01100E00F0F1
:0C100F0090F49DE075F00CA42400FAE4BD
:0C101B0034E0FB8A828B83A3E0FAA3E0A0
:0E102700FBA3E0FC74082AFAE43BFB8A828BF0
:0E103500838CF0125479FAA3125479FBA312A3
:0E1043005479FC90F496EAF0A3EBF0A3ECF0E5
:01105100227C
:0A105200C010858110AA82AB83ACA8
:0E105C00F090F496E0FDA3E0FEA3E0FF741117
:0E106A002DFDE43EFEC005C006C0078A828B45
:0D107800838CF012290B15811581158190D4
:0E108500F496E0FAA3E0FBA3E0FC74032AFA61
:0D109300E43BFB8A828B838CF0122B3EE540
:0C10A0001024FCF8B6FF2E08B6FF2A90C2
:0E10AC00F496E0FAA3E0FBA3E0FC74032AFA3A
:0E10BA00E43BFBC002C003C00490E05A75F096
:0D10C8000012274C15811581158102117F42
:0C10D50090F49AE0FAA3E0FBE51024FC84
:0E10E100F8E62AFA08E63BFB90F496E0FCA342
:0E10EF00E0FDA3E0FE74032CFCE43DFD8C82CA
:0E10FD008D838EF0EA124F1AA3EB124F1A9059
:0E110B00F49AE0FCA3E0FDC3EA9CEB9D503497
:0E11190090F496E0FAA3E0FBA3E0FC74032A36
:0E112700FAE43BFB90E04BE0FDA3E0FEA3E00A
:0E113500FFC002C003C0048D828E838FF012B3
:0A114300290B1581158115818032FA
:0E114D0090F496E0FAA3E0FBA3E0FC74032A02
:0E115B00FAE43BFB90E048E0FDA3E0FEA3E0D9
:0E116900FFC002C003C0048D828E838FF0127F
:08117700290B1581158115817A
:03117F00D010226B
:0A118200C01085811005810581056C
:0E118C0081AA82AB83ACF0125479FDE4BD0061
:02119A0001044E
:04119C00FDB401009D
:0E11A000E433FD603F74042AFAE43BFB740262
:0E11AE002AFAE43BFB8A828B838CF012547980
:0E11BC00FAA3125479FBA3125479FC74082A8A
:0E11CA00FAE43BFB8A828B838CF0125479FA94
:0C11D800A3125479FBA3125479FC80068A
:0611E4007A007B007C0094
:0C11EA00A81008A60208A60308A604A886
:0C11F6001008741126FDE40836FE08867F
:0E120200078D828E838FF0122B3E90F49FE0BA
:0C121000FD7070A81008740326FDE408AF
:0E121C0036FE0886078D828E838FF0122B3EE1
:0C122A00A81008741F26FDE40836FE081A
:0D12360086078D828E838FF0125479FD9013
:0D124300F49DE0FEC39D500590F49DEDF07C
:0C125000A81008740326FEE40836FF080E
:0C125C008602ED75F00CA42400FBE434C5
:0C126800E0FC7D00C006C007C0028B82C5
:0E1274008C838DF012274C1581158115818019
:011282002348
:0C128300A81008741126FAE40836FB08D5
:0E128F008604C002C003C00490E04E75F0005B
:09129D0012274C15811581158101
:0C12A600A81008741F26FAE40836FB08A4
:0D12B20086048A828B838CF0125479FA90A6
:0E12BF00F496E0FBA3E0FCA3E0FD741F2BFB04
:0E12CD00E43CFC8B828C838DF0125479FBC3C1
:0912DB00EA9B40057582018003C5
:0312E40075820010
:0612E700851081D01022E9
:0E12ED00AA82AB83ACF090F4A2E0FD8A828B63
:0B12FB00838CF0124F1A0ABA00010B9E
:0E13060090F49AE0FDA3E0FE8A828B838CF0C7
:09131400ED124F1AA3EE024F1A6C
:0A131D00C010858110C082C083C09B
:0C132700F0058105810581A81008868270
:0E1333000886830886F0125479FD90F4A2E03B
:06134100FEB5050280313B
:0C134700A81008740126FDE40836FE081A
:0E13530086078D828E838FF0125479FDA312CF
:0E1361005479FE90F49AE0FFA3E0FAC3ED9FEA
:09136F00EE9A50057D01021415EF
:0C137800A81008740126FEE40836FF08E7
:0E13840086028E828F838AF0125479FAA312A9
:0E1392005479FB90F49AE0FCA3E0FEECC39AC1
:0A13A000FCEE9BFEE51024FBF8E5CF
:0C13AA00102404F9E6F70809E6F708092A
:0C13B600E6F7E5102404F8868208868320
:0E13C2000886F0125479FDA3125479FFC3EC93
:0E13D0009DEE9F503E90F49AE0FCA3E0FEECF0
:0E13DE00C39AFAEE9BFBEDC39AFAEF9BFBE578
:0C13EC00102404F886820886830886F02E
:0A13F800EA124F1AA3EB124F1AA8D5
:0B140200100886820886830886F0121E
:06140D0012ED7D008002DB
:021413007D0159
:081415008D82851081D01022A8
:07141D0090F4A17401F0221C
:051424001215FC80FB25
:0A142900C010858110C082C083C08E
:0C143300F0A81008742C26FDE40836FE1A
:0C143F000886078D828E838FF0E5102454
:0D144B00FCF8E6124F1AA308E6124F1AA88B
:0C1458001008742426FDE40836FE088607
:0C146400077408C0E0E4C0E0E51024F9C3
:0E147000F8E6C0E008E6C0E008E6C0E08D82C5
:0E147E008E838FF01253C2E58124FBF581A806
:0C148C001008742426FDE40836FE0886D3
:0E1498000774072DFDE43EFE8D828E838FF0DB
:0C14A600E4124F1AE51024F8F8B6040018
:0914B2004007E51024F8F8760368
:0C14BB00A81008741F26FDE40836FE0887
:0C14C70086078D828E838FF0E51024F8DC
:0C14D300F8E6124F1AA81008740326FD5A
:0E14DF00E40836FE0886078D828E838FF01299
:0C14ED00272BA81008741126FDE4083617
:0E14F900FE0886078D828E838FF012272BA8A7
:0C1507001008740326FDE40836FE088678
:0E1513000774082DFDE43EFE8D828E838FF05E
:0B152100A81008E6124F1AA308E612FB
:09152C004F1AA308E6124F1AA899
:0C1535001008741126FDE40836FE08863C
:0C15410007E51024F8F886027B00740413
:0E154D00C39AFAE49BFB8D828E838FF0EA1224
:08155B004F1AA3EB124F1AA86E
:0C1563001008741126FAE40836FB088614
:0E156F000474082AFAE43BFB8A828B838CF01A
:0B157D00A81008E6124F1AA308E6129F
:091588004F1AA308E6124F1A8560
:051591001081D01022C2
:021596007A00D9
:03159800BA040092
:0C159B00501EEA75F00CA42400FBE434A0
:0C15A700E0FC7D008B828C838DF0C00284
:0815B300122659D0020A80DD66
:0A15BB0090E03075F0001226599000
:0915C500E03C75F000122659907B
:0915CE00E04E75F0001226599060
:0915D700E05A75F000122659904B
:0715E000E0487430F0A37431
:0A15E700E0F0A37400F090E04B74F4
:0A15F1003CF0A374E0F0A37400F0D6
:0115FB0022CD
:0115FC0022CC
:0A15FD00C010858110C082C0830574
:0E160700810581058190002E123258AC82AD13
:0C16150083AEF0A810080808A60408A680
:0C1621000508A606A810080808B6000B73
:0B162D0008B6000708B600030216D044
:0C163800A810080808742026FFE40836FB
:0C164400FA088603A81008868208868336
:0E165000C002C003C007123258AC82AD83AE98
:0E165E00F0D007D003D0028F828A838BF0EC8D
:0B166C00124F1AA3ED124F1AA3EE124A
:0C1677004F1ABC0023BD0020BE001DA8BF
:0C1683001008080886820886830886F09C
:0C168F001235C4A810080808E4F608F69C
:04169B0008F680319C
:0E169F008F828A838BF0125479FFA312547944
:0C16AD00FAA3125479FBA81008E6C0E074
:0E16B90008E6C0E074A5C0E08F828A838BF043
:0916C7001253571581158115819C
:0C16D000A8100808088682088683088697
:0716DC00F0851081D01022FF
:0562390049444C450042
:03624E000000004D
:01625100004C
:0262520000004A
:016254000049
:016255000048
:016256000047
:016257000046
:016258000045
:016259000044
:01625A000043
:0A16E300C010858110C082E581244B
:0C16ED0009F581A81008E6700302193806
:0D16F900900029123258AB82AC83ADF0A8EE
:0C170600100808A60308A60408A605A801
:0C171200100808B6000B08B6000708B667
:05171E00000302193870
:0A172300A81008A91019191986F082
:0E172D00E7A4FEAFF074012EFAE43FFB8A82BF
:0E173B008B83C006C007123258AA82AB83AC63
:0C174900F0D007D006A81008088682081F
:0E17550086830886F0EA124F1AA3EB124F1A91
:0E176300A3EC124F1ABA0009BB0006BC00032B
:0317710002192931
:0A177400A8100808E5102405F97418
:0D177E000326F7E4083609F70809E6F7A886
:0C178B0010080886820886830886F01289
:0A1797005479FDA3125479FAA3124D
:0C17A1005479FBEE2DFEEF3AFF8B04E5BF
:0C17AD00102405F886820886830886F068
:0C17B900EE124F1AA3EF124F1AA3EC120D
:0C17C5004F1AA8100808742426FCE40841
:0D17D10036FE0886078C828E838FF0E412AE
:0C17DE004F1AA8100808740626FCE40846
:0D17EA0036FE0886078C828E838FF0ED128C
:0A17F7004F1AA3EA124F1AA3EB12D7
:071801004F1AA8100808E5CA
:0C180800102405F9740926F7E4083609DD
:0C181400F70809E6F7A8100886047E001B
:0C182000E5102408F8EC24FFF6EE34FF7D
:0C182C0008F6A81018181886077C00C0E9
:0C18380002C003C005C007C004E5102476
:0E18440008F886820886831250CDAC82AE83EF
:0E18520015811581D005D003D002EC2DFDEEDE
:0C1860003AFAE5102405F8868208868319
:0E186C000886F0ED124F1AA3EA124F1AA3EBF2
:0C187A00124F1AA8100808742526FAE482
:0D1886000836FB0886048A828B838CF0A84C
:071893001008E6124F1AA82D
:0C189A00100808742626FAE40836FB0843
:0C18A60086048A828B838CF0A81018182E
:0C18B20018E6124F1AA810080874272628
:0E18BE00FAE40836FB0886048A828B838CF0DD
:0C18CC0074FF124F1AA810080874282698
:0E18D800FAE40836FB0886048A828B838CF0C3
:0C18E60074FF124F1AA8100808740C269A
:0E18F200FAE40836FB0886048A828B838CF0A9
:0C190000122659A8100808741826FAE4F2
:0D190C000836FB0886048A828B838CF0125B
:0C1919002659A81008088682088683085A
:0419250086F08015B3
:0C192900A810080886820886830886F053
:031935001235C4A4
:0619380090000075F000B4
:06193E00851081D010228B
:0A194400C010858110C082C083C06E
:0C194E00F0E5812414F581120AABE510CD
:0E195A002404FD7E007F408D828E838FF0126C
:0C19680012EDC0E0C0A8C2AFA8100874C7
:0E1974002726FDE40836FE0886078D828E8346
:0E1982008FF0125479FA0A8D828E838FF0EA6C
:0C199000124F1AA81008742826FAE40868
:0E199C0036FB0886048A828B838CF012547905
:0E19AA00FD0D8A828B838CF0ED124F1AD0E077
:0C19B80053E080E5E042A8D0E0A8100851
:0C19C400E510240AF9742626F7E4083622
:0A19D00009F70809E6F7A81008E57A
:0C19DA0010240DF9740326F7E408360908
:0A19E600F70809E6F7A81008E5105D
:0E19F0002407F9742526F7E4083609F70809DC
:0219FE00E6F70A
:0C1A0000A8100886820886830886F01271
:091A0C002611E5827003021ACCD8
:0B1A1500E51024F9F8E6084670030213
:021A20001ACCDE
:0C1A2200A81008740C26FDE40836FE082D
:0C1A2E008607E51024F9F8E6C0E008E6A1
:0E1A3A00C0E08D828E838FF012105215811540
:0C1A480081C0E0C0A8C2AFA810088682D0
:0E1A54000886830886F01224D7120AC4E582A1
:051A62007003122FB11A
:0C1A6700120AABC0E0C0A8C2AFA8100873
:0E1A7300742726FDE40836FE0886078D828E55
:0E1A8100838FF0125479FA0A8D828E838FF0D3
:0C1A8F00EA124F1AA81008742826FAE486
:0D1A9B000836FB0886048A828B838CF012CB
:0E1AA8005479FD0D8A828B838CF0ED124F1A5B
:0E1AB600D0E053E080E5E042A8D0E0D0E0535D
:081AC400E080E5E042A8D0E05B
:0C1ACC00C0E0C0A8C2AFA8100874242617
:0E1AD800FAE40836FB0886048A828B838CF0C1
:0C1AE600125479FDE5102407F8868208F0
:0E1AF20086830886F0125479FEC3ED9E4003F1
:031B0000021C6C58
:0C1B0300E510240AF88682088683088614
:0C1B0F00F0125479FDE5102413F8A6052F
:0A1B1B00087600A81008E510241059
:0E1B2500F9740626F7E4083609F70809E6F712
:0C1B3300E5102410F886820886830886DE
:0C1B3F00F0125479FFA3125479FDA31298
:0C1B4B005479FEC002C003C004E5102461
:0C1B570013F8E6C0E008E6C0E0E510244A
:0E1B6300FBF8E6C0E008E6C0E008E6C0E08F50
:0E1B7100828D838EF01252B9E58124FBF5813E
:0D1B7F00D004D003D0028A828B838CF01238
:0E1B8C005479FD0D8A828B838CF0ED124F1A76
:0C1B9A00E5102410F88682088683088677
:0C1BA600F0125479FAA3125479FBA31238
:0C1BB2005479FCE510240AF886820886AD
:0D1BBE00830886F01254792AFAE43BFBE517
:0C1BCB00102410F886820886830886F03B
:0C1BD700EA124F1AA3EB124F1AA3EC12F3
:0C1BE3004F1AE510240DF8868208868356
:0E1BEF000886F0125479FDA3125479FEA31259
:0E1BFD005479FFC3EA9DEB9EEC64808FF06389
:0C1C0B00F08095F04034A8100886820894
:0E1C170086830886F0125479FAA3125479FBE2
:0C1C2500A3125479FCE5102410F886820C
:0D1C31000886830886F0EA124F1AA3EB1212
:071C3E004F1AA3EC124F1A2C
:0C1C45007A01A81008742826FBE4083679
:0E1C5100FC0886058B828C838DF0125479FE80
:0D1C5F000E8B828C838DF0EE124F1A8002E6
:021C6C007A00FC
:0E1C6E00D0E053E080E5E042A8D0E0EA703C10
:0C1C7C00E51024F9F8E608466032C002CA
:0A1C8800E51024F9FB7C007D40E527
:0C1C9200102404FE7F007A40C003C00450
:0E1C9E00C0058E828F838AF012131DAA821554
:0C1CAC008115811581EAD00270027AFFD8
:061CB800BAFF03021A004E
:0C1CBE00A8100886820886830886F0C003
:0C1CCA00021224D7120AC4D0028A8285BC
:051CD6001081D0102276
:0A1CDB00C010858110C082C083C0D4
:0C1CE500F0E581240CF581A8100874249F
:0E1CF10026FDE40836FE0886078D828E838F5E
:0B1CFF00F0E5102404F8125479F6A858
:0C1D0A001008742526FBE40836FC08864F
:0C1D1600028B828C838AF0125479FBE56A
:0C1D2200102404F8C3E69B4003021F04D9
:0A1D2E00A81008E5102405F974263A
:0C1D380026F7E4083609F70809E6F7E58D
:0C1D4400102405F886820886830886F0CB
:0C1D5000125479FAE510240BF8A60208E2
:0A1D5C007600A81008E5102408F92D
:0E1D6600740626F7E4083609F70809E6F7E5E3
:0C1D7400102408F886820886830886F098
:0B1D8000125479FCA3125479FAA3124C
:0C1D8B005479FBC005C006C007E5102419
:0C1D97000BF8E6C0E008E6C0E0E5102410
:0E1DA300FBF8E6C0E008E6C0E008E6C0E08C11
:0E1DB100828A838BF01252B9E58124FBF58102
:0D1DBF00D007D006D0058D828E838FF012E4
:0E1DCC005479FA0A8D828E838FF0EA124F1A34
:0C1DDA00E5102408F8868208868308863D
:0C1DE600F0125479FAA3125479FBA312F6
:0C1DF2005479FCE5102405F88682088670
:0D1DFE00830886F01254792AFAE43BFBE5D5
:0C1E0B00102408F886820886830886F000
:0C1E1700EA124F1AA3EB124F1AA3EC12B0
:0C1E23004F1AA81008740326FDE40836CE
:0E1E2F00FE0886078D828E838FF0125479FD97
:0E1E3D00A3125479FEA3125479FFC3EA9DEB61
:0E1E4B009EEC64808FF063F08095F04034A828
:0B1E5900100886820886830886F012BD
:0A1E64005479FAA3125479FBA3127B
:0C1E6E005479FCE5102408F886820886F0
:0E1E7A00830886F0EA124F1AA3EB124F1AA348
:041E8800EC124F1AEF
:0C1E8C00A81008742826FAE40836FB08A9
:0E1E980086048A828B838CF0125479FDBDFF84
:0A1EA60052E51024FAF8E67055A882
:0C1EB0001008741826FAE40836FB0886B7
:0D1EBC00048A828B838CF0125479603CA85C
:0A1EC9001008E5102408F97418262B
:0C1ED300F7E4083609F70809E6F7E51007
:0E1EDF002408F886820886830886F012118295
:071EED00AE82BE000280106E
:051EF40075820180125F
:0B1EF9000D8A828B838CF0ED124F1AD3
:071F0400E51024FAF88682C3
:061F0B00851081D01022B8
:0A1F1100C010858110C082C083C09B
:0C1F1B00F0E581240FF581120AABE510FF
:0E1F27002404FD7E007F408D828E838FF01299
:0C1F350012EDC0E0C0A8C2AFA8100874F4
:0E1F41002726FDE40836FE0886078D828E8373
:0E1F4F008FF0125479FA0A8D828E838FF0EA99
:0C1F5D00124F1AA81008742826FAE40895
:0E1F690036FB0886048A828B838CF012547932
:0E1F7700FD0D8A828B838CF0ED124F1AD0E0A4
:0C1F850053E080E5E042A8D0E0A810087E
:0C1F9100E5102407F9742626F7E4083652
:0A1F9D0009F70809E6F7A81008E5A7
:0C1FA70010240DF9740326F7E408360935
:051FB300F70809E6F744
:0C1FB800A8100886820886830886F012B4
:091FC40025E0E58270030220848F
:0B1FCD00E51024F9F8E6084670030256
:021FD800208463
:0C1FDA00A81008741826FDE40836FE0864
:0C1FE6008607E51024F9F8E6C0E008E6E4
:0E1FF200C0E08D828E838FF012105215811583
:0C20000081C0E0C0A8C2AFA81008868212
:0E200C000886830886F01224D7120AC4E582E3
:05201A007003122FB15C
:0C201F00120AABC0E0C0A8C2AFA81008B5
:0E202B00742726FDE40836FE0886078D828E97
:0E203900838FF0125479FA0A8D828E838FF015
:0C204700EA124F1AA81008742826FAE4C8
:0D2053000836FB0886048A828B838CF0120D
:0E2060005479FD0D8A828B838CF0ED124F1A9D
:0E206E00D0E053E080E5E042A8D0E0D0E0539F
:08207C00E080E5E042A8D0E09D
:0C208400C0E0C0A8C2AFA8100874242659
:0E209000FAE40836FB0886048A828B838CF003
:08209E0012547970030221FCC9
:0A20A600C002C003C004A81008E542
:0C20B00010240AF9740926F7E408360928
:0C20BC00F70809E6F7E510240AF8868210
:0E20C8000886830886F0125479FAA312547920
:0C20D600FBA3125479FCE5102407F886E7
:0E20E200820886830886F01254792AFAE43BBD
:0C20F000FBE510240AF8868208868308AD
:0E20FC0086F0EA124F1AA3EB124F1AA3EC1251
:0C210A004F1AE510240DF8868208868329
:0E2116000886F0125479FDA3125479FEA3122C
:0E2124005479FFC3EA9DEB9EEC64808FF0635C
:0D213200F08095F0D004D003D0024034A816
:0B213F00100886820886830886F012D4
:0A214A005479FDA3125479FEA3128C
:0C2154005479FFE510240AF88682088602
:0E216000830886F0ED124F1AA3EE124F1AA359
:04216E00EF124F1A03
:0E2172008A828B838CF0125479FD1D8A828B39
:0C218000838CF0ED124F1AE5102407F8D4
:0E218C0086820886830886F0125479FA7B005A
:0C219A00E510240AF88682088683088677
:0C21A600F0125479FCA3125479FDA3122E
:0E21B2005479FEC002C003C004C005C006E59B
:0C21C0001024FBF886820886830886F055
:0C21CC001252B9E58124FBF581A810082F
:0E21D800742726FAE40836FB0886048A828BF8
:0E21E600838CF0125479FD0D8A828B838CF06D
:0821F400ED124F1A7A0180027E
:0221FC007A0067
:0E21FE00D0E053E080E5E042A8D0E0EA703C7B
:0C220C00E51024F9F8E608466032C00234
:0A221800E51024F9FB7C007D40E591
:0C222200102404FE7F007A40C003C004BA
:0E222E00C0058E828F838AF012131DAA8215BE
:0C223C008115811581EAD00270027AFF42
:06224800BAFF03021FB8FB
:0C224E00A8100886820886830886F0C06D
:0C225A00021224D7120AC4D0028A828526
:052266001081D01022E0
:0A226B00C010858110C082C083C03E
:0C227500F0E5812408F581A8100874240D
:0E22810026FDE40836FE0886078D828E838FC8
:0B228F00F0E5102404F8125479F6E585
:0A229A00102404F8E670030224711A
:0A22A400C005C006C007A81008E539
:0C22AE00102405F9740926F7E40836092D
:0C22BA00F70809E6F7E5102405F8868215
:0E22C6000886830886F0125479FDA31254791D
:0C22D400FEA3125479FFA81008742626FF
:0E22E000FAE40836FB0886048A828B838CF0B1
:0A22EE00E5102408F8125479F6E513
:0B22F800102408F8E62DFDE43EFEE592
:0C230300102405F886820886830886F006
:0C230F00ED124F1AA3EE124F1AA3EF12AA
:0C231B004F1AA81008740326FAE40836D4
:0E232700FB0886048A828B838CF0125479FAAC
:0E233500A3125479FBA3125479FCC3ED9AEE67
:0E2343009BEF64808CF063F08095F0D007D0A3
:0C23510006D0054034A8100886820886DB
:0E235D00830886F0125479FAA3125479FBA378
:0C236B00125479FCE5102405F886820865
:0E23770086830886F0EA124F1AA3EB124F1A63
:05238500A3EC124F1A49
:0C238A00E5102404F8E6148D828E838F89
:0C239600F0124F1AE5102408F886027BB4
:0C23A20000E5102405F8868208868308F8
:0D23AE0086F0125479FCA3125479FDA3129D
:0E23BB005479FEC002C003C004C005C006E590
:0C23C9001024FBF886820886830886F04A
:0C23D5001252B9E58124FBF581A8100824
:0E23E100742726FAE40836FB0886048A828BED
:0C23EF00838CF0125479FDBDFF68E510EE
:0E23FB0024F8F886020886030886048A828B7E
:0C240900838CF0125479705BA8100874EA
:0E2415000C26FDE40836FE0886078D828E83B5
:0C2423008FF01254796042A81008740C6D
:0E242F0026FDE40836FE0886078D828E838F18
:0E243D00F0C002C003C004121182AE82D004AF
:09244B00D003D002BE000280188B
:0D2454008A828B838CF07401124F1A800B6A
:0B2461000D8A828B838CF0ED124F1A65
:05246C007582018003F0
:0324710075820071
:06247400851081D010224A
:0E247A00AA82AB83ACF0C0E0C0A8C2AF74244D
:0E2488002AFAE43BFB8A828B838CF012547993
:0E249600FAD0E053E080E5E042A8D0E08A8270
:0124A4002215
:0E24A500AA82AB83ACF0125479FDA3125479D5
:0E24B300FEA3125479FF8D828E838FF0C0023B
:0E24C100C003C0041235C4D004D003D0028A78
:0824CF00828B838CF00235C4FE
:0E24D700AA82AB83ACF0C0E0C0A8C2AF7428EC
:0E24E5002AFDE43BFE8C078D828E838FF01261
:0E24F3005479F8188D828E838FF0E8124F1AFC
:0E250100C3747F88F063F08095F050538D8294
:0E250F008E838FF074FF124F1A74182AFDE4A9
:0E251D003BFE8C078D828E838FF01254796006
:0E252B003474182AFDE43BFE8C078D828E83EB
:0E2539008FF0C002C003C004121182AD82D028
:0A25470004D003D002BD0002800F93
:0E255100C002C003C00412141DD004D003D079
:01255F000279
:0E256000D0E053E080E5E042A8D0E0C0E0C04B
:0E256E00A8C2AF74272AFDE43BFE8C078D82C5
:0E257C008E838FF0125479F8188D828E838F23
:0E258A00F0E8124F1AC3747F88F063F080955A
:0E259800F050398D828E838FF074FF124F1A2F
:0E25A600740C2AFDE43BFE8C078D828E838F21
:0E25B400F0125479601A740C2AFAE43BFB8A88
:0E25C200828B838CF0121182AA82BA000280F2
:0125D0000307
:0325D10012141DC4
:0C25D400D0E053E080E5E042A8D0E02217
:0E25E000AA82AB83ACF0C0E0C0A8C2AF7424E6
:0E25EE002AFAE43BFB8A828B838CF01254792C
:0625FC00FAE4BA0001043C
:0E260200FAD0E053E080E5E042A8D0E08A8202
:0126100022A7
:0E261100AA82AB83ACF0C0E0C0A8C2AF7424B4
:0E261F002AFDE43BFE8C078D828E838FF01225
:0E262D005479FD74252AFAE43BFB8A828B83E4
:0E263B008CF0125479FAEDB50204740180019E
:01264900E4AC
:0E264A00FDD0E053E080E5E042A8D0E08D82B4
:01265800225F
:0A265900C010858110C082C083C04C
:0C266300F0058105810581A810087401B4
:0C266F0026FDE40836FE088607A81008C7
:0C267B00E5102404F9740426F7E4083686
:0D26870009F70809E6F78D828E838FF0E5D4
:0C269400102404F8E6124F1AA308E61206
:0926A0004F1AA308E6124F1AE5D7
:0C26A900102404F886820886830886F05E
:0C26B50074FF124F1AA374FF124F1AE5B5
:0C26C100102404F8740226FBE40836FC28
:0C26CD000886058B828C838DF0E51024BC
:0E26D90004F8E6124F1AA308E6124F1AA308DF
:0C26E700E6124F1AE5102404F8740526D2
:0E26F300FBE40836FC0886058B828C838DF094
:0C270100E5102404F8E6124F1AA308E6C5
:0A270D00124F1AA308E6124F1AA893
:0C271700100886820886830886F0E41211
:062723004F1A851081D061
:0227290010227C
:0E272B00AA82AB83ACF0740B2AFAE43BFB8A63
:0E273900828B838CF0E4124F1AA3E4124F1A25
:05274700A3E4024F1A9B
:0A274C00C010858110C082C083C058
:0B275600F0E581240CF581A81008E5D7
:0C276100102407F9740126F7E40836097B
:0C276D00F70809E6F7E5102407F886825B
:0E2779000886830886F0125479FAA312547968
:0C278700FBA3125479FCE5102404F8A612
:0C2793000208A60308A604E51024FBF8C9
:0C279F008602088603088604E510240A60
:0D27AB00F874022AF6E43B08F608A604E5DF
:0C27B800102404F8860508860608860731
:0E27C40074022DFDE43EFE8D828E838FF01296
:0A27D2005479FDA3125479FEA312FE
:0C27DC005479FFE510240AF88682088674
:0E27E800830886F0ED124F1AA3EE124F1AA3CB
:0C27F600EF124F1AE510240AF874052AAF
:0C280200F6E43B08F608A604E5102407E5
:0E280E00F886820886830886F0125479FDA3AE
:0A281C00125479FEA3125479FFE56F
:0C28260010240AF886820886830886F0D9
:0C283200ED124F1AA3EE124F1AA3EF1282
:0C283E004F1AE5102404F88605088606F1
:0E284A0008860774022DFDE43EFE8D828E830B
:0D2858008FF0125479FDA3125479FEA312E3
:0E2865005479FF74052DFDE43EFE8D828E83B6
:0E2873008FF0EA124F1AA3EB124F1AA3EC12C9
:0C2881004F1AE5102404F88605088606AE
:0E288D0008860774022DFDE43EFE8D828E83C8
:0E289B008FF0EA124F1AA3EB124F1AA3EC12A1
:0C28A9004F1AE5102407F8868208868389
:0E28B5000886F0EA124F1AA3EB124F1AA3EC9A
:0E28C300124F1A740B2AFAE43BFB8A828B83B5
:0C28D1008CF0A81008E6124F1AA308E6CD
:0A28DD00124F1AA308E6124F1AA8C2
:0B28E700100886820886830886F01225
:0C28F2005479FA0AA81008868208868330
:0B28FE000886F0EA124F1A851081D006
:0229090010229A
:0A290B00C010858110C082C083C097
:0C291500F0E581240BF581E51024FBF8AF
:0E29210086050886060886078D828E838FF055
:0A292F00125479FAA3125479FBE563
:0A293900102407F8A60208A603E523
:0C294300102407F8B6FF4908B6FF45C095
:0C294F0005C006C007A81008740426FD8F
:0E295B00E40836FE08860774052DFDE43EFEF6
:0E2969008D828E838FF0125479FDA312547963
:0C297700FEA3125479FFE5102404F8A61A
:0E2983000508A60608A607D007D006D0050254
:022991002A24F6
:0A299300A81008E5102404F97404EC
:0B299D0026F7E4083609F70809E6F702
:0C29A800E5102404F88602088603088667
:0E29B4000474022AFAE43BFB8A828B838CF0C7
:0B29C200125479FAA3125479FBA312FF
:0E29CD005479FC8A828B838CF0125479FAA321
:0C29DB00125479FBE5102407F8C3E69ABB
:0C29E70008E69B4038E5102404F8860246
:0E29F30008860308860474022AFAE43BFB8A75
:0E2A0100828B838CF0125479FAA3125479FB65
:0C2A0F00A3125479FCE5102404F8A60280
:092A1B0008A60308A6040229A87C
:0C2A2400E5102409F874022DF6E43E08C9
:0C2A3000F608A607E5102404F88602084A
:0E2A3C00860308860474022AFAE43BFB8A82B1
:0E2A4A008B838CF0125479FAA3125479FBA3FB
:0C2A5800125479FCE5102409F88682086D
:0E2A640086830886F0EA124F1AA3EB124F1A6F
:0C2A7200A3EC124F1AE5102409F886822C
:0E2A7E000886830886F0125479FAA312547960
:0E2A8C00FBA3125479FC74052AFAE43BFB8A82
:0E2A9A00828B838CF0ED124F1AA3EE124F1AAE
:0E2AA800A3EF124F1A74052DFAE43EFB8F04C3
:0C2AB6008A828B838CF0E5102404F8E683
:0D2AC200124F1AA308E6124F1AA308E612DD
:0C2ACF004F1AE5102404F8860208860364
:0E2ADB0008860474022AFAE43BFB8A828B838D
:0E2AE9008CF0ED124F1AA3EE124F1AA3EF124B
:0E2AF7004F1A740B2DFDE43EFE8D828E838FF0
:0C2B0500F0A81008E6124F1AA308E61210
:092B11004F1AA308E6124F1AA89E
:0B2B1A00100886820886830886F012EF
:0C2B25005479FA0AA810088682088683FA
:0B2B31000886F0EA124F1A851081D0D0
:022B3C00102265
:0A2B3E00C010858110C082C083C062
:0C2B4800F0E581240CF581A8100874024F
:0E2B540026FDE40836FE0886078D828E838FEC
:0C2B6200F0125479FAA3125479FBA3126C
:0C2B6E005479FCE510240AF874052AF6DE
:0B2B7A00E43B08F608A604A81008E5DC
:0C2B8500102407F9740526F7E40836094F
:0C2B9100F70809E6F7E5102407F8868233
:0E2B9D000886830886F0125479FAA312547940
:0C2BAB00FBA3125479FCE510240AF88604
:0E2BB700820886830886F0EA124F1AA3EB12FA
:082BC5004F1AA3EC124F1AE5B0
:0C2BCD00102407F886820886830886F032
:0B2BD900125479FAA3125479FBA312E6
:0E2BE4005479FC74022AFAE43BFB8D828E8346
:0D2BF2008FF0125479FDA3125479FEA31246
:0E2BFF005479FF8A828B838CF0ED124F1AA35B
:0A2C0D00EE124F1AA3EF124F1AA89F
:0C2C17001008740B26FAE40836FB08864F
:0D2C2300048A828B838CF0125479FDA31279
:092C30005479FEA3125479FFE56A
:0C2C3900102404F8A60508A60608A6074B
:0A2C4500E5102404F8E510240AF954
:0E2C4F00740126F7E4083609F70809E6F7E5F0
:0C2C5D0010240AF886820886830886F09E
:0B2C6900125479FDA3125479FEA3124F
:0C2C74005479FFA81008E6B5050C08E62E
:0A2C8000B5060708E6B5070280025A
:022C8A00803692
:0C2C8C00E5102407F8868208868308867D
:0C2C9800F0125479FDA3125479FEA3122F
:0C2CA4005479FFE510240AF886820886A7
:0E2CB000830886F0ED124F1AA3EE124F1AA3FE
:042CBE00EF124F1AA8
:0D2CC2008A828B838CF0E4124F1AA3E41277
:082CCF004F1AA3E4124F1AE5AD
:0C2CD700102404F886820886830886F02A
:0C2CE300125479FA1AE5102404F88682D5
:0C2CEF000886830886F0EA124F1A851050
:042CFB0081D0102252
:0A2CFF00C010858110C082C083C0A0
:0B2D0900F0058105810581A81008E598
:0C2D1400102404F9E6F70809E6F70809A6
:0B2D2000E6F7A8100806B6000208063F
:0C2D2B00E51024FCF886050886067F00F1
:0C2D37007A008D03A810088682088683AD
:0E2D43000886F0EB124F1AA31818A68208A6F5
:0C2D5100838E058F068A078D03A81008EA
:0E2D5D0086820886830886F0EB124F1AA318B0
:0C2D6B0018A68208A683A810088682081B
:0E2D770086830886F074AA124F1AA31818A6B5
:0C2D85008208A683A810088682088683B6
:0E2D91000886F07480124F1AA31818A6820844
:0C2D9F00A683E51024F9F88605088606D6
:0C2DAB000886077A008D03A810088682B5
:0E2DB7000886830886F0EB124F1AA31818A6A0
:0E2DC5008208A6838E058F068A077A008D038A
:0C2DD300A8100886820886830886F0EBB2
:0E2DDF00124F1AA31818A68208A6838E058F1D
:0C2DED00068A07A8100886820886830862
:0E2DF90086F0ED124F1AA31818A68208A683C2
:0C2E0700A8100886820886830886F074F4
:0D2E130002124F1AA31818A68208A683A861
:0C2E2000100886820886830886F0740380
:0C2E2C00124F1AA31818A68208A683A84B
:0C2E3800100886820886830886F0740467
:0C2E4400124F1AA31818A68208A683A833
:0C2E5000100886820886830886F074054E
:0C2E5C00124F1AA31818A68208A683A81B
:0C2E6800100886820886830886F0740635
:0C2E7400124F1AA31818A68208A683A803
:0C2E8000100886820886830886F074071C
:0C2E8C00124F1AA31818A68208A683A8EB
:0C2E9800100886820886830886F0E41289
:0C2EA4004F1AA31818A68208A683A810D5
:0E2EB0000886820886830886F07401124F1A85
:0C2EBE00A31818A68208A683A810088696
:0E2ECA00820886830886F0E4124F1AA31818B7
:0C2ED800A68208A683A81008868208863F
:0E2EE400830886F074BB124F1AA31818A6823A
:0C2EF20008A683A81008868208868308C2
:0B2EFE0086F07401124F1AA81008E5BE
:0C2F0900102404F9E6C397FA08E60997C3
:0C2F1500E5102404F886820886830886F4
:0C2F2100F0EA124F1AE5102404F8868232
:0A2F2D000886830886F0851081D025
:022F3700102266
:0E2F39001231E990F496E0FAA3E0FBA3E0FC6D
:0C2F47008A828B838CF0125479F50DA364
:062F5300125479F50E7521
:062F59000F21850D8285A9
:052F5F000E83E0F508FF
:072F6400050DE4B50D0205A7
:012F6B000E57
:052F6C00050FA80F8510
:092F71000D82850E83E0FAF615CD
:062F7A0008E50870E58582
:0A2F80000F81D09FD010D0D0D001F7
:0E2F8A00D000D007D006D005D004D003D0026E
:0E2F9800D0F0D083D082D0E020E705C2AF0297
:022FA6002FAA50
:022FA800D2AFA6
:062FAA00D0E07582012257
:012FB00022FE
:0E2FB100C0E0C0A8C2AFC082C083C0F0C002A2
:0E2FBF00C003C004C005C006C007C000C001AA
:0C2FCD00C0D075D000C010C09F90F496DA
:0E2FD900E0FAA3E0FBA3E0FC8A828B838CF07D
:072FE700125479F50DA3124D
:052FEE005479F50E7599
:092FF3000F22E58124DFF50885B9
:062FFC000D82850E83F03A
:08300200E5086019050DE4B5B5
:04300A000D02050EA0
:07300E00850D82850E83A8E9
:073015000FE6FAF0050F15AC
:03301C000880E346
:0E301F00120EF290F496E0FAA3E0FBA3E0FCA0
:0C302D008A828B838CF0125479F50DA37D
:06303900125479F50E753A
:06303F000F21850D8285C2
:053045000E83E0F50818
:07304A00050DE4B50D0205C0
:013051000E70
:05305200050FA80F8529
:093057000D82850E83E0FAF615E6
:0630600008E50870E5859B
:0A3066000F81D09FD010D0D0D00110
:0E307000D000D007D006D005D004D003D00287
:0E307E00D0F0D083D082D0E020E705C2AF02B0
:02308C00309082
:02308E00D2AFBF
:02309000D0E08E
:0E309200C2AFC0E0C0A8C2AFC082C083C0F011
:0E30A000C002C003C004C005C006C007C000C7
:0C30AE00C001C0D075D000C010C09F90C1
:0E30BA00F496E0FAA3E0FBA3E0FC8A828B838D
:0930C8008CF0125479F50DA312ED
:0530D1005479F50E75B5
:0930D6000F22E58124DFF50885D5
:0630DF000D82850E83F056
:0830E500E5086019050DE4B5D2
:0430ED000D02050EBD
:0730F100850D82850E83A806
:0730F8000FE6FAF0050F15C9
:0330FF000880E363
:07310200859509750A0075AF
:0A3109000B00750C00AA967B007CF9
:0B311300008C058B048A03E42509F5FD
:05311E0009EB350AF584
:053123000AEC350BF57C
:053128000BED350CF574
:0C312D000CAA977B008B058A04E4FB25AC
:0531390009F509EB356A
:05313E000AF50AEC3562
:053143000BF50BED355A
:063148000CF50C74472594
:06314E0009F509740135CA
:053154000AF50AE43554
:053159000BF50BE4354D
:04315E000CF50C85DB
:063162000B97850A96851B
:063168000995120CE812AB
:09316E004E2A120EF253C07F90AC
:0E317700F496E0FAA3E0FBA3E0FC8A828B83CF
:093185008CF0125479F50DA3122F
:05318E005479F50E75F7
:063193000F21850D82856D
:053199000E83E0F508C3
:07319E00050DE4B50D02056B
:0131A5000E1B
:0531A600050FA80F85D4
:0931AB000D82850E83E0FAF61591
:0631B40008E50870E58546
:0A31BA000F81D09FD010D0D0D001BB
:0E31C400D000D007D006D005D004D003D00232
:0E31D200D0F0D083D082D0E020E705C2AF025B
:0231E00031E4D8
:0231E200D2AF6A
:0531E400D0E0D2AF3283
:0A31E90075C6B8859509750A0075D2
:0A31F3000B00750C00AA967B007C0F
:0B31FD00008C058B048A03E42509F513
:0532080009EB350AF599
:05320D000AEC350BF591
:053212000BED350CF589
:0C3217000CAA977B008B058A04E4FB25C1
:0532230009F509EB357F
:053228000AF50AEC3577
:05322D000BF50BED356F
:063232000CF50C744725A9
:0632380009F509740135DF
:05323E000AF50AE43569
:053243000BF50BE43562
:043248000CF50C85F0
:06324C000B97850A968530
:06325200099543A82022AB
:0500E90090EE21E4F09F
:0A325800C010858110C082C083E51C
:0C32620081241AF581E5102411F8E4F62F
:0E326E0008F608F6120AAB90EE21E0FF704A57
:08327C0090EE17746BF0A374CF
:0C328400E0F0A3E4F090EE1AF0A3F0904C
:0E329000EE1F74ACF0A3740DF090EE1CE4F091
:0D329E00A3F0A3F090E06E75F00074AC1288
:0932AB004F1AA3740D124F1A9082
:0732B400E06B741CF0A37431
:0B32BB00EEF0A3E4F090EE217401F0AF
:0C32C600A81008E60846601490623EE480
:0C32D20093FF740193FCA81008EF26F68F
:0432DE00EC0836F6CC
:0B32E200A81008E6084670030235AE95
:0C32ED00A81008C3E694AC08E6940D405D
:0432F900030235AEE9
:0932FD00E5102406F876170876A6
:0C330600EE08760090EE17E0FAA3E0FB62
:0C331200A3E0FFA810080808A60208A607
:04331E000308A607F3
:0C332200A810080808740326FCE4083614
:0E332E00FD0886068C828D838EF0125479FC89
:0C333C00A3125479FDA81008C3EC96ED14
:0C33480008965047A81008080886820864
:0E33540086830886F0125479FCA3125479FB8C
:0C336200A3125479FAEC4B4A6027A81023
:0C336E00080808E5102406F9E6F7080935
:0C337A00E6F70809E6F78B058A06A810A4
:0D338600080808A60408A60508A606808F02
:0A339300A810080808E6B41C0D0895
:0C339D00E6B4EE0808E6B400030235AE0A
:0C33A900E5102406F8868208868308865A
:0C33B500F0125479FAA3125479FBA31211
:0733C1005479FC90623EE527
:0C33C800102414F8E493F674019308F646
:0C33D400E5102414F8E62AFA08E63BFB9A
:0C33E000E5102411F8A60208A60308A6B8
:0C33EC0004A810080808868208868308E0
:0D33F80086F0125479FFA3125479FCA31241
:0C3405005479FDE5102406F88682088644
:0E341100830886F0EF124F1AA3EC124F1AA395
:0C341F00ED124F1AA810080808740326CC
:0E342B00FCE40836FD0886068C828D838EF048
:0B343900E510240EF8125479F6A312DF
:0A344400547908F6E510240EF8A9EB
:0C344E001009E6C397C0E008E60997C02B
:0C345A00E0E5102417F8D0E0F618D0E0F0
:0C346600F6E5102414F8860308E6CB25D8
:0C347200E0CB33FAE5102416F8C3EB960B
:08347E00EA089640030235AE96
:0A348600A810080808A91009E7269D
:0C349000FA09E70836FB088607E510245F
:0C349C0009F8A60208A60308A607E51020
:0C34A8002409F8E5102418F9740326F735
:0C34B400E4083609F70809E6F7E51024E3
:0C34C0000EF8A91009E6C397FA08E60907
:0C34CC0097FBE5102418F8868208868320
:0E34D8000886F0EA124F1AA3EB124F1A8C82EC
:0C34E6008D838EF0A81008E6124F1AA388
:0C34F20008E6124F1AE510240CF8A602A0
:0934FE0008A6037C177DEE7E0098
:0C3507008C828D838EF0E5102418F812E1
:0B3513005479F6A312547908F6A312B5
:0C351E00547908F6C004C005C006E51092
:0E352A002418F8740326FCE40836FD08860613
:0E3538008C828D838EF0125479FCA31254798C
:0C354600FDE510240CF8C3EC96ED08968F
:0C355200E433D006D005D0046015E5106D
:0E355E002418F886020886030886078A048B64
:05356C00058F068096AA
:0C357100E5102409F8868208868308868D
:0C357D00F0E5102418F9E7124F1AA3091A
:0E358900E7124F1AA309E7124F1A8C828D83A6
:0C3597008EF0E5102409F8E6124F1AA38C
:0B35A30008E6124F1AA308E6124F1AA8
:0C35AE00120AC4E5102411F88682088679
:0A35BA00830886F0851081D01022EE
:0A35C400C010E581F5102408F58120
:0E35CE00AA82AB83ACF0EA4B4C70030236D3FA
:0E35DC0090623EE493FD740193FEEAC39DFAF3
:0C35EA00EB9EFBA81008A60208A6030830
:0E35F600A604C002C003C004120AABD004D069
:0E36040003D00274032AFAE43BFB8A828B8314
:0C3612008CF0125479FAA3125479FBE5F5
:0A361E00102404F8A60208A6037C9D
:05362800177DEE7E009D
:0C362D008C828D838EF0E5102406F812CC
:0B3639005479F6A312547908F6A3128E
:0C364400547908F6C004C005C006E5106B
:0E3650002406F8740326FCE40836FD088606FE
:0E365E008C828D838EF0125479FCA312547965
:0C366C00FDE5102404F8C3EC96ED089670
:0C367800E433D006D005D0046015E51046
:0E3684002406F886020886030886078A048B4F
:05369200058F06809683
:0C369700A8100886820886830886F0E5EB
:0C36A300102406F9E7124F1AA309E712E1
:0E36AF004F1AA309E7124F1A8C828D838EF0FA
:0B36BD00A81008E6124F1AA308E6123E
:0936C8004F1AA308E6124F1A1272
:0236D1000AC429
:0636D300851081D01022D9
:02623E00050059
:0E36D90043C68053C6BE43FD30C291D292D28A
:0B36E7009343FE0E1238DE75820122B4
:0836F200E582FA6003C2932295
:0336FA00D2932246
:0836FD00E582FA6003D291227C
:03370500C291224C
:08370800E582FA6003D292226F
:03371000C2922240
:0A371300C010858110AA82AB83ACC0
:0E371D00F0C2AF8A828B83E8C0E0EAC0E0E52C
:0C372B00C7C0E0E51024F9F8E6FA08E653
:0E373700F58408E64480F58508E61813E613CD
:08374500030354304401F5C7F1
:0E374D00759201E493A3759200F0A3DAF3D015
:0E375B00E0F5C7D0E0FAD0E0F8D2AF8A828B5A
:0B376900838CF0125479F584D01022FC
:08377400AA82AB837C007D00FA
:0E377C00C3EC9AED9B5008000CBC00F40D80CD
:01378A00F14D
:01378B00221B
:08378C00AA82AB837C007D00E2
:0E379400C3EC9AED9B501D9003E8C002C003E9
:0E37A200C004C005123774D005D004D003D087
:0837B000020CBC00DF0D80DCFF
:0137B80022EE
:0937B900AA82AB838595BC7C005B
:0337C200BC040044
:0E37C5005030C002C003ADBD8D067D00AFBC0C
:0E37D3007A00EF2DFDEA3EFE90F4A3E0FAA38B
:0E37E100E0FB90F4A3ED2AF0EE3BA3F08595FB
:0837EF00BC0CD003D00280CB1A
:0E37F70090F4A3E0FCA3E0FDC002C0038C82AE
:0E3805008D831250CD158115817C007D008CC5
:08381300028D038A828B8322DF
:02625B00FACB7C
:020000040001F9
:0E800000AA82AB83ACF0125479FDBD01028060
:01800E002B46
:05800F00BD0202800328
:03801400BD032386
:0C801700740DC0E0E4C0E074A5C0E0748B
:0C802300F4C0E0E4C0E08A828B838CF0A3
:0B802F001252B9E58124FBF58180218D
:0C803A00740DC0E0E4C0E074B2C0E0745B
:0C804600F4C0E0E4C0E08A828B838CF080
:098052001252B9E58124FBF5810D
:04805B007582012207
:0E805F00AA82AB83ACF0125479FDBD01028001
:01806D0025ED
:05806E00BD02028003C9
:03807300BD031D2D
:0E807600740DC0E0E4C0E0C002C003C004907E
:0E808400F4A575F0001252B9E58124FBF581D8
:0180920022CB
:0E809300740DC0E0E4C0E0C002C003C0049061
:0E80A100F4B275F0001252B9E58124FBF581AE
:0180AF0022AE
:020000040000FA
:0D625D000000000000000000000000000034
:0D626A000000000000000000000000000027
:0E381B00AA8275CB0075CC008ACDD2BB75CBCE
:05382900BE75820022C3
:04382E0075CB002234
:0E383200AA8275EB0075EC008AEDD2BC75EB36
:05384000BE75820022AC
:0438450075EB0022FD
:0438490075E40032F0
:07384D0053C3DF75C3003215
:0C385400C020C0E0C0F0C082C083C002F1
:0E386000C003C004C005C006C007C000C00100
:0E386E00C0D075D00075D83875CB00124794C5
:0E387C00D0D0D001D000D007D006D005D004A7
:0D388A00D003D002D083D082D0F0D0E0D0A7
:023897002032DD
:0C389900C020C0E0C0F0C082C083C002AC
:0E38A500C003C004C005C006C007C000C001BB
:0E38B300C0D075D00075D80775EB001257AE67
:0E38C100D0D0D001D000D007D006D005D00462
:0D38CF00D003D002D083D082D0F0D0E0D062
:0238DC00203298
:0E38DE007420C0E0E4C0E0E4C0E090EE22758B
:0E38EC00F0001253571581158115817A007B6B
:0138FA0000CD
:0E38FB00C3EA9404EB9400501E8A04EBCC2523
:0B390900E0CC33FDEC2442F582ED34ED
:0C391400EEF583E4F0A3F00ABA00DC0B2F
:0239200080D94C
:0A3922007A227BEE8BD38AD2D2B852
:01392C002278
:0C392D00C020C0E0C0F0C082C083C00217
:0E393900C003C004C005C006C007C000C00126
:0E394700C0D075D000740155D1FA600653D17E
:04395500FE12428993
:0D395900741055D1FA600653D1EF124EC123
:0E396600C2C0D0D0D001D000D007D006D0050E
:0E397400D004D003D002D083D082D0F0D0E0B7
:03398200D0203220
:05398500AA82BAE00077
:07398A00403DBAE202800893
:05399100BAE30280030F
:03399600BAE52D62
:0E39990090DF53E0FBA3E08AE1900001C00341
:0E39A700123774D00390DF53E0FCA3E0FD7EE6
:0A39B50000EBB50405EEB505012294
:0739BF0075E1E675E1E62267
:0339C6008AE12271
:0C39C900BADE1053E9FD75E1DF75E1FE88
:0739D500E5E920E10480F99F
:0239DC008AE17E
:0139DE0022C6
:0539DF00AA82BA0B00F2
:0739E4004005EA24E5500450
:0439EB007582FF22C0
:0E39EF008A037C00EB24F5FBEC34FFFCC002E5
:0E39FD00C003C0049000051250CDAD82AE8311
:0E3A0B0015811581D0028D038E0474652BFB8E
:0E3A190074013CFC4304408C057E0090DF10DD
:0E3A2700EDF0A3EEF090DF11EBF0A3E4F08AD7
:023A35008222EB
:0B3A3700E582FA249B50047582FF22F8
:0E3A4200EA75F01FA4FBACF0C0027464C0E093
:0E3A5000E4C0E08B828C83124EC8AD82AE8340
:0E3A5E0015811581D0028D038E0474602BFB40
:0E3A6C0074A13CFC8C057E0090DF0AEDF0A3F7
:0E3A7A00EEF090DF0BEBF0A3E4F090EE4AEAE2
:043A8800F08A82221C
:0E3A8C0090EE4BE0FA20E73590DF4F7414F017
:0E3A9A00E4A3F090EE4B74804AF090DF17E04A
:0E3AA800FAA3E0FB90DF1774F75AF0A3EBF0DF
:083AB600E5E930E7FB53BEFB1C
:0B3ABE00E5BE30E6FB7582E2123985A0
:0C3AC90053D1FED2B875D60175820122DF
:0D3AD5007582FF12398575D6817582E51264
:0E3AE200398590DF17E0FAA3E0FB90DF177440
:0E3AF000084AF0A3EBF090EE4BE4F075820173
:013AFE0022A5
:073AFF0075D68175820122DA
:0B3B060090F4BFE0FA60047582012219
:0E3B110090DF17E0FAA3E0FB90DF1774F75A7D
:043B1F00F0A3EBF034
:0E3B230090DF17E0FAA3E05302107B00BA0116
:063B310005BB000280EC60
:083B3700E5E930E7FB53BEFB9A
:0E3B3F00E5BE30E6FB90EE4BE4F090EE4EF06B
:0E3B4D0090DF547401F0E4A3F090DF02740ADC
:0E3B5B00F0E4A3F090DF0374F2F0E4A3F09026
:0E3B6900DF047430F0E4A3F090DF05E4F0A375
:0D3B7700F090DF60E0FAA3E08A037A00908E
:0E3B8400DF61E0FCA3E0FD90EE4CEC2AF0EDDA
:0D3B92003BA3F07582121239DF75826412B8
:0C3B9F003A377582E71239857582E6120C
:093BAB0039857AD97BDF7D4F7E5C
:0C3BB400EE8ED58DD48A058B068E07900E
:0A3BC000EE4FEFF090EE50EDF07ABA
:063BCA00577BEE8B049016
:0A3BD000EE51ECF090EE52EAF09096
:0C3BDA00EE537420F090EE547483F090D1
:0E3BE600EE557453F090EE56741FF07591700A
:0E3BF40053E98F539BFC439A01D2A8123A8CDE
:0E3C0200C285C28590F4BF7401F07582012264
:0A3C1000C0108581100581058105B3
:0E3C1A0081AA82AB83ACF0125479FDBD010289
:023C2800805AC0
:063C2A00BD0203023D0A89
:063C3000BD0303023CC4C9
:053C3600BD0402800343
:033C3B00023D3C0B
:0E3C3E0074012AFDE43BFE8C07C002C003C0E7
:0E3C4C000474082DFAE43EFB8F048A828B83F9
:0E3C5A008CF012547990DF4BF0A3E4F0740963
:0E3C68002DFDE43EFE8D828E838FF012547986
:0E3C7600FD90DF4CF0A3E4F0D004D003D002A8
:0C3C8400A8100874012AF6E43B08F608BA
:083C9000A6047A437BDF7C00EF
:033C9800BC080065
:053C9B004003023D3C66
:0C3CA000A81008EC26FEE40836FF088699
:0E3CAC00058E828F838DF0125479FE8A828BF2
:0A3CBA0083F0A3AA82AB830C80D430
:0E3CC40074012AFDE43BFE8C07C002C003C061
:0E3CD2000474022DFAE43EFB8F048A828B8379
:0E3CE0008CF012547990DF4BF0A3E4F07403E3
:0E3CEE002DFDE43EFE8D828E838FF012547900
:0E3CFC00FD90DF4CF0A3E4F0D004D003D00222
:053D0A000ABA00010BE4
:0D3D0F008A058B068C078D828E838FF01243
:0E3D1C005479FD90DF4DF0A3E4F00ABA0001E7
:013D2A000B8D
:0E3D2B008A828B838CF0125479FA90DF4EF06E
:033D3900A3E4F010
:063D3C00851081D0102269
:0C3D4200AA8290EE4EE4F0BA0102803B31
:053D4E00BA0202800A28
:053D5300BA0302800B21
:053D5800BA047A80525C
:063D5D0090EE4E7401F02F
:0E3D630090DF02E0FAA3E0FB90DF0274104A4A
:0D3D7100F0A3EBF090DF03E0FAA3E0FB907D
:0B3D7E00DF0374EF5AF0A3EBF080703D
:0E3D890090DF02E0FAA3E0FB90DF0274184A1C
:0D3D9700F0A3EBF090DF03E0FAA3E0FB9057
:0B3DA400DF0374104AF0A3EBF0804A2C
:0E3DAF0090DF02E0FAA3E0FB90DF0274084A06
:0D3DBD00F0A3EBF090DF03E0FAA3E0FB9031
:0B3DCA00DF0374104AF0A3EBF080242C
:0E3DD50090DF02E0FAA3E0FB90DF0274E75AF1
:0D3DE300F0A3EBF090DF03E0FAA3E0FB900B
:093DF000DF0374EF5AF0A3EBF0BD
:043DF90075820122AC
:0E3DFD007A007B007582E2C002C00312398595
:0E3E0B00900010123774900010123774D0031C
:043E1900D0027C084F
:0E3E1D0090DF07E0FDA3E0ED24D3FD3395E038
:0E3E2B00FEED2AFAEE3BFB900010C002C00331
:0E3E3900C004123774D004D003D002DCD7745A
:0E3E470008C0E0E4C0E08A828B83125679AC9A
:0E3E550082AD83158115818C028D038A822235
:0A3E6300C0108581107A017582E21B
:0E3E6D00C002123985900010123774900010B8
:0D3E7B00123774900010123774900010126E
:0C3E88003774D002A810181818B60002F9
:023E9400804D5F
:0C3E9600A810181818B6015390DF62E065
:0C3EA200FBA3E0FCEB30E0357B017C0072
:053EAE00BB0002803E94
:073EB300EC24FE50027B002D
:0E3EBA009000FAC002C003C004123774D00496
:0E3EC800D003D00290DF62E0FDA3E0FEED200B
:063ED600E0047B007A000D
:033EDC000C80CF88
:043EDF007A00800ED7
:0E3EE30090DF62E0FBA3E0FCEB20E0027A003F
:053EF1008A82D01022BE
:0B3EF600E582FA60067582E90239855A
:063F01007582E80239851B
:0A3F0700C010858110C082C083C085
:0C3F1100F0E581240CF581E5102404F893
:0C3F1D007601A81008742226FEE4083685
:0E3F2900FF0886058E828F838DF0125479FE7C
:093F3700A3125479FFA81008E55B
:0C3F400010240AF9742026F7E408360962
:0C3F4C00F70809E6F7E510240AF8868261
:0E3F58000886830886F0125479FDA31254796E
:0C3F6600FAEEC39DFEEF9AFFE510240563
:0E3F7200F8A60608A60790EE4BE0FC30E60627
:063F80007582000240DA28
:073F8600EC20E703123A8C66
:0C3F8D00E5102405F8C3748096748008C9
:0D3F990086F063F08095F0E433FC600302D5
:023FA60040C118
:0C3FA800C004A81008742C26FDE40836A4
:0C3FB400FE088607E510240AF886820843
:0E3FC00086830886F0125479FCA3125479FA15
:0C3FCE00EC2DFDEA3EFEE5102407F8A6ED
:0D3FDA000508A60608A6077582E7C00412B8
:0C3FE7003985D004E5102405F88602742A
:0C3FF300022AF5D9D004E5102407F88656
:093FFF00020886030886057E0015
:0C400800C0048E077C00E5102405F8C3FE
:0E401400EF96EC64800886F063F08095F0E48F
:0E40220033D00460138A828B838DF0125479A0
:0A403000F5D9A3AA82AB830E80CE5F
:0E403A0075D90075D900C004E4C0E07582009D
:0E404800123E63AA821581D004EA70067582CA
:04405600020240DA48
:0E405A0053E9BF7582E4C004123985D0047AA0
:014068000057
:0E40690090DF62E0FBA3E0FDEB20E4328A036F
:044077000ABBC800B8
:0E407B00502A90DF62E0A3E0E4FBFD4B600EF4
:0E4089007582E2C004123985D0047AC880D254
:0E40970090000AC002C004123774D004D00298
:0240A50080C2D7
:0340A700BAC80094
:0B40AA004009E5102404F87600800CAB
:0C40B500C285D28590EE4BE0FA4460F02A
:0C40C100E5102404F8B6010AEC6007E5E5
:0640CD00102404F8760047
:0740D300E5102404F88682C9
:0640DA00851081D01022C8
:0A40E000C010E581F5102404F581FD
:0D40EA00AA82AB83ACF0C002C003C0041278
:0E40F7005802D004D003D0028A828B838CF052
:084105001254796003024280AC
:0E410D00C002C003C0047408C0E074F8C0E033
:0E411B0074FFC0E07401C0E0E4C0E090EEE18B
:0E41290075F000123713E58124FBF581D004F8
:0E413700D003D00274012AFDE43BFE8C07A8E1
:0441450010087600E8
:06414900A81008B60800F2
:0C414F005045C002C003C004A810087452
:0C415B0007C396A81008082DF6E43E08E3
:0A416700F608A607A81008E624E1F8
:0A417100F582E434EEF583E0FCA8CB
:0C417B0010080886820886830886F0EC95
:0C418700124F1AA8100806D004D003D074
:034193000280B3F4
:0E4196008A828B838CF07401124F1A2AFDE48A
:0E41A4003BFE8C07C002C003C0047401C0E0E3
:0E41B2008D828E838FF0125856AD821581D00B
:0A41C00004D003D002BD0102800309
:0341CA0002427737
:0E41CD0074012AFDE43BFE8C07C002C003C053
:0E41DB00048D028E038F048A828B838CF0E4A5
:0E41E900124F1A74012DFAE43EFB8F048A82F5
:0E41F7008B838CF0E4124F1A74022DFAE43E12
:0E420500FB8F048A828B838CF0E4124F1A74B4
:0E421300032DFAE43EFB8F048A828B838CF02D
:0E422100E4124F1A74042DFAE43EFB8F048A57
:0E422F00828B838CF0E4124F1A74052DFAE492
:0E423D003EFB8F048A828B838CF0E4124F1AB2
:0E424B0074062DFAE43EFB8F048A828B838C6E
:0E425900F07444124F1A74072DFDE43EFE8DE2
:0E426700828E838FF07444124F1AD004D0035D
:02427500D00275
:094277008A828B838CF01258AA94
:09428000758201851081D0102225
:0A428900C010E581F5102414F58142
:0A429300A810087600A810080876AD
:08429D00570876EE087600E5F3
:0C42A500102406F8E4F608F608F675D6BA
:0C42B10081D285A8100808868208868348
:0E42BD000886F0125479FDA31818A68208A6F0
:0A42CB0083E5102405F8A605E510B0
:0C42D5002405F8E6247C5007E5102405C1
:0342E100F87683E9
:0842E400E5102405F8B6020004
:0942EC004007E5102405F8161640
:0842F500E5102405F8B60300F2
:0542FD005003024729F7
:0E43020090EE4EE0547FF090EE4EE0FE700321
:03431000024493D1
:0C431300A810080886820886830886F03F
:0A431F00125479FE20E503024493D6
:0A432900A810080806B600020806F6
:0C433300A810080886820886830886F01F
:0C433F00125479FEA810080816B6FF0200
:02434B00081652
:08434D00EE540C7003024493CE
:0843550053060CBE08028003B0
:03435D000243FE1A
:0C436000A8100808740326F6E40836F6DE
:02436C007A00D5
:03436E00BA04008E
:0C437100501EA8100808EA26FFE40836D9
:0E437D00FD0886068F828D838EF0125479FF24
:06438B00BFFF030A80DD04
:054391008A06BA0400D9
:0B439600504690F4A5E0FF603F7B0064
:0343A100BB04005A
:0C43A4005036A8100808EB26FDE408368F
:0E43B000FF0886028D828F838AF0125479FDF9
:0B43BE0074022B540324A6F582E434A3
:0C43C900F4F583E0FAEDB5020474018005
:0143D50001E6
:0143D600E402
:0543D70060030B80C52E
:0243DC008B064E
:0C43DE00A8100808E624FDF608E634FFED
:0443EA00F6BE040017
:0543EE0050030244939E
:0B43F30090EE4EE0FA4480F00244938C
:0C43FE00A8100808740526F6E40836F63E
:0C440A00A8100808860208860308860433
:024416007E0026
:03441800BE0800DB
:0E441B0050298A828B838CF0125479FFA3AA59
:0A44290082AB83EE24B3F582E43485
:0C443300F4F583E0FDEFB5050474018092
:01443F00017B
:01444000E497
:0544410060030E80D2B3
:05444600BE0802802306
:0C444B007F00EAC39EFEEB9FFF8C05A8DB
:0C445700100808A60608A60708A605A87D
:0944630010080816B6FF02081645
:02446C008018B6
:0C446E00A8100808EA24F8F6EB34FF0858
:0C447A00F608A60490EE4EE0FA4480F034
:0C448600A8100808E624FBF608E634FF46
:01449200F633
:0A449300AA100A7B007C40E510240B
:0C449D0006FEE510240CF8A606087600C8
:0E44A90008764090EFC4E0FDA3E0FEA3E0FF24
:0C44B700C002C003C004E510240CF8E6AD
:0E44C300C0E008E6C0E008E6C0E08D828E830F
:0E44D1008FF012226BAA82E58124FAF581E4B5
:0444DF00BA01010419
:0544E3007003024729EF
:0C44E800E5102406F8860208860308860A
:0C44F40004742C2AFEE43BFF8C05E5104C
:0E4500002409F8A60608A60708A60574262AB0
:0E450E00FDE43BFE8C078D828E838FF0E4125D
:0E451C004F1A8A828B838CF0E4124F1AA3E4AC
:0E452A00124F1AA3E4124F1A74202AFDE43B2C
:0E453800FE8C078D828E838FF0E4124F1AA343
:0E454600E4124F1A741F2AFAE43BFB8A828BA0
:0E455400838CF0E4124F1A90EE4EE0FA548081
:0B456200600CEA30E60575E1E980031B
:03456D0075E1E80D
:0C457000A81008088602088603088604CC
:0A457C00E5102409F8E510240CF9FD
:0C458600E6F70809E6F70809E6F77E00F2
:0C459200E5102405F8C3EE96502B8A8239
:0E459E008B838CF0125479FFA3AA82AB83E5C5
:0C45AC0010240CF886820886830886F034
:0E45B800EF124F1AA31818A68208A6830E80D1
:0145C600CB29
:0A45C700E5102406F8E510240CF9B5
:0C45D100E6F70809E6F70809E6F7E51030
:0C45DD00240CF8E510240FF9742626F7D2
:0C45E900E4083609F70809E6F7E510249D
:0C45F5000FF8E5102412F9740126F7E419
:0E460100083609F70809E6F78A828B838CF0E9
:0C460F00125479FDA810080874012AF666
:0C461B00E43B08F608A604ED24D3FDE5FE
:0C462700102412F886820886830886F0B2
:0C463300ED124F1AE510240FF874022657
:0C463F00FAE40836FB088604A8100808FE
:0E464B0086820886830886F0125479FF8A82E0
:0C4659008B838CF0124F1AE510240CF833
:0C466500E510240FF9742226F7E4083653
:0C46710009F70809E6F7E5102405F886B3
:0C467D00057E00E510240FF886820886F8
:0E468900830886F0ED124F1AA3EE124F1A743A
:0E4697007F5F8A828B838CF0124F1A90EE4B5D
:0C46A500E044C0F075820912381BA81018
:0E46B100080886820886830886F0125479FA7B
:0C46BF0030E715E5102406F88682088616
:0C46CB00830886F01258FE1259528052EB
:0C46D700E5102406F88602088603088619
:0E46E3000474222AFAE43BFB8A828B838CF05B
:0A46F100E4124F1AA3E4124F1AE579
:0C46FB00102406FA7B007C4090EFC4E025
:0C470700FDA3E0FEA3E0FFA81008E6C040
:0E471300E0C002C003C0048D828E838FF012BE
:084721001CDBE58124FCF5819D
:0E472900C285C2AF90DF53E0FAA3E07B00BA76
:074737000005BB0002804AEF
:0E473E0090DF62E0FAA3E053020C7B00BA04A5
:0E474C0031BB002E75D68190DF62E0A3E0E461
:0E475A00FAFB4A60147582E51239857582E615
:0B4768001239857582E2123985800647
:064773007582E612398593
:0547790075D601800D62
:0A477E00D28575D60175D7018003BE
:0347880075D601E2
:08478B00D2AF851081D010228D
:014793002203
:0847940090EE4BE054BFF0224F
:0C479C00C020C0E0C0F0C082C083C0029A
:0E47A800C003C004C005C006C007C000C001A9
:0E47B600C0D075D000C2AFE5E930E62453E96B
:0E47C400BF90EE4BE0FA30E51490EE4B7440DF
:0D47D2004AF090EE4BE06420F07582251255
:0247DF00381B85
:0547E100C28575D60140
:0E47E600E5E930E44F90DF62E0FAA3E0FBEA81
:0E47F40020E44090DF53E0FAA3E0FBEA247FCC
:0E480200502075D6817582E51239857582E6E3
:0D4810001239857582E61239857582E21233
:07481D00398575D6018013F7
:08482400EA24FE500E75D68156
:08482C00EA6005E5D91A80F8E5
:0348340075D60135
:0348370053E9EF53
:0E483A00E5E930E52853E9DF90DF62E0FAA3FC
:0E484800E0FBEA30E319E5D620E00375D60167
:0E485600D28590DF62E0FAA3E0FBEA20E103E6
:0348640075D70104
:0E486700539BFC759170D2AFD0D0D001D00021
:0E487500D007D006D005D004D003D002D083E7
:09488300D082D0F0D0E0D0203248
:0C488C00C020C0E0C0F0C082C083C002A9
:0E489800C003C004C005C006C007C000C001B8
:0E48A600C0D075D000C28975D6817582E5122A
:0C48B40039857582E61239857582E6129E
:0E48C00039857582E212398575D601C285C22E
:0E48CE0085D0D0D001D000D007D006D005D0C4
:0E48DC0004D003D002D083D082D0F0D0E0D040
:0248EA0020327A
:016277000026
:020000040003F7
:0E800000AA82AB83ACF0FD740AC0E0E4C0E0DD
:0E800E00C0E0C0E08A828B838CF0ED12522A13
:0E801C00AA82AB83E58124FCF5818A828B83E6
:07802A0012057990FFFF220F
:020000040000FA
:0E48EC0090F4C0E0FABAFF3E90EF61E4F0A352
:0348FA00F07A0849
:0C48FD00EA14FB75F00FA4FC24E9F5821E
:0C490900E434EEF583E4F0A3F0A3F0EC3E
:0A49150024E9FCE434EEFD74062CE6
:0E491F00F582E43DF583E4F08B02EA70D1905E
:05492D00F4C07401F06C
:014932002262
:0A493300C010858110C082C083C04F
:0E493D00F00581058190F4C0E0FDBDFF03127E
:02494B0048EC36
:04494D007D007E006B
:03495100BE08009D
:0C495400506EEE75F00FA4FFE510240477
:0A496000F8EF24E9F6E434EE08F65F
:0C496A00E5102404F88682088683E0FA39
:0C497600A3E0FBA3E0FCEA4B4C703EE524
:0A498200102404F88682088683A939
:0C498C001009E7F0A309E7F0A309E7F029
:0A499800EF24E9FFE434EEFA7406A0
:0E49A2002FF582E43AF583E4F08F828A83A336
:0C49B000A3A3A3A3A810181818E6F08D0C
:0349BC00828008EE
:0549BF000E8E05808D45
:0349C4007582FFFA
:0649C700851081D01022D2
:0549CD00AA82BA0800F7
:0C49D2005028EA75F00FA4FA24E9F582E1
:0C49DE00E434EEF583E4F0A3F0A3F0EA6B
:0A49EA0024E9FAE434EEFB74062A17
:0849F400F582E43BF583E4F0D9
:0149FC002298
:0A49FD00C010858110AA82BA0800DC
:054A07004003024AA972
:0D4A0C00C0E0C0A8C2AFEA75F00FA4FA2404
:0A4A1900E9FBE434EEFC8B828C8391
:0E4A2300A3A3A3A3A3E0FD7E0074072BFBE476
:0C4A31003CFC7F00C002C005C006E51080
:0E4A3D0024FBF8E6C0E008E6C0E008E6C0E0B2
:0E4A4B008B828C838FF01252B9E58124FBF52B
:0A4A590081D002EA24E9FAE434EE09
:0E4A6300FB74032AFCE43BFD90EF61E0FEA330
:0C4A7100E0FFE51024F9F8E62EFE08E650
:074A7D003FFF0EBE00010F18
:0E4A84008C828D83EEF0A3EFF074062AF5828B
:0E4A9200E43BF5837401F0D0E053E080E5E0F2
:094AA00042A8D0E07582018003F8
:034AA90075820013
:034AAC00D0102205
:054AAF00AA82BA080014
:0C4AB400501BEA75F00FA424E9FAE4346A
:0C4AC000EEFB74062AF582E43BF583E46B
:054ACC00F075820122DB
:044AD10075820022C8
:054AD500AA82BA0800EE
:0C4ADA00501DEA75F00FA424E9FAE43442
:0C4AE600EEFB74062AF582E43BF583E049
:074AF200FA60047582012245
:044AF90075820022A0
:0A4AFD00C010E581F5102407F581D3
:0C4B0700E5102404F8760090F4C0E0FBF8
:064B1300BBFF031248EC99
:0D4B190090EF61E02401F0A3E03400F0A86B
:044B260010087600FD
:064B2A00A81008B6080007
:054B30004003024BF1FF
:0A4B3500A81008E675F00FA4FC2498
:0A4B3F00E9FDE434EEFE74062DFFDC
:0D4B4900E43EFA8F828A83E07003024BEA9B
:0C4B56008D828E83A3A3A3A8100808E0A2
:0E4B6200F6A3E008F690EF61E0FBA3E0FAA8EE
:0C4B7000100808E6B5030908E6B50204C9
:044B7C00740180013F
:014B8000E450
:0C4B8100606774072DFBE43EFFE5102484
:0E4B8D0005F8A60308A6070876008D828E8321
:0C4B9B00E0FDA3E0FEA3E0FAC004E5107A
:0C4BA7002404F8E6C0E0E5102405F8E660
:0E4BB300C0E008E6C0E008E6C0E08D828E8318
:0E4BC1008AF0121CDBAA82E58124FCF581D06B
:0A4BCF0004E5102404F8A602EC240B
:0A4BD900E9FCE434EEFA74062CF552
:074BE30082E43AF583E4F0DF
:074BEA00A8100806024B2A87
:064BF100851081D01022A6
:01627800FF26
:020000040001F9
:0280B0007A0054
:0B80B200EA75F00DA4FB24C1FCE434CF
:0C80BD00F4FD74082CF582E43DF583E02E
:0A80C900FC6031EB24C1F582E434C1
:0C80D300F4F583E0FBA3E0FCC002C00356
:0A80DF00C00474F4C0E07480C0E037
:0B80E900C003C00490000075F00022EE
:0980F400D004D003D0020A80B5CB
:0480FD007582012265
:04810100AA827B00D3
:0A810500EB75F00DA424C1FCE43476
:0C810F00F4FD74082CF582E43DF583E0DB
:09811B00FC6009ECB502028003CE
:038124000B80DEEF
:0A812700EB75F00DA424C1FAE43456
:0C813100F4FB74082AF582E43BF583E0BF
:0C813D00FC60097C008A828B838CF0229D
:0781490090000075F0002218
:06815000C0108581101231
:0E8156008101AA82AB83ACF0EA4B4C603A7414
:0D816400022AFAE43BFB8A828B838CF01226
:0B8171005479FAA3125479FBC0037488
:0A817C0095C0E07481C0E0C002C0AD
:0C81860003E51024FBF8868208868308BD
:0381920086F02252
:08819500AA82D0038A82800354
:03819D00758200E8
:0381A000D01022DA
:020000040000FA
:02627900A65924
:02627B00FA59CE
:09627D004E5A0000012901000045
:02628600A25A1A
:02628800F65AC4
:09628A004A5B000002080000005C
:026293009E5B10
:02629500F25BBA
:09629700465C0000041000000048
:0262A0009A5C06
:0262A200EE5CB0
:0962A400425D0000051704000032
:0262AD00965DFC
:0262AF00EA5DA6
:0A62B1003E5E000006000000000041
:0C62BB00000000000000000000000000D7
:020000040001F9
:0281A3007A045C
:0C81A500EA14FB75F018A4FC2464F582B9
:0A81B100E434EFF583E4F0EC2464FD
:0C81BB00FCE434EFFD74162CF582E43D6A
:0E81C700F583E4F0A3F08C828D83A3A3E4F093
:0E81D500A3F074132CF582E43DF583E4F0A3CF
:0E81E300F0A3F074062CF582E43DF583E4F081
:0681F1008B02EA70AF22D0
:0A81F700C010E581F510240AF5819F
:0A820100AD82A810087600A810084E
:0C820B0008E4F608F608F67FFFE51024F2
:0482170005F87600F0
:0C821B00E5102405F8E675F005A4FBACA6
:0A822700F0E5102406F8EB2412F62F
:0A823100EC34F508F6E5102406F819
:0E823B008682088683E0606FEF30E76B7A0082
:078249008B06E5102406F886
:0C825000C007E5102406F886820886832B
:0E825C00E0FFC3EA9FE433D0076042C007EEA4
:0A826A002412FFEC34F5FB0FBF00F7
:02827400010BFC
:0E827600EA2FF582E43BF583E0FBB5050474C6
:0382840001800175
:01828700E412
:0C828800D007601AE5102405F88607A84E
:0A8294001008A602EE2412F582EC99
:08829E0034F5F583E0FB8B02CF
:0382A6000A80A7A4
:0982A900E5102405F80602821B11
:0282B2007A0050
:0382B400BA040009
:0C82B700501AC007EA75F018A42464FBFC
:0C82C300E434EFFF8B828F83E0D0076073
:0482CF00030A80E13D
:0782D300EF30E7030284A66F
:0382DA00BA0400E3
:0582DD0040030284A62D
:0A82E200EA75F018A42464FAE434ED
:0A82EC00EFFBA8100808A60208A680
:0C82F60003087600A8100808740626FA99
:0E830200E40836FB0886048A828B838CF0E444
:0C831000124F1AA8100808740126FAE4A5
:0E831C000836FB0886048A828B838CF0EF12F1
:0C832A004F1AA8100808740626FAE40890
