:020000040000FA
:0600000002008B024DEC32
:01000B0032C2
:0100130032BA
:03001B0002544547
:0100230032AA
:03002B000237A2F7
:01003300329A
:01003B003292
:0300430002403840
:03004B00023F541D
:03005300023F5811
:03005B00023F5F02
:03006300023FA4B5
:01006B003262
:030073000254C66E
:01007B003252
:03008300024D002B
:0300EE0002008687
:050086001200F180FEF4
:0E00F100123DE443FD3053FDF3E4C0E0C0E0F7
:0E00FF00C0E07401C0E0E4C0E0C0E0C0E07406
:0B010D00DCC0E0E4C0E074AEC0E074B1
:0B0118006FC0E07480C0E09001631233
:0E0123000AC2E58124F4F581E4C0E0C0E0C02A
:0E013100E07402C0E0E4C0E0C0E0C0E074DCB6
:0A013F00C0E0E4C0E074B2C0E07458
:0B0149006FC0E07480C0E0900423123F
:0E0154000AC2E58124F4F5811210AA90000081
:01016200227A
:0A016300C010E581F5102406F581B7
:0A016D00A810087600A8100808E4A6
:0C017700F608F6E5102404F8E4F608F69B
:0C018300E5102406F8760090C20075F02C
:0D018F0001E4124E487401C0E075820412B4
:0E019C001DF3AB82AC83ADF0158190E000EB5B
:0E01AA00F0A3ECF0A3EDF090E0037432F0E46B
:0E01B800A3F090E0057464F0E4A3F090001949
:0E01C600120FBD90000075F000125FEDE58293
:0801D4007006906FB9124E5144
:0A01DC00900032120FBD906FD01298
:0C01E6004E5175820112604175820012BA
:0201F200609516
:0C01F400AB100B7C007D4090E000E0FEB2
:0E020000A3E0FFA3E0FA74FAC0E0E4C0E0C09F
:0E020E0003C004C0058E828F838AF012262161
:0D021C00AA82E58124FBF581E4BA0101040A
:05022900700302039CBC
:08022E00A81008B60102801DB2
:09023600A81008B602030202DB65
:08023F00A81008B68102800C32
:09024700A81008B682030202DBD4
:030250000203772F
:07025300906FF7124E51E518
:0C025A00102402FB7C007D40C003C004A7
:0E026600C005758201120A78AB8215811581E0
:0C0274001581EB7049A8100808860308EB
:0E02800086047D007E00C003C004C005C006D9
:0D028E007582001260E9E58124FCF581A86D
:0C029B001008088603088604C003C00495
:0E02A700740AC0E0758206124E8C1581158116
:0D02B500158190E003741EF0E4A3F08010AA
:0702C200907013124E5190E1
:0902C900E003742CF0A37401F0B1
:0702D20090701B124E510257
:0202D90003928E
:0702DB0090701E124E51E568
:0C02E200102404FB7C007D40C003C0041D
:0E02EE00C005758200120A78AB821581158159
:0C02FC001581EB7054E5102404F8860313
:0E030800088604C003C004740AC0E0758206B3
:0C031600124E8C158115811581E5102414
:0E03220004F886030886047D007E00C003C038
:0E03300004C005C0067582011260E9E5812453
:0D033E00FCF58190E003741EF0E4A3F09044
:0A034B00E005741EF0E4A3F0801A30
:07035500907013124E51904D
:0E035C00E003742CF0A37401F090E005742C03
:05036A00F0A37401F096
:08036F0090701B124E51801B1F
:0C037700A8100886037C00C003C00474BA
:0E03830010C0E0758202124E8C158115811596
:0103910081EA
:0A039200E5102406F876000201F4DD
:0A039C00E5102406F88603E510249E
:0603A60006F806BB020090
:0503AC0050030201F402
:0A03B100E5102406F87600A81008F5
:0C03BB007601AB100B7C007D4090E00050
:0E03C700E0FEA3E0FFA3E0FAE4C0E0C0E0C067
:0E03D50003C004C0058E828F838AF01220546C
:0C03E300E58124FBF581A810087602AA31
:0C03EF00100A7B007C4090E000E0FDA3C1
:0E03FB00E0FEA3E0FFE4C0E0C0E0C002C003EB
:0E040900C0048D828E838FF0122054E5812472
:0A041700FBF5810201F4851081D08D
:020421001022A7
:0A042300C010E581F5102410F581EA
:0C042D00A810080876007B0053FD3F90EB
:0E0439000064C003120FBD12613DAC82AD83A2
:0E044700AEF090E0A8ECF0A3EDF0A3EEF0E430
:0E045500C0E0C0E0C0E0E4C0E0E4C0E0C0E011
:0E0463008C828D838EF0126191E58124FAF572
:0C047100811261E5AC82D003A8100808DD
:03047D0008A604CA
:0E048000900005E4F5F0C003124E4BAD82AEC5
:0C048E0083D003BDFF06BEFF030206CBB7
:09049A00BD0D06BE000302055D64
:0804A300BD3105BE00028038E6
:0804AB00BD3205BE0002806CA9
:0904B300BD4306BE00030206630E
:0904BC00BD6306BE0003020679CF
:0904C500BD6D06BE000302056ACC
:0904CE00BD7006BE00030205A189
:0904D700BD7506BE000302060318
:0304E0000206C24F
:0A04E300C003A810087601AF100F47
:0E04ED007D007E4090E000E0FCA3E0FAA3E07A
:0E04FB00FBC003E4C0E0C0E0C007C005C006BF
:0E0509008C828A838BF0122054E58124FBF54E
:0805170081D003D0030206CBE2
:0A051F00C003A810087602AA100A13
:0E0529008A057E007F4090E000E0FBA3E0FA30
:0E053700A3E0FCC003E4C0E0C0E0C005C006C5
:0E054500C0078B828A838CF0122054E581243B
:0A055300FBF581D003D0030206CBB4
:0B055D0090701BC003124E51D003022F
:0205680006CBC0
:0C056A00E5102404FA7C007F408A828C9B
:0C057600838FF0C0031247D59070321242
:0C0582004E51E5102404FA7C007F408AF2
:0C058E00828C838FF01250BF90701B1203
:07059A004E51D0030206CB15
:0A05A10090F74AE0FA60030206CB6F
:0C05AB0090E0A7E4F0C0037407C0E07407
:0C05B700E0C0E0E4C0E090000075F0003F
:0E05C300126239AA82158115811581D003BA02
:0D05D1000123C003121302E5828583F09020
:0E05DE00F74BF0A3E5F0F090F74A7402F090AE
:0805EC007038124E51D00302D9
:0205F40006CB34
:0B05F60090703FC003124E51D0030272
:0206010006CB26
:0A06030090F74AE0FA60030206CB0C
:0C060D0090E0A7E4F0C0037407C0E074A4
:0C061900E0C0E0E4C0E090000075F000DC
:0E06250012628DAA82158115811581D003BA4B
:0D0633000122C003121302E5828583F090BE
:0E064000F74BF0A3E5F0F090F74A7401F0904C
:09064E00704C124E51D00380746F
:0C06570090703FC003124E51D003806829
:08066300A810080808B61A00EF
:08066B005006A810080808065B
:06067300A81008080806AB
:0B067900A810080808E624F45006A8AA
:05068400100808081633
:0C068900A8100808088682C0031262E175
:0706950090705D124E51A8A8
:0C069C001008080886047A00C004C002A0
:0E06A800740AC0E0758206124E8C1581158111
:0C06B600158190701B124E51D00380097A
:0906C2008D82C003124E4ED003DC
:0C06CB00308658A8100808E624FA5047B2
:0A06D700A810087601A8100808B664
:0206E1006400B3
:0706E3004005A81008768114
:0C06EA00C003AA100A7C007D4090E000D4
:0E06F600E0FEA3E0FFA3E0FBC003E4C0E0C011
:0E070400E0C002C004C0058E828F838BF0120D
:0C0712002054E58124FBF581D003D003C6
:08071E00A81008087600800E07
:07072600A8100808B66400EA
:07072D005005A810080806A2
:0C073400308746EB24FA503DA8100876F0
:0407400002BB640094
:070744004005A810087682B1
:0C074B00AA100A8A037C007D4090E000A8
:0E075700E0FEA3E0FFA3E0FAE4C0E0C0E0C0D3
:0E07650003C004C0058E828F838AF0122054D8
:06077300E58124FBF58185
:040779007B0080067B
:03077D00BB64005A
:0307800050010B1A
:0E07830090E003E0FAA3E0FC4A60111ABAFF0E
:02079100011C49
:0C07930090E003EAF0A3ECF0D2848002B6
:02079F00C28412
:0E07A10090E005E0FAA3E0FC4A60111ABAFFEE
:0207AF00011C2B
:0C07B10090E005EAF0A3ECF0D285800295
:0207BD00C285F3
:0707BF007A003084027A0188
:0607C6003085034302022E
:0E07CC007C007D007E00C003C002C004C0059A
:0E07DA00C0067582031260E9E58124FCF581FA
:0E07E800121302AA82AC83D00390F74BE0FDFF
:0E07F600A3E0FEEAC39DFAEC9EFCE4FDFEEAE1
:0E0804002AFAEC33FCED33FDEE33FEC374E84C
:0D0812009A74039CE49DE49E4003020900DB
:0A081F0090F74AE0FA7003020900A6
:09082900907067C003124E5112D9
:0B0832006335D00390E0A7E0700302E4
:02083D0008F1C0
:0C083F00907077C003124E51D0037A0075
:0D084B0090E0A7E0FCC3EA9C40030208EA2D
:0A085800EAC454F0FC2407FDE43468
:0C086200E0FE7F008D828E838FF0C002CC
:0B086E00C003C0041250BF9070841241
:0A0879004E51D004EC2407FDE434D6
:0C088300E0FE740F2DF582E43EF583E0EA
:0E088F00FD3395E0FEC004C005C006740AC02B
:0E089D00E0758206124E8C1581158115819032
:0908AB007086124E51D004EC24B9
:0A08B40007FCE434E0FD740D2CF5A0
:0E08BE0082E43DF583E0FCA3E0FDC004C0052C
:0E08CC00740AC0E0758206124E8C15811581EB
:0E08DA00158190708D124E51D003D0020A028B
:0208E800084BBB
:0708EA0090E0A7E4F0800A92
:0A08F100907093C003124E51D00323
:0508FB0090F74AE4F053
:0E09000090E0A8E0FAA3E0FCA3E0FDEA4C4D75
:05090E007003020480EB
:0E09130090000AC003126389AA82AC83ADF083
:0A092100D003EA4C4D70030204807D
:0E092B008A828C838DF0C002C003C004C00518
:0E0939001263DDAE82D005D004D003D002BE22
:040947000602801410
:05094B00BE0702805A06
:06095000BE09030209F4D8
:06095600BE0F03020A0CB3
:03095C00020A5A32
:0E095F00C0039070A2C002C003C004C0051205
:06096D004E5190701B12B8
:0E0973004E51D005D004D003D00274032AFEEA
:0E098100E43CFF8D038E828F838BF0C002C09A
:0C098F0003C004C0051250BF90701B1282
:0D099B004E51D005D004D003D002D003028D
:0209A8000A5AE9
:0E09AA00C0039070B3C002C003C004C00512A9
:0609B8004E5190701B126D
:0E09BE004E51D005D004D003D00274032AFE9F
:0E09CC00E43CFF8D038E828F838BF0C002C04F
:0C09DA0003C004C0051250BF90701B1237
:0E09E6004E51D005D004D003D002D00380665D
:0E09F4009070D0C002C003C004C005124E5166
:0A0A0200D005D004D003D002804ECE
:0E0A0C00C0039070E5C002C003C004C0051214
:060A1A004E5190701B120A
:060A20004E519070F91226
:0E0A26004E51D005D004D003D00274032AFE36
:0E0A3400E43CFF8D038E828F838BF0C002C0E6
:0C0A420003C004C0051250BF90701B12CE
:0C0A4E004E51D005D004D003D002D003DC
:080A5A00EA4C4D700302048018
:0E0A62008A828C838DF0C003126431D00302AF
:060A70000480851081D016
:020A760010224C
:0A0A7800C010858110AA827430C0FE
:0E0A8200E07480C0E08A8212582FAA8215818B
:060A90001581EA7026FA50
:050A9600BA0102801C02
:0C0A9B00E51024FBF8860308860408869A
:0E0AA700058B828C838DF01258A0AB828B02DF
:020AB50080DFE0
:040AB7007A0080023F
:020ABB007AFFC0
:050ABD008A82D0102226
:016FAD0003E0
:046FAE0041707000BE
:076FB200427574746F6E005C
:0E6FB9004E616E6F537461636B20537461728E
:096FC700743A204F6B2E0D0A00F4
:0E6FD0004E616E6F53656E736F72204E3731D7
:0E6FDE0030204578616D706C65204170706CDC
:0B6FEC0069636174696F6E2E0D0A006E
:0E6FF70052656164696E6720696C6C756D6926
:0E7005006E6174696F6E20285531292E2000AF
:087013006661696C65642E00E2
:03701B000D0A005B
:0E701E0052656164696E672074656D7020288C
:06702C005532293A200054
:067032004D41433A20002D
:0770380050696E670D0A00AC
:0D703F004E6F206275666665722E0D0A00A8
:0E704C00756470206563686F5F726571282936
:03705A000D0A001C
:0A705D004368616E6E656C3A200016
:0E70670050696E672074696D656F75742E0D2B
:027075000A000F
:0D707700526573706F6E73653A200D0A004C
:027084002000EA
:077086002064626D2C200064
:06708D00206D730D0A00E6
:0E7093004E6F20726573706F6E73652E0D0A5E
:0170A10000EE
:0E70A200526F7574652062726F6B656E20749C
:0370B0006F20004E
:0E70B30049434D50206D65737361676520621F
:0E70C10061636B2C206E6F20726F75746520FA
:0170CF0000C0
:0E70D0005061796C6F616420546F6F204C65C5
:0770DE006E6774680D0A00E3
:0E70E50044415441206261636B2C204E6F20A9
:0670F300726F7574650068
:0470F900546F2000B0
:0670FD004C696768740095
:0571030054656D7000F1
:057108004C454473003A
:04710D005241570094
:0971110078787878787832310042
:0E722D0001000100000000000002000100004E
:0D723B000000000003000100000000000042
:03724800FD708056
:03724B000371804C
:03724E0008718044
:037251000D71803C
:037254000D718039
:0372570011718032
:0D725A0003FFFFFFFF0000000000007D00AB
:017267000026
:02726800000024
:0500E40090E111E4F0C1
:0A0AC200C010858110C082C08305BA
:0C0ACC008105810581E51024F9F886827F
:0D0AD800088683121CCCAC82AD83AEF0A862
:0C0AE50010080808A60408A60508A606CC
:0C0AF100A810080808B6000B08B60007A3
:070AFD0008B60003020CB370
:0A0B0400E51024F5F8E6C0E0E51066
:0E0B0E0024FBF8E6C0E008E6C0E008E6C0E020
:0C0B1C00E51024F9F8E6C0E008E6C0E0AF
:0C0B2800A810080808868208868308864A
:0C0B3400F0121A44E58124FAF581A810A3
:0E0B4000080808742026FFE40836FA08860329
:0E0B4E008F828A838BF0125E41FFA3125E41FC
:0C0B5C00FAA3125E41FBE51024F6F8E657
:0C0B6800C0E008E6C0E008E6C0E0A8100D
:0E0B740008E6C0E008E6C0E08F828A838BF0BE
:0E0B820012340FAA82AB83AFF0E58124FBF59D
:0C0B900081A810080808868208868308E7
:0E0B9C0086F0EA125959A3EB125959A3EF1231
:0E0BAA005959C0E0C0A8C2AF90F751E0240135
:0C0BB800F090F751E0FABA0117A81008FD
:0E0BC400080890F74DE6F008A3E6F008A3E657
:060BD200F0121BB1803F90
:0E0BD80090F756E0FA703890F74DE0FAA3E07F
:0E0BE600FBA3E0FF741F2AFAE43BFB8A828B1C
:0C0BF400838FF0125E41FAE51024F5F842
:0B0C0000C3E69A4012A81008080890F4
:0C0C0B00F74DE6F008A3E6F008A3E6F0C1
:0C0C1700A810080808741F26FAE408362C
:0E0C2300FB0886078A828B838FF0125E41FAEF
:0E0C310090F754E0FBC39A500590F754EAF098
:0C0C3F00A810080808742326FBE40836FF
:0E0C4B00FF08860490E111E0FD8B828F838C00
:0B0C5900F012595990E111ED04F090E9
:0D0C6400F755E0FBC39A500590F755EAF0F4
:0C0C7100A810080808740326FBE40836ED
:0C0C7D00FC088605EA75F00CA424ABFA14
:0C0C8900E434E0FE7F00C003C004C0059E
:0E0C95008A828E838FF0122E5C1581158115D8
:0E0CA300817A01D0E053E080E5E042A8D0E085
:020CB1008002BF
:020CB3007AFFC6
:0C0CB500BA0163E51024F2F886030886FB
:0E0CC10004088605BB0008BC0005BD000280CB
:010CCF001B09
:0C0CD0008B828C838DF0A810080808E6C9
:0D0CDC00125959A308E6125959A308E6124F
:020CE900595957
:0E0CEB0090F756E0FB602990F74DE0FBA3E088
:0E0CF900FCA3E0FD741F2BFBE43CFC8B828C03
:0C0D0700838DF0125E41FBE51024F5F82E
:080D1300C3EB9650031236C138
:080D1B008A82851081D01022AC
:0A0D2300C010E581F5102406F581EB
:0D0D2D00AA82AB83ACF0C0E0C0A8C2AF90BA
:0E0D3A00F74DE0FDA3E0FEA3E0FFEAB5050ED5
:0E0D4800EBB5060AECB507067A007B007C00CE
:0B0D5600E4BA0007BB0004BC0001046D
:0C0D6100FD601290F74DA81008E0F6A30A
:090D6D00E008F6A3E008F6800B93
:0B0D7600A81008A60208A60308A604A7
:0C0D8100C005A81008860208860308863A
:0E0D8D000474032AFEE43BFF8C058E828F83E4
:0E0D9B008DF0C002C003C004C00512324ED05D
:0C0DA90005D004D003D002E5102404F8AB
:0C0DB50074112AF6E43B08F608A604E5D9
:0C0DC100102404F8740B26FDE40836FE34
:0E0DCD000886078D828E838FF0125E41FDA393
:0E0DDB00125E41FEA3125E41FFED4E4FD005A9
:0C0DE9006020E5102404F8868208868350
:0E0DF5000886F0C002C003C004C00512324ED2
:080E0300D005D004D003D00299
:0E0E0B0074032AFAE43BFBC005C002C003C01A
:0E0E19000490E10575F000122E5C1581158124
:0E0E27001581D00590F750E02401F0D0E05383
:0E0E3500E080E5E042A8D0E090F756E0FA60D9
:070E430006ED60031236C149
:060E4A00851081D010228A
:0A0E5000C010858110C082C083C06D
:0B0E5A00F00581E5102404F87600127A
:0C0E650010FCA81008868208868308860E
:0B0E7100F0125E41FEA3125E41FFE59F
:0C0E7C001024FCF8E62EFD08E63FFA8D7D
:0E0E88000390F752E0FCA3E0FDC3EC9EED9F4B
:0E0E9600501FC3EB9EEA9F503590F752E0FCD0
:0C0EA400A3E0FDC3EC9BED9A5026E51086
:070EB0002404F87601801D07
:0E0EB700C3EB9EEA9F400F90F752E0FCA3E0D1
:080EC500FDC3EC9BED9A500700
:070ECD00E5102404F8760192
:0C0ED400A8100886820886830886F0EBD0
:090EE000125959A3EA125959E50F
:0A0EE900102404F8E67003020FACB9
:0E0EF30090F74DE0FCA3E0FDA3E0FE74032C9D
:0E0F0100FCE43DFD8C828D838EF0C002C003A7
:0E0F0F0012324ED003D00290F74DE0FCA3E06A
:0E0F1D00FDA3E0FE74032CFCE43DFD8C828DF0
:0D0F2B00838EF0EB125959A3EA1259599028
:0E0F3800F752E0FCA3E0FDC3EB9CEA9D5034B1
:0E0F460090F74DE0FAA3E0FBA3E0FC74032A51
:0E0F5400FAE43BFB90E0F6E0FDA3E0FEA3E034
:0E0F6200FFC002C003C0048D828E838FF01288
:0A0F7000301B1581158115818032B8
:0E0F7A0090F74DE0FAA3E0FBA3E0FC74032A1D
:0E0F8800FAE43BFB90E0F3E0FDA3E0FEA3E003
:0E0F9600FFC002C003C0048D828E838FF01254
:080FA400301B15811581158138
:0B0FAC00121115E582FA70031236C125
:060FB700851081D010221C
:0D0FBD00AA82AB837C00EA4B70030210A3F4
:0E0FCA00C002C0031210FCD003D00290F752F8
:0E0FD800E0FDA3E0FEEA2DFAEB3EFB90F74DA4
:0E0FE600E0FDA3E0FEA3E0FF74032DFDE43E5A
:0E0FF400FE8D828E838FF0C002C00312324E3B
:0E100200D003D00290F74DE0FDA3E0FEA3E086
:0E101000FF74032DFDE43EFE8D828E838FF073
:0A101E00EA125959A3EB1259599038
:0E102800F752E0FDA3E0FEC3EA9DEB9E5034BC
:0E10360090F74DE0FAA3E0FBA3E0FD74032A5F
:0E104400FCE43BFB90E0F6E0FEA3E0FFA3E03F
:0E105200FAC004C003C0058E828F838AF0129C
:0A106000301B1581158115818032C7
:0E106A0090F74DE0FAA3E0FBA3E0FD74032A2B
:0E107800FCE43BFB90E0F3E0FEA3E0FFA3E00E
:0E108600FAC004C003C0058E828F838AF01268
:08109400301B15811581158147
:07109C00121115AA828A045B
:0610A300EC70030236C1EF
:0110A9002224
:0E10AA00E4C0E0C0E0C0E0E4C0E0E4C0E0C0AC
:0C10B800E0C0E07450C0E0E4C0E0741A36
:0B10C400C0E07471C0E07480C0E090D8
:0E10CF001A3F120AC2AA82E58124F4F581BA02
:0E10DD000112C2AF90F7567401F090F752E482
:0610EB00F0A3F0023649FB
:0110F10022DC
:0A10F200C2AF90F756E4F00236C0DA
:0E10FC00C0E0C0A8C2AF90F757E02401F0D0CA
:0B110A00E053E080E5E042A8D0E022C6
:0A111500C010E581F5102406F581F5
:0C111F00A810087600C0E0C0A8C2AF9085
:09112B00F757E01490F757F0901B
:09113400F757E0FB60030212EC26
:0A113D0090F751E0FB70030212EC82
:06114700A8100808760064
:0A114D0090E0F9E0FCE4BC000104AE
:04115700FCB40100E3
:0E115B00E433FC603190E0FF75F000125E415D
:0E116900FCA3125E41FDA3125E41FE74082C31
:0E117700FCE43DFD8C828D838EF0125E41FC07
:0C118500A3125E41FDA3125E41FE800635
:061191007C007D007E00E1
:0E1197008C078D038E02BC0009BD0006BE0051
:0411A500030212AC83
:0E11A90074112FFCE43BFD8A068C828D838E30
:0E11B700F0C002C003C00712324ED007D003B2
:0E11C500D00274032FFCE43BFD8A068C828D61
:0E11D300838EF0C002C003C00712324ED00758
:0E11E100D003D002741F2FFCE43BFD8A068C65
:0B11EF00828D838EF0A8100808081203
:0E11FA005E41F6C007C003C00290F755E0FA50
:0C120800A810080808C3EA96E433D002DE
:0C121400D003D007600AA810080808905A
:04122000F755E6F0A8
:0C122400E5102404F874032FF6E43B08E6
:0E123000F608A6028C828D838EF0125E417548
:0A123E00F00CA424ABFAE434E0FB4A
:0C1248007F00C004C005C006E5102404AF
:0E125400F8E6C0E008E6C0E008E6C0E08A82E6
:0E1262008B838FF0122E5C158115811581D0C3
:0E12700006D005D0048C828D838EF0125E4174
:0E127E00FC90F74DE0FAA3E0FBA3E0FD741F27
:0E128C002AFAE43BFB8A828B838DF0125E41CE
:09129A00FAC3EC9A500302114D55
:0912A300A8100808760102114DA3
:0712AC0090F758E0FA601B07
:0B12B30090F758E0FA600E121339901B
:0A12BE00F758E01490F758F080EBA9
:0612C800A81008087601E1
:0912CE00A8100808B6010280080E
:0812D70090F759E0FABA010D8D
:0B12DF00A81008760190F759E4F01207
:0212EA0036C10B
:0C12EC00D0E053E080E5E042A8D0E0A88C
:0812F80010088682851081D0E8
:021300001022B9
:0E130200C0E0C0A8C2AF90F752E0FAA3E0FB33
:0E131000D0E053E080E5E042A8D0E08A828B76
:02131E00832228
:0E132000C0E0C0A8C2AF90F751E0FAD0E05391
:0B132E00E080E5E042A8D0E08A8222C7
:08133900C010858110058190B0
:09134100F757E0FA6003021529D8
:0D134A0090F752E02401F0A3E03400F09091
:0E135700F752E0FAA3E0FB4A703390E0F3E0B7
:0E136500FAA3E0FBA3E0FC90E0F6E0FDA3E0BD
:0E137300FEA3E0FF90E0F3EDF0A3EEF0A3EF99
:0D138100F090E0F6EAF0A3EBF0A3ECF090A2
:06138E00F75AE02401F013
:0E13940090E0F3E0FAA3E0FBA3E0FC8A828B7A
:0C13A200838CF0125E41FAE4BA000104F2
:0413AE00FAB401008C
:0E13B200E433FA604A90E0F3E0FAA3E0FBA314
:0E13C000E0FC74042AFAE43BFB74022AFAE40F
:0E13CE003BFB8A828B838CF0125E41FAA312E5
:0E13DC005E41FBA3125E41FC74082AFAE43B5A
:0D13EA00FB8A828B838CF0125E41FAA31205
:0A13F7005E41FBA3125E41FC80067C
:061401007A007B007C0074
:0E1407008A058B068C07BA0009BB0006BC00E4
:041415000302153386
:0E14190074032DFAE43EFB8F048A828B838CD1
:0E142700F0125E41FAA3125E41FBC005C00642
:0E143500C00790F752E0FCA3E0FDC3EC9AED77
:0E1443009BE433D007D006D0056003021533BA
:0E14510074032DFAE43EFB8F048A828B838C99
:0E145F00F0C005C006C00712324ED007D006FE
:0E146D00D00574112DFAE43EFB8F04C005C0BB
:0E147B0006C007740B2AFDE43BFE8C078D8231
:0E1489008E838FF0125E41FDA3125E41FEA322
:0E149700125E41FFED4E4FD007D006D005602B
:0E14A500158A828B838CF0C005C006C007122A
:0814B300324ED007D006D0052F
:0E14BB00741F2DFAE43EFB8F048A828B838C13
:0C14C900F0A81008125E41F6C005C00635
:0C14D500C00790F755E0FDA81008C3ED1B
:0C14E10096E433D007D006D0056008A8C0
:0714ED00100890F755E6F02E
:0E14F40074032DFDE43EFE8A828B838CF01281
:0B1502005E4175F00CA424ABFAE43449
:0C150D00E0FB7C00C005C006C0078A821D
:0E1519008B838CF0122E5C15811581158102DA
:0215270013941B
:0A15290090F758E02401F012573546
:0A15330090F758E0FA7003125735E4
:06153D00851081D0102290
:0E15430090F757E0FA600790F7597401F02214
:0C15510090F755E075F00CA424ABFAE410
:0B155D0034E0FB8A828B83E0700B906F
:0A156800F755E01490F755F080DF0E
:0C15720090F755E075F00CA424ABFAE4EF
:08157E0034E0FB0ABA00010B86
:0C15860090F755E075F00CA424ABFCE4D9
:0C15920034E0FD8C828D83A3E0FCA3E01C
:0E159E00FDA3E0FE74022CFCE43DFD8C828D6A
:0E15AC00838EF0125E41FCA3125E41FDA3127D
:0E15BA005E41FE8A828B83ECF0A3EDF0A3EE7F
:0C15C800F090F755E075F00CA424ABFA8D
:0C15D400E434E0FB8A828B83A3E0FAA3DE
:0E15E000E0FBA3E0FC90F755E075F00CA424AE
:0A15EE00ABFDE434E0FE74042DFDB3
:0E15F800E43EFE7F00EAB5055FEBB5065BEC56
:0C160600B5075790F755E075F00CA424D0
:0A161200ABFAE434E0FB0ABA000171
:01161C000BC2
:0C161D0090F755E075F00CA424ABFCE441
:0C16290034E0FD8C828D83A3E0FCA3E084
:0E163500FDA3E0FE74022CFCE43DFD8C828DD2
:0E164300838EF0125E41FCA3125E41FDA312E5
:0E1651005E41FE8A828B83ECF0A3EDF0A3EEE7
:01165F00F09A
:0C16600090F755E075F00CA424ABFAE400
:0C166C0034E0FB8A828B83A3E0FAA3E049
:0E167800FBA3E0FC74082AFAE43BFB8A828B99
:0E168600838CF0125E41FAA3125E41FBA312A8
:0E1694005E41FC90F74DEAF0A3EBF0A3ECF002
:0116A2002225
:0A16A300C010858110AA82AB83AC51
:0E16AD00F090F74DE0FDA3E0FEA3E0FF741106
:0E16BB002DFDE43EFEC005C006C0078A828BEE
:0D16C900838CF012301B1581158115819066
:0E16D600F74DE0FAA3E0FBA3E0FC74032AFA50
:0D16E400E43BFB8A828B838CF012324E9027
:0C16F100F752E0FAA3E0FBE51024FCF83F
:0E16FD00E62AFA08E63BFB90F74DE0FCA3E07E
:0E170B00FDA3E0FE74032CFCE43DFD8C828DFA
:0D171900838EF0EA125959A3EB1259599032
:0E172600F752E0FCA3E0FDC3EA9CEB9D5034BB
:0E17340090F74DE0FAA3E0FBA3E0FC74032A5B
:0E174200FAE43BFB90E0F6E0FDA3E0FEA3E03E
:0E175000FFC002C003C0048D828E838FF01292
:0A175E00301B1581158115818032C2
:0E17680090F74DE0FAA3E0FBA3E0FC74032A27
:0E177600FAE43BFB90E0F3E0FDA3E0FEA3E00D
:0E178400FFC002C003C0048D828E838FF0125E
:08179200301B15811581158142
:03179A00D010224A
:0A179D00C01085811005810581054B
:0E17A70081AA82AB83ACF0125E41FDE4BD006E
:0217B50001042D
:0417B700FDB401007C
:0E17BB00E433FD603F74042AFAE43BFB740241
:0E17C9002AFAE43BFB8A828B838CF0125E418D
:0E17D700FAA3125E41FBA3125E41FC74082AC5
:0E17E500FAE43BFB8A828B838CF0125E41FAA1
:0C17F300A3125E41FBA3125E41FC8006C5
:0617FF007A007B007C0073
:0C180500A81008A60208A60308A604A864
:0C1811001008741126FDE40836FE08865D
:0E181D00078D828E838FF012324E90F757E0C7
:0C182B00FD7070A81008740326FDE4088E
:0E18370036FE0886078D828E838FF012324EA9
:0C184500A81008741F26FDE40836FE08F9
:0D18510086078D828E838FF0125E41FD9020
:0D185E00F755E0FEC39D500590F755EDF0E5
:0C186B00A81008740326FEE40836FF08ED
:0C1877008602ED75F00CA424ABFBE434F9
:0C188300E0FC7D00C006C007C0028B82A4
:0E188F008C838DF0122E5C15811581158180E1
:01189D002327
:0C189E00A81008741126FAE40836FB08B4
:0E18AA008604C002C003C00490E0F975F0008F
:0918B800122E5C158115811581C9
:0C18C100A81008741F26FAE40836FB0883
:0D18CD0086048A828B838CF0125E41FA90B3
:0E18DA00F74DE0FBA3E0FCA3E0FD741F2BFB29
:0E18E800E43CFC8B828C838DF0125E41FBC3CE
:0918F600EA9B40057582018003A4
:0318FF00758200EF
:06190200851081D01022C7
:0E190800AA82AB83ACF090F75AE0FD8A828B86
:0B191600838CF01259590ABA00010B33
:0E19210090F752E0FDA3E0FE8A828B838CF0EB
:09192F00ED125959A3EE025959B9
:0A193800C010858110C082C083C07A
:0C194200F0058105810581A8100886824F
:0E194E000886830886F0125E41FD90F75AE08D
:06195C00FEB5050280311A
:0C196200A81008740126FDE40836FE08F9
:0E196E0086078D828E838FF0125E41FDA312DC
:0E197C005E41FE90F752E0FFA3E0FAC3ED9F3C
:09198A00EE9A50057D01021A30AD
:0C199300A81008740126FEE40836FF08C6
:0E199F0086028E828F838AF0125E41FAA312B6
:0E19AD005E41FB90F752E0FCA3E0FEECC39A13
:0A19BB00FCEE9BFEE51024FBF8E5AE
:0C19C500102404F9E6F70809E6F7080909
:0C19D100E6F7E5102404F88682088683FF
:0E19DD000886F0125E41FDA3125E41FFC3ECCE
:0E19EB009DEE9F503E90F752E0FCA3E0FEEC14
:0E19F900C39AFAEE9BFBEDC39AFAEF9BFBE557
:0C1A0700102404F886820886830886F00C
:0A1A1300EA125959A3EB125959A821
:0B1A1D00100886820886830886F012FD
:061A280019087D00800298
:021A2E007D0138
:081A30008D82851081D0102287
:071A380090F7597401F02240
:051A3F00121C1780FBE2
:0A1A4400C010858110C082C083C06D
:0C1A4E00F0A81008742C26FDE40836FEF9
:0C1A5A000886078D828E838FF0E5102433
:0D1A6600FCF8E6125959A308E6125959A8D8
:0C1A73001008742426FDE40836FE0886E6
:0C1A7F00077408C0E0E4C0E0E51024F9A2
:0E1A8B00F8E6C0E008E6C0E008E6C0E08D82A4
:0E1A99008E838FF0125D72E58124FBF581A82B
:0C1AA7001008742426FDE40836FE0886B2
:0E1AB3000774072DFDE43EFE8D828E838FF0BA
:0C1AC100E4125959E51024F8F8B60400AE
:091ACD004007E51024F8F8760347
:0C1AD600A81008741F26FDE40836FE0866
:0C1AE20086078D828E838FF0E51024F8BB
:0C1AEE00F8E6125959A81008740326FDF0
:0E1AFA00E40836FE0886078D828E838FF01278
:0C1B08002E3BA81008741126FDE40836DE
:0E1B1400FE0886078D828E838FF0122E3BA86E
:0C1B22001008740326FDE40836FE088657
:0E1B2E000774082DFDE43EFE8D828E838FF03D
:0B1B3C00A81008E6125959A308E61291
:091B47005959A308E6125959A8E6
:0C1B50001008741126FDE40836FE08861B
:0C1B5C0007E51024F8F886027B007404F2
:0E1B6800C39AFAE49BFB8D828E838FF0EA1203
:081B76005959A3EB125959A8BB
:0C1B7E001008741126FAE40836FB0886F3
:0E1B8A000474082AFAE43BFB8A828B838CF0F9
:0B1B9800A81008E6125959A308E61235
:091BA3005959A308E612595985AD
:051BAC001081D01022A1
:021BB1007A00B8
:031BB300BA040071
:0C1BB600501EEA75F00CA424ABFBE434D4
:0C1BC200E0FC7D008B828C838DF0C00263
:081BCE00122D69D0020A80DD2E
:0A1BD60090E0DB75F000122D69901D
:091BE000E0E775F000122D699098
:091BE900E0F975F000122D69907D
:091BF200E10575F000122D699067
:071BFB00E0F374DBF0A374BA
:0A1C0200E0F0A37400F090E0F67427
:0A1C0C00E7F0A374E0F0A37400F009
:011C160022AB
:081C170090F750E0FA70012281
:0D1C1F001210FC90E105E0FAE4BA000104A7
:0C1C2C00FAC002121115D002EA60012279
:0E1C3800C0E0C0A8C2AF90E105E0FAE4BA0037
:021C4600010497
:041C4800FAB40100E9
:0E1C4C00E433FA603190E10B75F000125E4156
:0E1C5A00FAA3125E41FBA3125E41FC74082A3D
:0E1C6800FAE43BFB8A828B838CF0125E41FA19
:0C1C7600A3125E41FBA3125E41FC80063D
:061C82007A007B007C00EB
:0E1C880074032AFDE43BFE8C078D828E838F51
:0E1C9600F0C002C003C00412324ED004D003CE
:0C1CA400D00290F751E01490F751F0903E
:0E1CB000F750E01490F750F0D0E053E080E5DC
:0E1CBE00E042A8D0E08A828B838CF0021DB237
:0A1CCC00C010858110C082C083059E
:0E1CD600810581058190002E123963AC82AD2C
:0C1CE40083AEF0A810080808A60408A6AB
:0C1CF0000508A606A810080808B6000B9E
:0B1CFC0008B6000708B60003021D9F99
:0C1D0700A810080808742026FFE4083625
:0C1D1300FA088603A81008868208868360
:0E1D1F00C002C003C007123963AC82AD83AEB0
:0E1D2D00F0D007D003D0028F828A838BF0ECB7
:0B1D3B00125959A3ED125959A3EE12E2
:0C1D46005959BC0023BD0020BE001DA8A0
:0C1D52001008080886820886830886F0C6
:0C1D5E00123CCFA810080808E4F608F6B4
:041D6A0008F68031C6
:0E1D6E008F828A838BF0125E41FFA3125E41CA
:0C1D7C00FAA3125E41FBA81008E6C0E0CC
:0E1D880008E6C0E074A5C0E08F828A838BF06D
:091D9600125D071581158115810C
:0C1D9F00A81008080886820886830886C1
:071DAB00F0851081D0102229
:0E1DB200AA82AB83ACF074202AFDE43BFE8CC9
:0D1DC000078D828E838FF0125E41FDA3120D
:0E1DCD005E41FEA3125E41FF8D828E838FF079
:0E1DDB00C002C003C004123CCFD004D003D01D
:0A1DE900028A828B838CF0023CCF4B
:05711A0049444C450052
:03726A0000000021
:01726D000020
:01726E00001F
:02726F0000001D
:01727100001C
:01727200001B
:01727300001A
:017274000019
:017275000018
:017276000017
:017277000016
:0A1DF300C010858110C082E5812434
:0C1DFD0009F581A81008E67003022048D8
:0D1E0900900029123963AB82AC83ADF0A8C4
:0C1E1600100808A60308A60408A605A8EA
:0C1E2200100808B6000B08B6000708B650
:051E2E00000302204842
:0A1E3300A81008A91019191986F06B
:0E1E3D00E7A4FEAFF074012EFAE43FFB8A82A8
:0E1E4B008B83C006C007123963AA82AB83AC3A
:0C1E5900F0D007D006A810080886820808
:0E1E650086830886F0EA125959A3EB125959E8
:0E1E7300A3EC125959BA0009BB0006BC0003CB
:031E810002203903
:0A1E8400A8100808E5102405F97401
:0D1E8E000326F7E4083609F70809E6F7A86F
:0C1E9B0010080886820886830886F01272
:0A1EA7005E41FDA3125E41FAA31292
:0C1EB1005E41FBEE2DFEEF3AFF8B04E5D6
:0C1EBD00102405F886820886830886F051
:0C1EC900EE125959A3EF125959A3EC1264
:0C1ED5005959A8100808742426FCE408E1
:0D1EE10036FE0886078C828E838FF0E41297
:0C1EEE005959A8100808740626FCE408E6
:0D1EFA0036FE0886078C828E838FF0ED1275
:0A1F07005959A3EA125959A3EB122D
:071F11005959A8100808E56A
:0C1F1800102405F9740926F7E4083609C6
:0C1F2400F70809E6F7A8100886047E0004
:0C1F3000E5102408F8EC24FFF6EE34FF66
:0C1F3C0008F6A81018181886077C00C0D2
:0C1F480002C003C005C007C004E510245F
:0E1F540008F88682088683125B0CAC82AE838E
:0E1F620015811581D005D003D002EC2DFDEEC7
:0C1F70003AFAE5102405F8868208868302
:0E1F7C000886F0ED125959A3EA125959A3EB49
:0C1F8A00125959A8100808742526FAE422
:0D1F96000836FB0886048A828B838CF0A835
:071FA3001008E6125959A8CD
:0C1FAA00100808742626FAE40836FB082C
:0C1FB60086048A828B838CF0A810181817
:0C1FC20018E6125959A8100808742726C8
:0E1FCE00FAE40836FB0886048A828B838CF0C6
:0C1FDC0074FF125959A810080874282638
:0E1FE800FAE40836FB0886048A828B838CF0AC
:0C1FF60074FF125959A8100808740C263A
:0E200200FAE40836FB0886048A828B838CF091
:0C201000122D69A8100808741826FAE4C4
:0D201C000836FB0886048A828B838CF01244
:0C2029002D69A81008088682088683082C
:0420350086F080159C
:0C203900A810080886820886830886F03C
:03204500123CCF7B
:0620480090000075F0009D
:06204E00851081D0102274
:0A205400C010858110C082C083C057
:0C205E00F0E5812414F5811210FCE5105F
:0E206A002404FD7E007F408D828E838FF01255
:0C2078001908C0E0C0A8C2AFA81008748E
:0E2084002726FDE40836FE0886078D828E832F
:0E2092008FF0125E41FA0A8D828E838FF0EA83
:0C20A000125959A81008742826FAE40808
:0E20AC0036FB0886048A828B838CF0125E411C
:0E20BA00FD0D8A828B838CF0ED125959D0E017
:0C20C80053E080E5E042A8D0E0A810083A
:0C20D400E510240AF9742626F7E408360B
:0A20E00009F70809E6F7A81008E563
:0C20EA0010240DF9740326F7E4083609F1
:0A20F600F70809E6F7A81008E51046
:0E2100002407F9742526F7E4083609F70809C4
:02210E00E6F7F2
:0C211000A8100886820886830886F0125A
:09211C002D21E58270030221DC93
:0B212500E51024F9F8E60846700302FC
:0221300021DCB0
:0C213200A81008740C26FDE40836FE0816
:0C213E008607E51024F9F8E6C0E008E68A
:0E214A00C0E08D828E838FF01216A3158115D2
:0C21580081C0E0C0A8C2AFA810088682B9
:0E2164000886830886F0122BE7121115E5821B
:0521720070031236C1EC
:0C2177001210FCC0E0C0A8C2AFA8100805
:0E218300742726FDE40836FE0886078D828E3E
:0E219100838FF0125E41FA0A8D828E838FF0EA
:0C219F00EA125959A81008742826FAE426
:0D21AB000836FB0886048A828B838CF012B4
:0E21B8005E41FD0D8A828B838CF0ED12595929
:0E21C600D0E053E080E5E042A8D0E0D0E05346
:0821D400E080E5E042A8D0E044
:0C21DC00C0E0C0A8C2AFA8100874242600
:0E21E800FAE40836FB0886048A828B838CF0AA
:0C21F600125E41FDE5102407F886820807
:0E22020086830886F0125E41FEC3ED9E400307
:0322100002237C2A
:0C221300E510240AF886820886830886FD
:0C221F00F0125E41FDE5102413F8A60546
:0A222B00087600A81008E510241042
:0E223500F9740626F7E4083609F70809E6F7FB
:0C224300E5102410F886820886830886C7
:0C224F00F0125E41FFA3125E41FDA312DD
:0C225B005E41FEC002C003C004E5102478
:0C22670013F8E6C0E008E6C0E0E5102433
:0E227300FBF8E6C0E008E6C0E008E6C0E08F39
:0E228100828D838EF0125C69E58124FBF5816D
:0D228F00D004D003D0028A828B838CF01221
:0E229C005E41FD0D8A828B838CF0ED12595944
:0C22AA00E5102410F88682088683088660
:0C22B600F0125E41FAA3125E41FBA3127D
:0C22C2005E41FCE510240AF886820886C4
:0D22CE00830886F0125E412AFAE43BFBE52E
:0C22DB00102410F886820886830886F024
:0C22E700EA125959A3EB125959A3EC124A
:0C22F3005959E510240DF88682088683F6
:0E22FF000886F0125E41FDA3125E41FEA3129E
:0E230D005E41FFC3EA9DEB9EEC64808FF0639F
:0C231B00F08095F04034A810088682087D
:0E23270086830886F0125E41FAA3125E41FB27
:0C233500A3125E41FCE5102410F8868223
:0D2341000886830886F0EA125959A3EB12B2
:07234E005959A3EC12595983
:0C2355007A01A81008742826FBE4083662
:0E236100FC0886058B828C838DF0125E41FE97
:0D236F000E8B828C838DF0EE125959800286
:02237C007A00E5
:0E237E00D0E053E080E5E042A8D0E0EA703CF9
:0C238C00E51024F9F8E608466032C002B3
:0A239800E51024F9FB7C007D40E510
:0C23A200102404FE7F007A40C003C00439
:0E23AE00C0058E828F838AF0121938AA82151C
:0C23BC008115811581EAD00270027AFFC1
:0623C800BAFF0302211020
:0C23CE00A8100886820886830886F0C0EC
:0C23DA0002122BE7121115D0028A828536
:0523E6001081D010225F
:0A23EB00C010858110C082C083C0BD
:0C23F500F0E581240CF581A81008742488
:0E24010026FDE40836FE0886078D828E838F46
:0B240F00F0E5102404F8125E41F6A86E
:0C241A001008742526FBE40836FC088638
:0C242600028B828C838AF0125E41FBE581
:0C243200102404F8C3E69B4003022614AB
:0A243E00A81008E5102405F9742623
:0C24480026F7E4083609F70809E6F7E576
:0C245400102405F886820886830886F0B4
:0C246000125E41FAE510240BF8A60208F9
:0A246C007600A81008E5102408F916
:0E247600740626F7E4083609F70809E6F7E5CC
:0C248400102408F886820886830886F081
:0B249000125E41FCA3125E41FAA31291
:0C249B005E41FBC005C006C007E5102430
:0C24A7000BF8E6C0E008E6C0E0E51024F9
:0E24B300FBF8E6C0E008E6C0E008E6C0E08CFA
:0E24C100828A838BF0125C69E58124FBF58131
:0D24CF00D007D006D0058D828E838FF012CD
:0E24DC005E41FA0A8D828E838FF0EA12595902
:0C24EA00E5102408F88682088683088626
:0C24F600F0125E41FAA3125E41FBA3123B
:0C2502005E41FCE5102405F88682088686
:0D250E00830886F0125E412AFAE43BFBE5EB
:0C251B00102408F886820886830886F0E9
:0C252700EA125959A3EB125959A3EC1207
:0C2533005959A81008740326FDE408366E
:0E253F00FE0886078D828E838FF0125E41FDAE
:0E254D00A3125E41FEA3125E41FFC3EA9DEBA6
:0E255B009EEC64808FF063F08095F04034A811
:0B256900100886820886830886F012A6
:0A2574005E41FAA3125E41FBA312C0
:0C257E005E41FCE5102408F88682088607
:0E258A00830886F0EA125959A3EB125959A39F
:04259800EC1259598F
:0C259C00A81008742826FAE40836FB0892
:0E25A80086048A828B838CF0125E41FDBDFF9B
:0A25B60052E51024FAF8E67055A86B
:0C25C0001008741826FAE40836FB0886A0
:0D25CC00048A828B838CF0125E41603CA873
:0A25D9001008E5102408F974182614
:0C25E300F7E4083609F70809E6F7E510F0
:0E25EF002408F886820886830886F012179D5D
:0725FD00AE82BE0002801057
:05260400758201801247
:0B2609000D8A828B838CF0ED12595972
:07261400E51024FAF88682AC
:06261B00851081D01022A1
:0A262100C010858110C082C083C084
:0C262B00F0E581240FF5811210FCE51091
:0E2637002404FD7E007F408D828E838FF01282
:0C2645001908C0E0C0A8C2AFA8100874BB
:0E2651002726FDE40836FE0886078D828E835C
:0E265F008FF0125E41FA0A8D828E838FF0EAB0
:0C266D00125959A81008742826FAE40835
:0E26790036FB0886048A828B838CF0125E4149
:0E268700FD0D8A828B838CF0ED125959D0E044
:0C26950053E080E5E042A8D0E0A8100867
:0C26A100E5102407F9742626F7E408363B
:0A26AD0009F70809E6F7A81008E590
:0C26B70010240DF9740326F7E40836091E
:0526C300F70809E6F72D
:0C26C800A8100886820886830886F0129D
:0926D4002CF0E58270030227944A
:0B26DD00E51024F9F8E608467003023F
:0226E800279435
:0C26EA00A81008741826FDE40836FE084D
:0C26F6008607E51024F9F8E6C0E008E6CD
:0E270200C0E08D828E838FF01216A315811514
:0C27100081C0E0C0A8C2AFA810088682FB
:0E271C000886830886F0122BE7121115E5825D
:05272A0070031236C12E
:0C272F001210FCC0E0C0A8C2AFA8100847
:0E273B00742726FDE40836FE0886078D828E80
:0E274900838FF0125E41FA0A8D828E838FF02C
:0C275700EA125959A81008742826FAE468
:0D2763000836FB0886048A828B838CF012F6
:0E2770005E41FD0D8A828B838CF0ED1259596B
:0E277E00D0E053E080E5E042A8D0E0D0E05388
:08278C00E080E5E042A8D0E086
:0C279400C0E0C0A8C2AFA8100874242642
:0E27A000FAE40836FB0886048A828B838CF0EC
:0827AE00125E41700302290CC8
:0A27B600C002C003C004A81008E52B
:0C27C00010240AF9740926F7E408360911
:0C27CC00F70809E6F7E510240AF88682F9
:0E27D8000886830886F0125E41FAA3125E4165
:0C27E600FBA3125E41FCE5102407F886FE
:0E27F200820886830886F0125E412AFAE43BD4
:0C280000FBE510240AF886820886830895
:0E280C0086F0EA125959A3EB125959A3EC12A7
:0C281A005959E510240DF88682088683C9
:0E2826000886F0125E41FDA3125E41FEA31271
:0E2834005E41FFC3EA9DEB9EEC64808FF06373
:0D284200F08095F0D004D003D0024034A8FF
:0B284F00100886820886830886F012BD
:0A285A005E41FDA3125E41FEA312D1
:0C2864005E41FFE510240AF88682088619
:0E287000830886F0ED125959A3EE125959A3B0
:04287E00EF125959A3
:0E2882008A828B838CF0125E41FD1D8A828B50
:0C289000838CF0ED125959E5102407F874
:0E289C0086820886830886F0125E41FA7B0071
:0C28AA00E510240AF88682088683088660
:0C28B600F0125E41FCA3125E41FDA31273
:0E28C2005E41FEC002C003C004C005C006E5B2
:0C28D0001024FBF886820886830886F03E
:0C28DC00125C69E58124FBF581A810085E
:0E28E800742726FAE40836FB0886048A828BE1
:0E28F600838CF0125E41FD0D8A828B838CF084
:08290400ED1259597A0180021D
:02290C007A004F
:0E290E00D0E053E080E5E042A8D0E0EA703C63
:0C291C00E51024F9F8E608466032C0021D
:0A292800E51024F9FB7C007D40E57A
:0C293200102404FE7F007A40C003C004A3
:0E293E00C0058E828F838AF0121938AA821586
:0C294C008115811581EAD00270027AFF2B
:06295800BAFF030226C8CD
:0C295E00A8100886820886830886F0C056
:0C296A0002122BE7121115D0028A8285A0
:052976001081D01022C9
:0A297B00C010858110C082C083C027
:0C298500F0E5812408F581A810087424F6
:0E29910026FDE40836FE0886078D828E838FB1
:0B299F00F0E5102404F8125E41F6E59C
:0A29AA00102404F8E67003022B81EC
:0A29B400C005C006C007A81008E522
:0C29BE00102405F9740926F7E408360916
:0C29CA00F70809E6F7E5102405F88682FE
:0E29D6000886830886F0125E41FDA3125E4162
:0C29E400FEA3125E41FFA8100874262616
:0E29F000FAE40836FB0886048A828B838CF09A
:0A29FE00E5102408F8125E41F6E52A
:0B2A0800102408F8E62DFDE43EFEE57A
:0C2A1300102405F886820886830886F0EF
:0C2A1F00ED125959A3EE125959A3EF1201
:0C2A2B005959A81008740326FAE4083674
:0E2A3700FB0886048A828B838CF0125E41FAC3
:0E2A4500A3125E41FBA3125E41FCC3ED9AEEAC
:0E2A53009BEF64808CF063F08095F0D007D08C
:0C2A610006D0054034A8100886820886C4
:0E2A6D00830886F0125E41FAA3125E41FBA3BD
:0C2A7B00125E41FCE5102405F88682087C
:0E2A870086830886F0EA125959A3EB125959BA
:052A9500A3EC125959E9
:0C2A9A00E5102404F8E6148D828E838F72
:0C2AA600F0125959E5102408F886027B54
:0C2AB20000E5102405F8868208868308E1
:0D2ABE0086F0125E41FCA3125E41FDA312E2
:0E2ACB005E41FEC002C003C004C005C006E5A7
:0C2AD9001024FBF886820886830886F033
:0C2AE500125C69E58124FBF581A8100853
:0E2AF100742726FAE40836FB0886048A828BD6
:0C2AFF00838CF0125E41FDBDFF68E51005
:0E2B0B0024F8F886020886030886048A828B66
:0C2B1900838CF0125E41705BA810087401
:0E2B25000C26FDE40836FE0886078D828E839E
:0C2B33008FF0125E416042A81008740C84
:0E2B3F0026FDE40836FE0886078D828E838F01
:0E2B4D00F0C002C003C00412179DAE82D00477
:092B5B00D003D002BE0002801874
:0D2B64008A828B838CF07401125959800B0A
:0B2B71000D8A828B838CF0ED12595905
:052B7C007582018003D9
:032B81007582005A
:062B8400851081D0102233
:0E2B8A00AA82AB83ACF0C0E0C0A8C2AF742436
:0E2B98002AFAE43BFB8A828B838CF0125E41AA
:0E2BA600FAD0E053E080E5E042A8D0E08A8259
:012BB40022FE
:0E2BB500AA82AB83ACF0125E41FDA3125E411A
:0E2BC300FEA3125E41FF8D828E838FF0C00252
:0E2BD100C003C004123CCFD004D003D0028A4F
:082BDF00828B838CF0023CCFD5
:0E2BE700AA82AB83ACF0C0E0C0A8C2AF7428D5
:0E2BF5002AFDE43BFE8C078D828E838FF0124A
:0E2C03005E41F8188D828E838FF0E8125959C9
:0E2C1100C3747F88F063F08095F050538D827D
:0E2C1F008E838FF074FF12595974182AFDE449
:0E2C2D003BFE8C078D828E838FF0125E41601D
:0E2C3B003474182AFDE43BFE8C078D828E83D4
:0E2C49008FF0C002C003C00412179DAD82D0F0
:0A2C570004D003D002BD0002800F7C
:0E2C6100C002C003C004121A38D004D003D041
:012C6F000262
:0E2C7000D0E053E080E5E042A8D0E0C0E0C034
:0E2C7E00A8C2AF74272AFDE43BFE8C078D82AE
:0E2C8C008E838FF0125E41F8188D828E838F3A
:0E2C9A00F0E8125959C3747F88F063F08095FA
:0E2CA800F050398D828E838FF074FF125959CF
:0E2CB600740C2AFDE43BFE8C078D828E838F0A
:0E2CC400F0125E41601A740C2AFAE43BFB8A9F
:0E2CD200828B838CF012179DAA82BA000280BA
:012CE00003F0
:032CE100121A388C
:0C2CE400D0E053E080E5E042A8D0E02200
:0E2CF000AA82AB83ACF0C0E0C0A8C2AF7424CF
:0E2CFE002AFAE43BFB8A828B838CF0125E4143
:062D0C00FAE4BA00010424
:0E2D1200FAD0E053E080E5E042A8D0E08A82EB
:012D20002290
:0E2D2100AA82AB83ACF0C0E0C0A8C2AF74249D
:0E2D2F002AFDE43BFE8C078D828E838FF0120E
:0E2D3D005E41FD74252AFAE43BFB8A828B83FB
:0E2D4B008CF0125E41FAEDB5020474018001B5
:012D5900E495
:0E2D5A00FDD0E053E080E5E042A8D0E08D829D
:012D68002248
:0A2D6900C010858110C082C083C035
:0C2D7300F0058105810581A8100874019D
:0C2D7F0026FDE40836FE088607A81008B0
:0C2D8B00E5102404F9740426F7E408366F
:0D2D970009F70809E6F78D828E838FF0E5BD
:0C2DA400102404F8E6125959A308E612A6
:092DB0005959A308E6125959E52E
:0C2DB900102404F886820886830886F047
:0C2DC50074FF125959A374FF125959E50C
:0C2DD100102404F8740226FBE40836FC11
:0C2DDD000886058B828C838DF0E51024A5
:0E2DE90004F8E6125959A308E6125959A30836
:0C2DF700E6125959E5102404F874052672
:0E2E0300FBE40836FC0886058B828C838DF07C
:0C2E1100E5102404F8E6125959A308E665
:0A2E1D00125959A308E6125959A8EA
:0C2E2700100886820886830886F0E412FA
:062E33005959851081D001
:022E3900102265
:0E2E3B00AA82AB83ACF0740B2AFAE43BFB8A4C
:0E2E4900828B838CF0E4125959A3E41259597C
:052E5700A3E40259593B
:0A2E5C00C010858110C082C083C041
:0B2E6600F0E581240CF581A81008E5C0
:0C2E7100102407F9740126F7E408360964
:0C2E7D00F70809E6F7E5102407F8868244
:0E2E89000886830886F0125E41FAA3125E41AD
:0C2E9700FBA3125E41FCE5102404F8A629
:0C2EA3000208A60308A604E51024FBF8B2
:0C2EAF008602088603088604E510240A49
:0D2EBB00F874022AF6E43B08F608A604E5C8
:0C2EC800102404F886050886060886071A
:0E2ED40074022DFDE43EFE8D828E838FF0127F
:0A2EE2005E41FDA3125E41FEA31243
:0C2EEC005E41FFE510240AF8868208868B
:0E2EF800830886F0ED125959A3EE125959A322
:0C2F0600EF125959E510240AF874052A4E
:0C2F1200F6E43B08F608A604E5102407CE
:0E2F1E00F886820886830886F0125E41FDA3C5
:0A2F2C00125E41FEA3125E41FFE5B4
:0C2F360010240AF886820886830886F0C2
:0C2F4200ED125959A3EE125959A3EF12D9
:0C2F4E005959E5102404F8860508860691
:0E2F5A0008860774022DFDE43EFE8D828E83F4
:0D2F68008FF0125E41FDA3125E41FEA31228
:0E2F75005E41FF74052DFDE43EFE8D828E83CD
:0E2F83008FF0EA125959A3EB125959A3EC1220
:0C2F91005959E5102404F886050886064E
:0E2F9D0008860774022DFDE43EFE8D828E83B1
:0E2FAB008FF0EA125959A3EB125959A3EC12F8
:0C2FB9005959E5102407F8868208868329
:0E2FC5000886F0EA125959A3EB125959A3ECF1
:0E2FD300125959740B2AFAE43BFB8A828B8355
:0C2FE1008CF0A81008E6125959A308E66D
:0A2FED00125959A308E6125959A819
:0B2FF700100886820886830886F0120E
:0C3002005E41FA0AA81008868208868346
:0B300E000886F0EA125959851081D0A5
:02301900102283
:0A301B00C010858110C082C083C080
:0C302500F0E581240BF581E51024FBF898
:0E30310086050886060886078D828E838FF03E
:0A303F00125E41FAA3125E41FBE5A8
:0A304900102407F8A60208A603E50C
:0C305300102407F8B6FF4908B6FF45C07E
:0C305F0005C006C007A81008740426FD78
:0E306B00E40836FE08860774052DFDE43EFEDF
:0E3079008D828E838FF0125E41FDA3125E41A8
:0C308700FEA3125E41FFE5102404F8A631
:0E3093000508A60608A607D007D006D005023D
:0230A1003134C8
:0A30A300A81008E5102404F97404D5
:0B30AD0026F7E4083609F70809E6F7EB
:0C30B800E5102404F88602088603088650
:0E30C4000474022AFAE43BFB8A828B838CF0B0
:0B30D200125E41FAA3125E41FBA31244
:0E30DD005E41FC8A828B838CF0125E41FAA366
:0C30EB00125E41FBE5102407F8C3E69AD2
:0C30F70008E69B4038E5102404F886022F
:0E31030008860308860474022AFAE43BFB8A5D
:0E311100828B838CF0125E41FAA3125E41FBAA
:0C311F00A3125E41FCE5102404F8A60297
:09312B0008A60308A6040230B84E
:0C313400E5102409F874022DF6E43E08B2
:0C314000F608A607E5102404F886020833
:0E314C00860308860474022AFAE43BFB8A829A
:0E315A008B838CF0125E41FAA3125E41FBA340
:0C316800125E41FCE5102409F886820884
:0E31740086830886F0EA125959A3EB125959C6
:0C318200A3EC125959E5102409F88682CC
:0E318E000886830886F0125E41FAA3125E41A5
:0E319C00FBA3125E41FC74052AFAE43BFB8A99
:0E31AA00828B838CF0ED125959A3EE12595905
:0E31B800A3EF12595974052DFAE43EFB8F0463
:0C31C6008A828B838CF0E5102404F8E66C
:0D31D200125959A308E6125959A308E61234
:0C31DF005959E5102404F8860208860304
:0E31EB0008860474022AFAE43BFB8A828B8376
:0E31F9008CF0ED125959A3EE125959A3EF12A2
:0E3207005959740B2DFDE43EFE8D828E838F8F
:0C321500F0A81008E6125959A308E612B0
:093221005959A308E6125959A8F5
:0B322A00100886820886830886F012D8
:0C3235005E41FA0AA81008868208868311
:0B3241000886F0EA125959851081D070
:02324C0010224E
:0A324E00C010858110C082C083C04B
:0C325800F0E581240CF581A81008740238
:0E32640026FDE40836FE0886078D828E838FD5
:0C327200F0125E41FAA3125E41FBA312B1
:0C327E005E41FCE510240AF874052AF6F5
:0B328A00E43B08F608A604A81008E5C5
:0C329500102407F9740526F7E408360938
:0C32A100F70809E6F7E5102407F886821C
:0E32AD000886830886F0125E41FAA3125E4185
:0C32BB00FBA3125E41FCE510240AF8861B
:0E32C700820886830886F0EA125959A3EB129A
:0832D5005959A3EC125959E507
:0C32DD00102407F886820886830886F01B
:0B32E900125E41FAA3125E41FBA3122B
:0E32F4005E41FC74022AFAE43BFB8D828E835D
:0D3302008FF0125E41FDA3125E41FEA3128A
:0E330F005E41FF8A828B838CF0ED125959A328
:0A331D00EE125959A3EF125959A8F6
:0C3327001008740B26FAE40836FB088638
:0D333300048A828B838CF0125E41FDA31290
:093340005E41FEA3125E41FFE5AF
:0C334900102404F8A60508A60608A60734
:0A335500E5102404F8E510240AF93D
:0E335F00740126F7E4083609F70809E6F7E5D9
:0C336D0010240AF886820886830886F087
:0B337900125E41FDA3125E41FEA31294
:0C3384005E41FFA81008E6B5050C08E645
:0A339000B5060708E6B50702800243
:02339A0080367B
:0C339C00E5102407F88682088683088666
:0C33A800F0125E41FDA3125E41FEA31274
:0C33B4005E41FFE510240AF886820886BE
:0E33C000830886F0ED125959A3EE125959A355
:0433CE00EF12595948
:0D33D2008A828B838CF0E4125959A3E41217
:0833DF005959A3E4125959E504
:0C33E700102404F886820886830886F013
:0C33F300125E41FA1AE5102404F88682EC
:0C33FF000886830886F0EA1259598510F0
:04340B0081D010223A
:0A340F00C010858110C082C083C088
:0B341900F0058105810581A81008E581
:0C342400102404F9E6F70809E6F708098F
:0B343000E6F7A8100806B60002080628
:0C343B00E51024FCF886050886067F00DA
:0C3447007A008D03A81008868208868396
:0E3453000886F0EB125959A31818A68208A695
:0C346100838E058F068A078D03A81008D3
:0E346D0086820886830886F0EB125959A31850
:0C347B0018A68208A683A8100886820804
:0E34870086830886F074AA125959A31818A655
:0C3495008208A683A8100886820886839F
:0E34A1000886F07480125959A31818A68208E4
:0C34AF00A683E51024F9F88605088606BF
:0C34BB000886077A008D03A8100886829E
:0E34C7000886830886F0EB125959A31818A640
:0E34D5008208A6838E058F068A077A008D0373
:0C34E300A8100886820886830886F0EB9B
:0E34EF00125959A31818A68208A6838E058FBD
:0C34FD00068A07A810088682088683084B
:0E35090086F0ED125959A31818A68208A68361
:0C351700A8100886820886830886F074DD
:0D35230002125959A31818A68208A683A801
:0C353000100886820886830886F0740369
:0C353C00125959A31818A68208A683A8EB
:0C354800100886820886830886F0740450
:0C355400125959A31818A68208A683A8D3
:0C356000100886820886830886F0740537
:0C356C00125959A31818A68208A683A8BB
:0C357800100886820886830886F074061E
:0C358400125959A31818A68208A683A8A3
:0C359000100886820886830886F0740705
:0C359C00125959A31818A68208A683A88B
:0C35A800100886820886830886F0E41272
:0C35B4005959A31818A68208A683A81075
:0E35C0000886820886830886F0740112595925
:0C35CE00A31818A68208A683A81008867F
:0E35DA00820886830886F0E4125959A3181857
:0C35E800A68208A683A810088682088628
:0E35F400830886F074BB125959A31818A682DA
:0C36020008A683A81008868208868308AA
:0B360E0086F07401125959A81008E55D
:0C361900102404F9E6C397FA08E60997AC
:0C362500E5102404F886820886830886DD
:0C363100F0EA125959E5102404F88682D2
:0A363D000886830886F0851081D00E
:0236470010224F
:0E3649001238F590F74DE0FAA3E0FBA3E0FC89
:0C3657008A828B838CF0125E41F50DA37B
:06366300125E41F50E7538
:063669000F21850D828592
:05366F000E83E0F508E8
:07367400050DE4B50D020590
:01367B000E40
:05367C00050FA80F85F9
:093681000D82850E83E0FAF615B6
:06368A0008E50870E5856B
:0A3690000F81D09FD010D0D0D001E0
:0E369A00D000D007D006D005D004D003D00257
:0E36A800D0F0D083D082D0E020E705C2AF0280
:0236B60036BA22
:0236B800D2AF8F
:0636BA00D0E07582012240
:0136C00022E7
:0E36C100C0E0C0A8C2AFC082C083C0F0C0028B
:0E36CF00C003C004C005C006C007C000C00193
:0C36DD00C0D075D000C010C09F90F74D09
:0E36E900E0FAA3E0FBA3E0FC8A828B838CF066
:0736F700125E41F50DA31264
:0536FE005E41F50E75B0
:093703000F22E58124DFF50885A1
:06370C000D82850E83F022
:08371200E5086019050DE4B59E
:04371A000D02050E89
:07371E00850D82850E83A8D2
:073725000FE6FAF0050F1595
:03372C000880E32F
:0E372F0012154390F74DE0FAA3E0FBA3E0FC77
:0C373D008A828B838CF0125E41F50DA394
:06374900125E41F50E7551
:06374F000F21850D8285AB
:053755000E83E0F50801
:07375A00050DE4B50D0205A9
:013761000E59
:05376200050FA80F8512
:093767000D82850E83E0FAF615CF
:0637700008E50870E58584
:0A3776000F81D09FD010D0D0D001F9
:0E378000D000D007D006D005D004D003D00270
:0E378E00D0F0D083D082D0E020E705C2AF0299
:02379C0037A054
:02379E00D2AFA8
:0237A000D0E077
:0E37A200C2AFC0E0C0A8C2AFC082C083C0F0FA
:0E37B000C002C003C004C005C006C007C000B0
:0C37BE00C001C0D075D000C010C09F90AA
:0E37CA00F74DE0FAA3E0FBA3E0FC8A828B83BC
:0937D8008CF0125E41F50DA31204
:0537E1005E41F50E75CC
:0937E6000F22E58124DFF50885BE
:0637EF000D82850E83F03F
:0837F500E5086019050DE4B5BB
:0437FD000D02050EA6
:07380100850D82850E83A8EE
:073808000FE6FAF0050F15B1
:03380F000880E34B
:07381200859509750A007598
:0A3819000B00750C00AA967B007CE2
:0B382300008C058B048A03E42509F5E6
:05382E0009EB350AF56D
:053833000AEC350BF565
:053838000BED350CF55D
:0C383D000CAA977B008B058A04E4FB2595
:0538490009F509EB3553
:05384E000AF50AEC354B
:053853000BF50BED3543
:063858000CF50C74412583
:05385E0009F509E43545
:053863000AF50AE4353E
:053868000BF50BE43537
:04386D000CF50C85C5
:063871000B97850A968505
:063877000995121339123D
:0E387D00154353C07F90F74DE0FAA3E0FBA384
:0C388B00E0FC8A828B838CF0125E41F519
:063897000DA3125E41F5D5
:05389D000E750F2185EE
:0738A2000D82850E83E0F5A5
:0138A9000816
:0738AA00050DE4B50D020558
:0138B1000E08
:0538B200050FA80F85C1
:0938B7000D82850E83E0FAF6157E
:0638C00008E50870E58533
:0A38C6000F81D09FD010D0D0D001A8
:0E38D000D000D007D006D005D004D003D0021F
:0E38DE00D0F0D083D082D0E020E705C2AF0248
:0238EC0038F0B2
:0238EE00D2AF57
:0538F000D0E0D2AF3270
:0A38F50075C6B8859509750A0075BF
:0A38FF000B00750C00AA967B007CFC
:0B390900008C058B048A03E42509F5FF
:0539140009EB350AF586
:053919000AEC350BF57E
:05391E000BED350CF576
:0C3923000CAA977B008B058A04E4FB25AE
:05392F0009F509EB356C
:053934000AF50AEC3564
:053939000BF50BED355C
:06393E000CF50C7441259C
:0539440009F509E4355E
:053949000AF50AE43557
:05394E000BF50BE43550
:043953000CF50C85DE
:063957000B97850A96851E
:06395D00099543A8202299
:0500E90090F2B4E4F008
:0A396300C010858110C082C083E50A
:0C396D0081241AF581E5102411F8E4F61D
:0E39790008F608F61210FC90F2B4E0FF704A57
:0839870090F2AA7416F0A3747B
:0C398F00E1F0A3E4F090F2ADF0A3F090A2
:0E399B00F2B27494F0A37411F090F2AFE4F065
:0D39A900A3F0A3F090E11975F000749412E2
:0939B6005959A3741112595990DA
:0739BF00E11674AFF0A374E0
:0B39C600F2F0A3E4F090F2B47401F002
:0C39D100A81008E60846601490711FE47E
:0C39DD0093FF740193FCA81008EF26F67D
:0439E900EC0836F6BA
:0B39ED00A81008E608467003023CB971
:0C39F800A81008C3E6949408E69411405F
:043A040003023CB9C4
:093A0800E5102406F876AA087600
:0C3A1100F208760090F2AAE0FAA3E0FBB5
:0C3A1D00A3E0FFA810080808A60208A6F5
:043A29000308A607E1
:0C3A2D00A810080808740326FCE4083602
:0E3A3900FD0886068C828D838EF0125E41FCA5
:0C3A4700A3125E41FDA81008C3EC96ED30
:0C3A530008965047A81008080886820852
:0E3A5F0086830886F0125E41FCA3125E41FBD6
:0C3A6D00A3125E41FAEC4B4A6027A8103F
:0C3A7900080808E5102406F9E6F7080923
:0C3A8500E6F70809E6F78B058A06A81092
:0D3A9100080808A60408A60508A606808FF0
:0A3A9E00A810080808E6B4AF0D08F0
:0C3AA800E6B4F20808E6B40003023CB9E2
:0C3AB400E5102406F88682088683088648
:0C3AC000F0125E41FAA3125E41FBA3125B
:073ACC005E41FC90711FE553
:0C3AD300102414F8E493F674019308F634
:0C3ADF00E5102414F8E62AFA08E63BFB88
:0C3AEB00E5102411F8A60208A60308A6A6
:0C3AF70004A810080808868208868308CE
:0D3B030086F0125E41FFA3125E41FCA3128A
:0C3B10005E41FDE5102406F88682088660
:0E3B1C00830886F0EF125959A3EC125959A3F1
:0C3B2A00ED125959A81008080874032671
:0E3B3600FCE40836FD0886068C828D838EF036
:0B3B4400E510240EF8125E41F6A312FB
:0A3B4F005E4108F6E510240EF8A907
:0C3B59001009E6C397C0E008E60997C019
:0C3B6500E0E5102417F8D0E0F618D0E0DE
:0C3B7100F6E5102414F8860308E6CB25C6
:0C3B7D00E0CB33FAE5102416F8C3EB96F9
:083B8900EA08964003023CB972
:0A3B9100A810080808A91009E7268B
:0C3B9B00FA09E70836FB088607E510244D
:0C3BA70009F8A60208A60308A607E5100E
:0C3BB3002409F8E5102418F9740326F723
:0C3BBF00E4083609F70809E6F7E51024D1
:0C3BCB000EF8A91009E6C397FA08E609F5
:0C3BD70097FBE5102418F886820886830E
:0E3BE3000886F0EA125959A3EB1259598C8248
:0C3BF1008D838EF0A81008E6125959A32D
:0C3BFD0008E6125959E510240CF8A60245
:093C090008A6037CAA7DF27E00EE
:0C3C12008C828D838EF0E5102418F812CF
:0B3C1E005E41F6A3125E4108F6A312FF
:0C3C29005E4108F6C004C005C006E510AE
:0E3C35002418F8740326FCE40836FD08860601
:0E3C43008C828D838EF0125E41FCA3125E41D6
:0C3C5100FDE510240CF8C3EC96ED08967D
:0C3C5D00E433D006D005D0046015E5105B
:0E3C69002418F886020886030886078A048B52
:053C7700058F06809698
:0C3C7C00E5102409F8868208868308867B
:0C3C8800F0E5102418F9E7125959A309BF
:0E3C9400E7125959A309E71259598C828D8302
:0C3CA2008EF0E5102409F8E6125959A331
:0B3CAE0008E6125959A308E612595904
:0C3CB900121115E5102411F8868208860F
:0A3CC500830886F0851081D01022DC
:0A3CCF00C010E581F5102408F5810E
:0E3CD900AA82AB83ACF0EA4B4C7003023DDED6
:0E3CE70090711FE493FD740193FEEAC39DFAF1
:0C3CF500EB9EFBA81008A60208A603081E
:0E3D0100A604C002C003C0041210FCD004D0FF
:0E3D0F0003D00274032AFAE43BFB8A828B8302
:0C3D1D008CF0125E41FAA3125E41FBE53F
:0A3D2900102404F8A60208A6037C8B
:053D3300AA7DF27E00F4
:0C3D38008C828D838EF0E5102406F812BA
:0B3D44005E41F6A3125E4108F6A312D8
:0C3D4F005E4108F6C004C005C006E51087
:0E3D5B002406F8740326FCE40836FD088606EC
:0E3D69008C828D838EF0125E41FCA3125E41AF
:0C3D7700FDE5102404F8C3EC96ED08965E
:0C3D8300E433D006D005D0046015E51034
:0E3D8F002406F886020886030886078A048B3D
:053D9D00058F06809671
:0C3DA200A8100886820886830886F0E5D9
:0C3DAE00102406F9E7125959A309E71286
:0E3DBA005959A309E71259598C828D838EF056
:0B3DC800A81008E6125959A308E612E3
:093DD3005959A308E612595912CE
:023DDC001115BF
:063DDE00851081D01022C7
:02711F00050069
:0E3DE40043C68053C6BE43FD30C291D292D278
:0B3DF2009343FE0E123FE97582012290
:083DFD00E582FA6003C2932283
:033E0500D2932233
:083E0800E582FA6003D2912269
:033E1000C291223A
:083E1300E582FA6003D292225D
:033E1B00C292222E
:0A3E1E00C010858110AA82AB83ACAE
:0E3E2800F0C2AF8A828B83E8C0E0EAC0E0E51A
:0C3E3600C7C0E0E51024F9F8E6FA08E641
:0E3E4200F58408E64480F58508E61813E613BB
:083E5000030354304401F5C7DF
:0E3E5800759201E493A3759200F0A3DAF3D003
:0E3E6600E0F5C7D0E0FAD0E0F8D2AF8A828B48
:0B3E7400838CF0125E41F584D0102218
:083E7F00AA82AB837C007D00E8
:0E3E8700C3EC9AED9B5008000CBC00F40D80BB
:013E9500F13B
:013E96002209
:083E9700AA82AB837C007D00D0
:0E3E9F00C3EC9AED9B501D9003E8C002C003D7
:0E3EAD00C004C005123E7FD005D004D003D063
:083EBB00020CBC00DF0D80DCED
:013EC30022DC
:093EC400AA82AB838595BC7C0049
:033ECD00BC040032
:0E3ED0005030C002C003ADBD8D067D00AFBCFA
:0E3EDE007A00EF2DFDEA3EFE90F75BE0FAA3BE
:0E3EEC00E0FB90F75BED2AF0EE3BA3F085952E
:083EFA00BC0CD003D00280CB08
:0E3F020090F75BE0FCA3E0FDC002C0038C82E0
:0E3F10008D83125B0C158115817C007D008C69
:083F1E00028D038A828B8322CD
:02727800FACB4F
:020000040001F9
:0E800000AA82AB83ACF0125E41FDBD0102808E
:01800E002B46
:05800F00BD0202800328
:03801400BD032386
:0C801700740DC0E0E4C0E0745DC0E074D3
:0C802300F7C0E0E4C0E08A828B838CF0A0
:0B802F00125C69E58124FBF5818021D3
:0C803A00740DC0E0E4C0E0746AC0E074A3
:0C804600F7C0E0E4C0E08A828B838CF07D
:09805200125C69E58124FBF58153
:04805B007582012207
:0E805F00AA82AB83ACF0125E41FDBD0102802F
:01806D0025ED
:05806E00BD02028003C9
:03807300BD031D2D
:0E807600740DC0E0E4C0E0C002C003C004907E
:0E808400F75D75F000125C69E58124FBF58163
:0180920022CB
:0E809300740DC0E0E4C0E0C002C003C0049061
:0E80A100F76A75F000125C69E58124FBF58139
:0180AF0022AE
:020000040000FA
:0D727A000000000000000000000000000007
:0D72870000000000000000000000000000FA
:0E3F2600AA8275CB0075CC008ACDD2BB75CBBC
:053F3400BE75820022B1
:043F390075CB002222
:0E3F3D00AA8275EB0075EC008AEDD2BC75EB24
:053F4B00BE758200229A
:043F500075EB0022EB
:043F540075E40032DE
:073F580053C3DF75C3003203
:0C3F5F00C020C0E0C0F0C082C083C002DF
:0E3F6B00C003C004C005C006C007C000C001EE
:0E3F7900C0D075D00075D83875CB00124CF84A
:0E3F8700D0D0D001D000D007D006D005D00495
:0D3F9500D003D002D083D082D0F0D0E0D095
:023FA2002032CB
:0C3FA400C020C0E0C0F0C082C083C0029A
:0E3FB000C003C004C005C006C007C000C001A9
:0E3FBE00C0D075D00075D80775EB0012648571
:0E3FCC00D0D0D001D000D007D006D005D00450
:0D3FDA00D003D002D083D082D0F0D0E0D050
:023FE700203286
:0E3FE9007420C0E0E4C0E0E4C0E090F2B575E2
:0E3FF700F000125D071581158115817A007B9F
:0140050000BA
:0E400600C3EA9404EB9400501E8A04EBCC2510
:0B401400E0CC33FDEC24D5F582ED3448
:0C401F00F2F583E4F0A3F00ABA00DC0B19
:02402B0080D93A
:0A402D007AB57BF28BD38AD2D2B8A9
:014037002266
:0C403800C020C0E0C0F0C082C083C00205
:0E404400C003C004C005C006C007C000C00114
:0E405200C0D075D000740155D1FA600653D16C
:04406000FE12499073
:0E406400C2C0D0D0D001D000D007D006D00509
:0E407200D004D003D002D083D082D0F0D0E0B2
:03408000D020321B
:05408300AA82BAE00072
:07408800403DBAE20280088E
:05408F00BAE30280030A
:03409400BAE52D5D
:0E40970090DF53E0FBA3E08AE1900001C0033C
:0E40A500123E7FD00390DF53E0FCA3E0FD7ECF
:0A40B30000EBB50405EEB50501228F
:0740BD0075E1E675E1E62262
:0340C4008AE1226C
:0C40C700BADE1053E9FD75E1DF75E1FE83
:0740D300E5E920E10480F99A
:0240DA008AE179
:0140DC0022C1
:0540DD00AA82BA0B00ED
:0740E2004005EA24E550044B
:0440E9007582FF22BB
:0E40ED008A037C00EB24F5FBEC34FFFCC002E0
:0E40FB00C003C004900005125B0CAD82AE83C2
:0E41090015811581D0028D038E0474652BFB89
:0E41170074013CFC4304408C057E0090DF10D8
:0E412500EDF0A3EEF090DF11EBF0A3E4F08AD2
:024133008222E6
:0B413500E582FA249B50047582FF22F3
:0E414000EA75F01FA4FBACF0C0027464C0E08E
:0E414E00E4C0E08B828C83125907AD82AE83F1
:0E415C0015811581D0028D038E0474602BFB3B
:0E416A0074A13CFC8C057E0090DF0AEDF0A3F2
:0E417800EEF090DF0BEBF0A3E4F090F2DDEA46
:04418600F08A822217
:0E418A0090F2DEE0FA20E73590DF4F7414F07B
:0E419800E4A3F090F2DE74804AF090DF17E0AE
:0E41A600FAA3E0FB90DF1774F75AF0A3EBF0DA
:0841B400E5E930E7FB53BEFB17
:0B41BC00E5BE30E6FB7582E212408396
:0C41C70053D1FED2B875D60175820122DA
:0D41D3007582FF12408375D6817582E5125A
:0E41E000408390DF17E0FAA3E0FB90DF177436
:0E41EE00084AF0A3EBF090F2DEE4F0758201D7
:0141FC0022A0
:0741FD0075D68175820122D5
:0B42040090F777E0FA60047582012259
:0E420F0090DF17E0FAA3E0FB90DF1774F75A78
:04421D00F0A3EBF02F
:0E42210090DF17E0FAA3E05302107B00BA0111
:06422F0005BB000280EC5B
:08423500E5E930E7FB53BEFB95
:0E423D00E5BE30E6FB90F2DEE4F090F2E1F038
:0E424B0090DF547401F0E4A3F090DF02740AD7
:0E425900F0E4A3F090DF0374F2F0E4A3F09021
:0E426700DF047430F0E4A3F090DF05E4F0A370
:0D427500F090DF60E0FAA3E08A037A009089
:0E428200DF61E0FCA3E0FD90F2DFEC2AF0ED3E
:0D4290003BA3F07582121240DD75826412AE
:0C429D0041357582E71240837582E612FD
:0942A90040837AD97BDF7DE27EBF
:0C42B200F28ED58DD48A058B068E079005
:0A42BE00F2E2EFF090F2E3EDF07A87
:0642C800EA7BF28B04907A
:0A42CE00F2E4ECF090F2E5EAF09063
:0C42D800F2E67420F090F2E77483F0909E
:0E42E400F2E87453F090F2E9741FF0759170D7
:0E42F20053E98F539BFC439A01D2A812418AD4
:0A43000090F7777401F07582012236
:0A430A00C0108581100581058105B2
:0E43140081AA82AB83ACF0125E41FDBD0102B6
:02432200805ABF
:06432400BD020302440487
:06432A00BD03030243BEC7
:05433000BD0402800342
:0343350002443609
:0E43380074012AFDE43BFE8C07C002C003C0E6
:0E4346000474082DFAE43EFB8F048A828B83F8
:0E4354008CF0125E4190DF4BF0A3E4F0740990
:0E4362002DFDE43EFE8D828E838FF0125E41B3
:0E437000FD90DF4CF0A3E4F0D004D003D002A7
:0C437E00A8100874012AF6E43B08F608B9
:08438A00A6047A437BDF7C00EE
:03439200BC080064
:05439500400302443664
:0C439A00A81008EC26FEE40836FF088698
:0E43A600058E828F838DF0125E41FE8A828B1F
:0A43B40083F0A3AA82AB830C80D42F
:0E43BE0074012AFDE43BFE8C07C002C003C060
:0E43CC000474022DFAE43EFB8F048A828B8378
:0E43DA008CF0125E4190DF4BF0A3E4F0740310
:0E43E8002DFDE43EFE8D828E838FF0125E412D
:0E43F600FD90DF4CF0A3E4F0D004D003D00221
:054404000ABA00010BE3
:0D4409008A058B068C078D828E838FF01242
:0E4416005E41FD90DF4DF0A3E4F00ABA000114
:014424000B8C
:0E4425008A828B838CF0125E41FA90DF4EF09B
:03443300A3E4F00F
:06443600851081D0102268
:0C443C00AA8290F2E1E4F0BA0102803B99
:05444800BA0202800A27
:05444D00BA0302800B20
:05445200BA047A80525B
:0644570090F2E17401F097
:0E445D0090DF02E0FAA3E0FB90DF0274104A49
:0D446B00F0A3EBF090DF03E0FAA3E0FB907C
:0B447800DF0374EF5AF0A3EBF080703C
:0E44830090DF02E0FAA3E0FB90DF0274184A1B
:0D449100F0A3EBF090DF03E0FAA3E0FB9056
:0B449E00DF0374104AF0A3EBF0804A2B
:0E44A90090DF02E0FAA3E0FB90DF0274084A05
:0D44B700F0A3EBF090DF03E0FAA3E0FB9030
:0B44C400DF0374104AF0A3EBF080242B
:0E44CF0090DF02E0FAA3E0FB90DF0274E75AF0
:0D44DD00F0A3EBF090DF03E0FAA3E0FB900A
:0944EA00DF0374EF5AF0A3EBF0BC
:0444F30075820122AB
:0E44F7007A007B007582E2C002C0031240838F
:0E450500900010123E7F900010123E7FD003F7
:04451300D0027C084E
:0E45170090DF07E0FDA3E0ED24D3FD3395E037
:0E452500FEED2AFAEE3BFB900010C002C00330
:0E453300C004123E7FD004D003D002DCD77447
:0E45410008C0E0E4C0E08A828B83125F60ACA9
:0E454F0082AD83158115818C028D038A822234
:0A455D00C0108581107A017582E21A
:0E456700C002124083900010123E7F900010A0
:0D457500123E7F900010123E7F9000101249
:0C4582003E7FD002A810181818B60002E6
:02458E00804D5E
:0C459000A810181818B6015390DF62E064
:0C459C00FBA3E0FCEB30E0357B017C0071
:0545A800BB0002803E93
:0745AD00EC24FE50027B002C
:0E45B4009000FAC002C003C004123E7FD00483
:0E45C200D003D00290DF62E0FDA3E0FEED200A
:0645D000E0047B007A000C
:0345D6000C80CF87
:0445D9007A00800ED6
:0E45DD0090DF62E0FBA3E0FCEB20E0027A003E
:0545EB008A82D01022BD
:0B45F000E582FA60067582E902408354
:0645FB007582E802408316
:0A460100C010858110C082C083C084
:0C460B00F0E581240CF581E5102404F892
:0C4617007601A81008742226FEE4083684
:0E462300FF0886058E828F838DF0125E41FEA9
:09463100A3125E41FFA81008E588
:0C463A0010240AF9742026F7E408360961
:0C464600F70809E6F7E510240AF8868260
:0E4652000886830886F0125E41FDA3125E41C9
:0C466000FAEEC39DFEEF9AFFE510240562
:0E466C00F8A60608A60790F2DEE0FC30E6068F
:06467A007582000247CF2B
:07468000EC20E70312418A60
:0C468700E5102405F8C3748096748008C8
:0D46930086F063F08095F0E433FC600302D4
:0246A00047B61B
:0C46A200C004A81008742C26FDE40836A3
:0C46AE00FE088607E510240AF886820842
:0E46BA0086830886F0125E41FCA3125E41FA70
:0C46C800EC2DFDEA3EFEE5102407F8A6EC
:0D46D4000508A60608A6077582E7C00412B7
:0C46E1004083D004E5102405F886027424
:0C46ED00022AF5D9D004E5102407F88655
:0946F900020886030886057E0014
:0C470200C0048E077C00E5102405F8C3FD
:0E470E00EF96EC64800886F063F08095F0E48E
:0E471C0033D00460138A828B838DF0125E41CD
:0A472A00F5D9A3AA82AB830E80CE5E
:0E47340075D90075D900C004E4C0E07582009C
:0E47420012455DAA821581D004EA70057582C9
:0347500002807C68
:0E47530053E9BF7582E4C004124083D0047A9B
:014761000057
:0E47620090DF62E0FBA3E0FDEB20E4328A036F
:044770000ABBC800B8
:0E477400502A90DF62E0A3E0E4FBFD4B600EF4
:0E4782007582E2C004124083D0047AC880D24F
:0E47900090000AC002C004123E7FD004D00286
:02479E0080C2D7
:0347A000BAC80094
:0B47A3004009E5102404F876008008AF
:0847AE0090F2DEE0FA4460F035
:0C47B600E5102404F8B6010AEC6007E5E9
:0647C200102404F876004B
:0747C800E5102404F88682CD
:0647CF00851081D01022CC
:0A47D500C010E581F5102404F58101
:0D47DF00AA82AB83ACF0C002C003C004127C
:0E47EC0064D9D004D003D0028A828B838CF073
:0847FA00125E416003024987D1
:0E480200C002C003C0047408C0E074F8C0E037
:0E48100074FFC0E07401C0E0E4C0E090F374F7
:0E481E0075F000123E1EE58124FBF581D004EA
:0E482C00D003D00274012AFDE43BFE8C07A8E5
:04483A0010087600EC
:06483E00A81008B60800F6
:0C4844005045C002C003C004A810087456
:0C48500007C396A81008082DF6E43E08E7
:0A485C00F608A607A81008E6247469
:0A486600F582E434F3F583E0FCA8CA
:0C48700010080886820886830886F0EC99
:0C487C00125959A8100806D004D003D02F
:034888000280B3F8
:0E488B008A828B838CF074011259592AFDE445
:0E4899003BFE8C07C002C003C0047401C0E0E7
:0E48A7008D828E838FF012652DAD821581D02B
:0A48B50004D003D002BD010280030D
:0348BF0002497E2D
:0E48C200907121C002C003C004124E51D004F8
:0E48D000D003D00274012AFDE43BFE8C07C029
:0E48DE0002C003C0048D028E038F048A828BF9
:0E48EC00838CF0E412595974012DFAE43EFB5E
:0E48FA008F048A828B838CF0E4125959740269
:0E4908002DFAE43EFB8F048A828B838CF0E450
:0E49160012595974032DFAE43EFB8F048A8275
:0E4924008B838CF0E412595974042DFAE43E92
:0E493200FB8F048A828B838CF0E41259597437
:0E494000052DFAE43EFB8F048A828B838CF0F7
:0E494E00E412595974062DFAE43EFB8F048AD8
:0E495C00828B838CF0744412595974072DFD20
:0E496A00E43EFE8D828E838FF0744412595904
:06497800D004D003D002C0
:09497E008A828B838CF0126581A2
:09498700758201851081D0102217
:0A499000C010E581F5102417F58131
:0A499A00A810087600A8100808769F
:0849A400EA0876F2087600E54E
:0C49AC00102406F8E4F608F608F675D6AC
:0C49B80081A81008088682088683088603
:0E49C400F0125E41FDA31818A68208A683E536
:0A49D200102405F8A605E5102405E1
:0C49DC00F8E6247C5007E5102405F8766E
:0149E800834B
:0849E900E5102405F8B60200F8
:0949F1004007E5102405F8161634
:0849FA00E5102405F8B60300E6
:054A02005003024C917D
:0A4A0700AE100E7F007A40E5102487
:0C4A110006FBE510240CF8A60308760054
:0E4A1D0008764090F517E0FBA3E0FCA3E0FD57
:0C4A2B00C006C007C002E510240CF8E62D
:0E4A3700C0E008E6C0E008E6C0E08B828C8399
:0E4A45008DF012297BAA82E58124FAF581E426
:044A5300BA0101049F
:054A57007003024C9108
:0C4A5C00E5102406F8860508860608868A
:0C4A680007742C2DFAE43EFB8F04E510CF
:0E4A74002409F8A60208A60308A60474262D3D
:0E4A8200FAE43EFB8F048A828B838CF0E412F0
:0E4A900059598D828E838FF0E4125959A3E498
:0E4A9E00125959A3E412595974202DFAE43E1E
:0E4AAC00FB8F048A828B838CF0E4125959A38D
:0E4ABA00E4125959741F2DFDE43EFE8D828ECC
:0C4AC800838FF0E4125959A8100808E58B
:0C4AD40010240FF9E6F70809E6F70809BE
:0C4AE000E6F7E5102409F88602088603BA
:054AEC000886047E00B5
:0B4AF100E5102405F8C3EE96502BE5FD
:0C4AFC0010240FF886820886830886F0DC
:0E4B0800125E41FDA31818A68208A6838A82B9
:0E4B16008B838CF0ED125959A3AA82AB830E4B
:024B240080CB44
:0C4B2600E5102406F886020886030886C5
:0C4B320004E5102412F874262AF6E43B77
:0B4B3E0008F608A604E5102412F8E5B4
:0C4B4900102415F9740126F7E408360961
:0C4B5500F70809E6F7E510240FF8868247
:0C4B61000886830886F0125E41FDE51016
:0C4B6D00240FF8A9100909740126F7E4D0
:0D4B7900083609F70809E6F7ED24D3FDE53D
:0C4B8600102415F886820886830886F04B
:0C4B9200ED125959E5102412F8740226A7
:0C4B9E00FDE40836FE088607A810080891
:0C4BAA0086820886830886F0E51024153A
:0C4BB600F9125E41F78D828E838FF0E5CE
:094BC200102415F8E6125959E51A
:0C4BCB00102412F874222AF6E43B08F6CD
:0C4BD70008A604E5102405F886027B0007
:0C4BE300E5102412F886820886830886FC
:0B4BEF00F0EA125959A3EB125959E5E6
:0C4BFA00102415F8747F568D828E838F76
:0E4C0600F012595990F2DEE044C0F0758209B8
:0C4C1400123F26A810080886820886833C
:0C4C20000886F0125E41FA30E715E5103E
:0E4C2C002406F886820886830886F01265D575
:054C3A00126629805202
:0C4C3F00E5102406F886020886030886AB
:0E4C4B000474222AFAE43BFB8A828B838CF0ED
:0A4C5900E4125959A3E4125959E579
:0C4C6300102406FA7B007C4090F517E05E
:0C4C6F00FDA3E0FEA3E0FFA81008E6C0D3
:0E4C7B00E0C002C003C0048D828E838FF01251
:084C890023EBE58124FCF58119
:0E4C9100C2AF90DF53E0FAA3E07B00BA00054B
:054C9F00BB000280488B
:0E4CA40090DF62E0FAA3E053020C7B00BA043A
:0E4CB20031BB002E75D68190DF62E0A3E0E4F6
:0E4CC000FAFB4A60147582E51240837582E6A5
:0B4CCE001240837582E21240838006D2
:064CD9007582E612408323
:054CDF0075D601800BF9
:084CE40075D60175D7018003AC
:034CEC0075D60179
:084CEF00D2AF851081D0102224
:014CF700229A
:084CF80090F2DEE054BFF0224F
:0C4D0000C020C0E0C0F0C082C083C00230
:0E4D0C00C003C004C005C006C007C000C0013F
:0E4D1A00C0D075D000C2AFE5E930E62253E903
:0E4D2800BF90F2DEE0FA30E51490F2DE744047
:0D4D36004AF090F2DEE06420F07582251254
:024D43003F2609
:034D450075D6011F
:0E4D4800E5E930E44F90DF62E0FAA3E0FBEA19
:0E4D560020E44090DF53E0FAA3E0FBEA247F64
:0E4D6400502075D6817582E51240837582E677
:0D4D72001240837582E61240837582E212C2
:074D7F00408375D60180138B
:084D8600EA24FE500E75D681EF
:084D8E00EA6005E5D91A80F87E
:034D960075D601CE
:034D990053E9EFEC
:0E4D9C00E5E930E52653E9DF90DF62E0FAA397
:0E4DAA00E0FBEA30E317E5D620E00375D60102
